S0260000777562737569745F626173655F4D53535F4D53535F434D335F305F6170702E73726563FC
S315200000000000012099020020090300200B03002094
S315200000100D0300200F030020110300200000000024
S315200000200000000000000000000000001303002074
S3152000003015030020000000001703002019030020EC
S315200000401B0300201D0300201F0300202103002086
S315200000502303002025030020270300202903002056
S315200000602B0300202D030020E9250020192600203F
S3152000007033030020350300203703002039030020F6
S315200000803B0300203D0300203F03002041030020C6
S315200000904303002045030020470300204903002096
S315200000A04B030020000000000000000000000000BC
S315200000B00000000000000000000000004D030020AA
S315200000C04D1400200D160020BD1700200D1800200D
S315200000D039180020651800205B0300205D030020EE
S315200000E05F030020610300206303002065030020D6
S315200000F067030020690300206B0300206D030020A6
S315200001006F03002071030020730300207503002075
S3152000011077030020790300207B0300207D03002045
S315200001207F03002081030020830300208503002015
S3152000013087030020890300208B0300208D030020E5
S315200001408F030020910300209303002095030020B5
S3152000015097030020990300209B0300209D03002085
S315200001609F030020A1030020A3030020A503002055
S31520000170A7030020A9030020AB030020AD03002025
S31520000180AF030020B1030020B3030020B5030020F5
S31520000190B7030020B9030020BB030020BD030020C5
S315200001A0BF030020C1030020C3030020C503002095
S315200001B0C7030020C9030020CB030020CD03002065
S315200001C0CF030020D1030020D3030020D503002035
S315200001D0D7030020D9030020DB030020DD03002005
S315200001E0DF030020E1030020E3030020E5030020D5
S315200001F0E7030020E9030020EB030020ED030020A5
S31520000200EF030020F1030020F3030020F503002074
S31520000210F7030020F9030020FB030020FD03002044
S31520000220FF03002001040020030400200504002011
S3152000023007040020090400200B0400200D040020E0
S315200002400F040020110400201304002015040020B0
S3152000025017040020190400201B0400201D04002080
S315200002601F04002021040020230400202504002050
S3152000027027040020290400202B0400202D04002020
S315200002802F040020310400203304002035040020F0
S315200002903704002039040020684880476848002831
S315200002A00BD168486849694A884206D091421CBFEA
S315200002B050F8043B41F8043BF8D165486549664A45
S315200002C0884206D091421CBF50F8043B41F8043BBB
S315200002D0F8D162486249634A914218BF41F8040B3B
S315200002E0FAD100000000000000000000000000001D
S315200002F0DFF874010FF2030E00474FF000004FF0B5
S315200003000001DFF868F1FEE7FEE7FEE7FEE7FEE71D
S31520000310FEE7FEE7FEE7FEE7FEE7FEE7FEE7FEE78F
S31520000320FEE7FEE7FEE7FEE7FEE7FEE7FEE7FEE77F
S31520000330FEE7FEE7FEE7FEE7FEE7FEE7FEE7FEE76F
S31520000340FEE7FEE7FEE7FEE7FEE7FEE7FEE7FEE75F
S31520000350FEE7FEE7FEE7FEE7FEE7FEE7FEE7FEE74F
S31520000360FEE7FEE7FEE7FEE7FEE7FEE7FEE7FEE73F
S31520000370FEE7FEE7FEE7FEE7FEE7FEE7FEE7FEE72F
S31520000380FEE7FEE7FEE7FEE7FEE7FEE7FEE7FEE71F
S31520000390FEE7FEE7FEE7FEE7FEE7FEE7FEE7FEE70F
S315200003A0FEE7FEE7FEE7FEE7FEE7FEE7FEE7FEE7FF
S315200003B0FEE7FEE7FEE7FEE7FEE7FEE7FEE7FEE7EF
S315200003C0FEE7FEE7FEE7FEE7FEE7FEE7FEE7FEE7DF
S315200003D0FEE7FEE7FEE7FEE7FEE7FEE7FEE7FEE7CF
S315200003E0FEE7FEE7FEE7FEE7FEE7FEE7FEE7FEE7BF
S315200003F0FEE7FEE7FEE7FEE7FEE7FEE7FEE7FEE7AF
S31520000400FEE7FEE7FEE7FEE7FEE7FEE7FEE7FEE79E
S31520000410FEE7FEE7FEE7FEE7FEE7FEE7FEE7FEE78E
S31520000420FEE7FEE7FEE7FEE7FEE7FEE7FEE7FEE77E
S31520000430FEE7FEE7FEE7FEE7FEE70000692C002068
S3152000044000000000000000200000002050A4002032
S3152000045050A4002050A4002070B500200000000009
S3152000046070B5002010BD0020452E00201D0500205F
S315200004704BF27053C2F200031A780AB901201870A1
S31520000480704700BF4AF25040C2F2000008B5036828
S315200004902BB140F20003C0F2000303B1984708BD18
S315200004A080B582B000AF0346FB714BF27153C2F2A6
S315200004B000031B781A46FB7949F2B810C2F20000F5
S315200004C011461A4602F0E6FC4BF27153C2F20003C3
S315200004D0FA791A7007F10807BD4680BD80B582B04B
S315200004E000AF786013460A46FA70BB70FA78BB787C
S315200004F049F2D810C2F20000796802F0CBFC07F16D
S315200005000807BD4680BD00BF80B500AF49F2EC109C
S31520000510C2F2000002F0BEFC80BD00BF80B500AF75
S3152000052001F0B6F9FEE700BF80B582B000AF786073
S3152000053039607B6803F1010349F64C00C2F20000E2
S31520000540194602F0A7FC7B685B7849F64C00C2F29C
S315200005500000194602F09EFC4BF66043C2F20003EF
S315200005607A681A604BF65C43C2F200033A681A6056
S315200005704BF66043C2F200031B6803F1010349F600
S315200005804C00C2F20000194602F084FC4BF6604390
S31520000590C2F200031B685B7849F64C00C2F20000E9
S315200005A0194602F077FC4BF65843C2F200034BF291
S315200005B0B452C2F200021A604BF2B053C2F20003E8
S315200005C04FF000021A704BF2B453C2F2000349F600
S315200005D05402C2F200021A604BF2B453C2F2000374
S315200005E04FF004021A714BF2B453C2F200034FF0DB
S315200005F000029A614BF2B453C2F20003DC4ADA617C
S315200006004BF2B453C2F20003DA4A1A624BF2B453E5
S31520000610C2F20003D84A5A624BF2B453C2F2000324
S31520000620D64A9A624BF2B453C2F2000349F66002EC
S31520000630C2F200025A644BF2B453C2F200034FF0E6
S31520000640030283F848204BF2B453C2F20003CC4A8B
S315200006501A664BF2B453C2F20003CA4A5A664BF2E8
S31520000660B453C2F20003C84A9A664BF2B453C2F29C
S3152000067000034BF2B452C2F20002DA654BF2B453D5
S31520000680C2F2000349F66C02C2F20002C3F88820C7
S315200006904BF2B453C2F200034FF0020283F88C20CF
S315200006A04BF2B453C2F20003B84AC3F8A4204BF26B
S315200006B0B453C2F20003B64AC3F8A8204BF2B4538F
S315200006C0C2F200034BF2B452C2F20002C3F8A020D9
S315200006D04BF2B453C2F2000349F67C02C2F2000286
S315200006E0C3F8CC204BF2B453C2F200034FF00302FE
S315200006F083F8D0204BF2B453C2F20003A54AC3F8C4
S31520000700E8204BF2B453C2F20003A34AC3F8EC200C
S315200007104BF2B453C2F20003A04AC3F8F0204BF2C6
S31520000720B453C2F20003924AC3F8E4204BF2B45306
S31520000730C2F2000349F61402C2F20002C3F8D82519
S315200007404BF2B453C2F200034FF0000283F8DC25CB
S315200007504BF2B453C2F200034FF0020283F8DD25B8
S315200007604BF2B453C2F200034FF0000283F8DE25A9
S315200007704BF2B453C2F200037D4AC3F8F0254BF284
S31520000780B453C2F2000349F62002C2F20002C3F8B3
S315200007901C264BF2B453C2F200034FF0000283F83A
S315200007A020264BF2B453C2F200034FF0020283F824
S315200007B021264BF2B453C2F200034FF0010283F814
S315200007C0DE254BF2B453C2F20003694AC3F834263D
S315200007D04BF2B453C2F2000349F62802C2F20002D9
S315200007E0C3F860264BF2B453C2F200034FF0000266
S315200007F083F864264BF2B453C2F200034FF0020290
S3152000080083F865264BF2B453C2F200034FF002027E
S3152000081083F8DE254BF2B453C2F20003544AC3F8E0
S3152000082078264BF2B453C2F2000349F68C02C2F288
S315200008300002C3F864224BF2B453C2F200034FF015
S31520000840000283F868224BF2B453C2F200034FF041
S31520000850000283F869224BF66043C2F200031B684C
S3152000086003F10C024BF2B453C2F20003C3F86C221C
S315200008704BF2B453C2F200033D4AC3F87C224BF23A
S31520000880B453C2F2000341F25112C2F20002C3F87D
S3152000089078224BF2B453C2F2000349F69802C2F210
S315200008A00002C3F8A8224BF2B453C2F200034FF061
S315200008B0000283F8AC224BF2B453C2F200034FF08D
S315200008C0000283F8AD224BF66043C2F200031B6898
S315200008D003F10D024BF2B453C2F20003C3F8B02267
S315200008E04BF2B453C2F20003214AC3F8C0224BF2A2
S315200008F0B453C2F2000341F25112C2F20002C3F80D
S31520000900BC224BF2B453C2F2000349F6A402C2F24F
S315200009100002C3F8DC214BF2B453C2F200034FF0BD
S31520000920000283F8E0214BF2B453C2F200034FF0E9
S31520000930000283F8E1214BF66043C2F200031B68F4
S3152000094003F10A024BF2B453C2F20003C3F8E421C6
S315200009504BF2B453C2F20003064AC3F8F4214BF219
S31520000960B453C2F2000341F25112C2F2000217E060
S31520000970F8B500203CB60020A0B800206CB90020B5
S3152000098080B6002018B800205CB8002090B7002060
S31520000990D4B700208CBB0020D0BB002014BC002084
S315200009A0C3F8F0214BF2B453C2F2000349F6B00269
S315200009B0C2F20002C3F820224BF2B453C2F2000363
S315200009C04FF0000283F824224BF2B453C2F2000304
S315200009D04FF0000283F825224BF66043C2F2000353
S315200009E01B6803F10B024BF2B453C2F20003C3F8A7
S315200009F028224BF2B453C2F20003E54AC3F8382248
S31520000A004BF2B453C2F2000341F25112C2F2000279
S31520000A10C3F834224BF2B453C2F2000349F6BC02A7
S31520000A20C2F20002C3F8EC224BF2B453C2F2000326
S31520000A304FF0020283F8F0224BF2B453C2F20003C5
S31520000A40D44AC3F808234BF2B453C2F20003D24A65
S31520000A50C3F80C234BF2B453C2F200034BF2B45248
S31520000A60C2F20002C3F804234BF2B453C2F20003CD
S31520000A7049F6C802C2F20002C3F830234BF2B4533F
S31520000A80C2F200034FF0000283F834234BF2B45332
S31520000A90C2F200034FF0010283F835234BF6604380
S31520000AA0C2F200031B6803F108024BF2B453C2F2F0
S31520000AB00003C3F83C234BF2B453C2F20003B74AF7
S31520000AC0C3F848234BF2B453C2F2000341F2791221
S31520000AD0C2F20002C3F844234BF2B453C2F200031D
S31520000AE049F6D802C2F20002C3F874234BF2B4537B
S31520000AF0C2F200034FF0000283F878234BF2B4537E
S31520000B00C2F200034FF0010283F879234BF66043CB
S31520000B10C2F200031B6803F109024BF2B453C2F27E
S31520000B200003C3F880234BF2B453C2F200039B4A5E
S31520000B30C3F88C234BF2B453C2F2000341F279126C
S31520000B40C2F20002C3F888234BF2B453C2F2000368
S31520000B5049F6E802C2F20002C3F8B8234BF2B453B6
S31520000B60C2F200034FF0070283F8BC234BF2B453C2
S31520000B70C2F200038A4AC3F8D4234BF2B453C2F21A
S31520000B800003884AC3F8D8234BF2B453C2F20003B9
S31520000B90854AC3F8DC234BF2B453C2F20003834ADE
S31520000BA0C3F8E0234BF2B453C2F20003804AC3F8E1
S31520000BB0E4234BF2B453C2F200037E4AC3F8E8237F
S31520000BC04BF2B453C2F200037B4AC3F8EC234BF238
S31520000BD0B453C2F200034BF2B452C2F20002C3F87D
S31520000BE0D0234BF2B453C2F2000349F6F402C2F208
S31520000BF00002C3F8FC234BF2B453C2F200034FF0B9
S31520000C00000283F800244BF2B453C2F200034FF0E3
S31520000C10000283F801244BF66043C2F200031B68EE
S31520000C201A464BF2B453C2F20003C3F804244BF223
S31520000C30B453C2F20003614AC3F814244BF2B453EE
S31520000C40C2F2000341F25112C2F20002C3F810248C
S31520000C504BF2B453C2F2000349F60012C2F200026C
S31520000C60C3F840244BF2B453C2F200034FF0000203
S31520000C7083F844244BF2B453C2F200034FF000022F
S31520000C8083F845244BF66043C2F200031B6803F148
S31520000C9001024BF2B453C2F20003C3F848244BF2CC
S31520000CA0B453C2F20003454AC3F858244BF2B45356
S31520000CB0C2F2000341F25112C2F20002C3F85424D8
S31520000CC04BF2B453C2F2000349F60C12C2F20002F0
S31520000CD0C3F884244BF2B453C2F200034FF000024F
S31520000CE083F888244BF2B453C2F200034FF000027B
S31520000CF083F889244BF66043C2F200031B6803F194
S31520000D0002024BF2B453C2F20003C3F88C244BF216
S31520000D10B453C2F20003294AC3F89C244BF2B453BD
S31520000D20C2F2000341F25112C2F20002C3F8982423
S31520000D304BF2B453C2F2000349F61812C2F2000273
S31520000D40C3F8C8244BF2B453C2F200034FF000029A
S31520000D5083F8CC244BF2B453C2F200034FF00002C6
S31520000D6083F8CD244BF66043C2F200031B6803F1DF
S31520000D7003024BF2B453C2F20003C3F8D0244BF261
S31520000D80B453C2F200030D4AC3F8E02418E000BFB2
S31520000D903CB60020E4B8002028B90020A0B80020E6
S31520000DA0B0B90020F4B9002038BA00207CBA00205F
S31520000DB0C0BA002004BB002048BB00206CB900202C
S31520000DC04BF2B453C2F2000341F25112C2F20002B6
S31520000DD0C3F8DC244BF2B453C2F2000349F62412C2
S31520000DE0C2F20002C3F80C254BF2B453C2F2000340
S31520000DF04FF0000283F810254BF2B453C2F20003E1
S31520000E004FF0000283F811254BF66043C2F200032F
S31520000E101B6803F104024BF2B453C2F20003C3F879
S31520000E2014254BF2B453C2F20003404AC3F82425DA
S31520000E304BF2B453C2F2000341F25112C2F2000245
S31520000E40C3F820254BF2B453C2F2000349F6301200
S31520000E50C2F20002C3F850254BF2B453C2F200038B
S31520000E604FF0000283F854254BF2B453C2F200032C
S31520000E704FF0000283F855254BF66043C2F200037B
S31520000E801B6803F105024BF2B453C2F20003C3F808
S31520000E9058254BF2B453C2F20003244AC3F86825FE
S31520000EA04BF2B453C2F2000341F25112C2F20002D5
S31520000EB0C3F864254BF2B453C2F2000349F63C1240
S31520000EC0C2F20002C3F894254BF2B453C2F20003D7
S31520000ED04FF0000283F898254BF2B453C2F2000378
S31520000EE04FF0000283F899254BF66043C2F20003C7
S31520000EF01B6803F106024BF2B453C2F20003C3F897
S31520000F009C254BF2B453C2F20003084AC3F8AC2521
S31520000F104BF2B453C2F2000341F25112C2F2000264
S31520000F20C3F8A82507F10807BD4680BD6CB9002087
S31520000F3080B582B000AFFFF7E7FA4BF2B053C2F2AA
S31520000F4000031B781846FFF7ABFA4BF65843C2F25C
S31520000F5000031B681B6818464FF00A014FF0000279
S31520000F60FFF7BCFA4FF00003FB7040E04BF6584306
S31520000F70C2F200031A68FB78DBB203F106034FEADC
S31520000F80830313445B687B607B681A68FB78DBB25B
S31520000F9003F10103DBB24FEAC303DBB210464FF085
S31520000FA00A011A46FFF79AFA7B681B79DBB2002BF7
S31520000FB017D17B685B79DBB2022B12D07B685B6929
S31520000FC0786898470246FB78DBB203F10103DBB26F
S31520000FD04FEAC303DBB210464FF064011A46FFF70F
S31520000FE07DFAFB78DBB203F10103DBB2FB704BF633
S31520000FF05843C2F200031B681A79FB78DBB29A4287
S31520001000B4D807F10807BD4680BD00BF80B582B0C1
S3152000101000AF78604BF65843C2F200037A681A6034
S315200010204BF2B053C2F200034FF000021A704BF697
S315200010305843C2F200031B681846FFF779FF07F1F1
S315200010400807BD4680BD00BF80B500AF4BF2B05348
S31520001050C2F200031B781A464BF65843C2F200032D
S315200010601B681B7903F1FF339A4214DA4BF2B05313
S31520001070C2F200031B7803F10103DAB24BF2B0533C
S31520001080C2F200031A704BF2B053C2F200031B786F
S315200010901846FFF705FA80BD80B500AF4BF2B05376
S315200010A0C2F200031B78002B14D04BF2B053C2F2CD
S315200010B000031B7803F1FF33DAB24BF2B053C2F2CE
S315200010C000031A704BF2B053C2F200031B78184685
S315200010D0FFF7E6F980BD00BF80B582B000AF4BF6C2
S315200010E05843C2F200031A684BF2B053C2F200030F
S315200010F01B7803F106034FEA830313445B687B6086
S315200011007B681B79002B1BD17B685B79022B0DD169
S315200011104BF66043C2F200031B687A6892791A760E
S315200011207B689B691846FFF771FF0CE0786800F032
S3152000113037F84BF65843C2F200037A681A6002E089
S315200011407868FFF763FF07F10807BD4680BD00BF3B
S3152000115080B483B000AF78607B689B681B781A46A2
S315200011604AF25443C2F2000353F82230184607F1DC
S315200011700C07BD4680BC704780B483B000AF786052
S315200011807B68DB681B781A464AF25463C2F2000376
S3152000119053F82230184607F10C07BD4680BC70472D
S315200011A080B582B000AF78604BF65C43C2F2000394
S315200011B01B684FF00102DA714BF65C43C2F2000362
S315200011C01B687A6852791A727B685B79002B08D182
S315200011D04BF66043C2F200031B687A6892681A6174
S315200011E00BE07B685B79012B07D14BF66043C2F29B
S315200011F000031B687A68D2685A617B685B79184657
S3152000120000F024F807F10807BD4680BD80B400AF82
S315200012104BF65843C2F200031B689B69002B02D190
S315200012204FF0010301E04FF000031846BD4680BC95
S31520001230704700BF80B500AF4BF65843C2F200039B
S315200012401B689B691846FFF7E1FE80BD80B582B01A
S3152000125000AF0346FB71FFF757F9FB79002B0AD144
S3152000126049F64410C2F200004FF000014FF0000290
S31520001270FFF734F909E049F66010C2F200004FF09A
S3152000128000014FF00002FFF729F907F10807BD46D4
S3152000129080BD00BF80B483B000AF78604BF6644356
S315200012A0C2F200037A681A6007F10C07BD4680BCBB
S315200012B0704700BF80B582B000AF786039604BF6CA
S315200012C06443C2F200031B68184679683A6801F045
S315200012D073FB07F10807BD4680BD00BF80B584B00B
S315200012E000AF13460246FA710A46BA717B717B79C2
S315200012F0DBB203F00F036FEA030303F06F036FEA19
S315200013000303DBB2DBB23B73FB797B73BB79BB7325
S3152000131007F10C0318464FF00301FFF7CBFF07F147
S315200013201007BD4680BD00BF80B584B000AF134610
S315200013300246FA710A46BA717B717B79DBB203F0F9
S315200013400F036FEA43636FEA5363DBB2DBB23B738F
S31520001350FB797B73BB79BB7307F10C0318464FF0FF
S315200013600301FFF7A7FF07F11007BD4680BD00BFA9
S3152000137080B584B000AF02460B46FA807B717B793C
S31520001380DBB203F00F036FEAC3636FEAD363DBB20A
S31520001390D9B2FB88DBB21A4602F07F02FB88DBB2A9
S315200013A003F03F0339737A73BB7307F10C031846B6
S315200013B04FF00301FFF77EFF07F11007BD4680BD02
S315200013C080B483B000AF0346FB804EF20013CEF20A
S315200013D00003B7F906204FEA5212F98801F01F01DF
S315200013E04FF0010000FA01F143F8221007F10C0733
S315200013F0BD4680BC704700BF80B483B000AF0346B3
S31520001400FB804EF20013CEF20003B7F906204FEA16
S315200014105212F98801F01F014FF0010000FA01F184
S3152000142002F1600243F8221007F10C07BD4680BC8A
S31520001430704700BF80B400AF43F20003C4F201033B
S31520001440D3F884301846BD4680BC7047684620F0E5
S3152000145007018D4681B5ADF5037D00AF4FF0000342
S3152000146087F80732B9E007F104034BF69040C2F241
S31520001470000019464FF4007201F012FA034687F86D
S31520001480073297F80732002B00F0A7803B464FF033
S3152000149000021A609AE04BF6A443C2F200031B78BE
S315200014A0012B1DD13B461B6807F10402D35CFF2BA1
S315200014B02CD14BF6A443C2F200039B68062B07D01F
S315200014C04BF6A443C2F200034FF000021A701EE04E
S315200014D04BF6A443C2F200034FF000029A6016E0D6
S315200014E03B461B6807F10402D35CFF2B0FD14BF65A
S315200014F0A443C2F200034FF000029A604BF6A443C5
S31520001500C2F200034FF001021A7000E000BF4BF652
S31520001510A443C2F200039A683B461B6807F1040104
S31520001520C95C4BF6A443C2F200031344597002F17E
S3152000153001024BF6A443C2F200039A604BF6A44381
S31520001540C2F200031B78012B3AD14BF6A443C2F218
S3152000155000039B68062B33D14BF6A443C2F200034B
S315200015609A784BF69843C2F200035A704BF6A4437E
S31520001570C2F20003DA784BF69843C2F200039A705F
S315200015804BF6A443C2F200031A794BF69843C2F2F3
S315200015900003DA704BF6A443C2F200035A794BF6E5
S315200015A09843C2F200031A714BF6A443C2F2000319
S315200015B09A794BF69843C2F200035A7100F0E4FB85
S315200015C03B461B6803F101023B461A6097F8072247
S315200015D03B461B689A423FF75EAFFFF72BFF034659
S315200015E003F00103DBB2002B7FF43DAF4FF0000088
S315200015F001F032F94FF02000FFF7FEFE07F50377E2
S31520001600BD46BDE881408546704700BF684620F04C
S3152000161007018D4681B5ADF5037D00AF4FF0000380
S3152000162087F80732AEE007F104034BF6B040C2F26A
S31520001630000019464FF4007201F032F9034687F88C
S31520001640073297F80732002B00F09C803B464FF07C
S3152000165000021A608FE04BF66843C2F200031B7843
S31520001660012B2ED13B461B6807F10402D35C4FEABF
S31520001670D313DBB2012B4BD13B461B6807F1040287
S31520001680D35C03F00F024BF67043C2F200035B7E7D
S315200016909A423FD14BF66843C2F200035B68032BA4
S315200016A007D04BF66843C2F200034FF000021A70CF
S315200016B031E04BF66843C2F200034FF000025A6055
S315200016C029E03B461B6807F10402D35C4FEAD3139B
S315200016D0DBB2012B1FD13B461B6807F10402D35C0A
S315200016E003F00F024BF67043C2F200035B7E9A4270
S315200016F011D14BF66843C2F200034FF000025A6044
S315200017004BF66843C2F200034FF001021A7002E062
S3152000171000BF00E000BF4BF66843C2F200035A68E0
S315200017203B461B6807F10401C95C4BF66843C2F2CD
S3152000173000031344597002F101024BF66843C2F2CA
S3152000174000035A604BF66843C2F200031B78012B54
S315200017500BD14BF66843C2F200035B68032B04D11E
S3152000176015484FF0030100F03BFA3B461B6803F196
S3152000177001023B461A6097F807223B461B689A42AD
S315200017803FF769AFFFF756FE03464FEA530303F0D0
S315200017900103DBB2002B7FF446AF4FF0010001F0CE
S315200017A05BF84FF02100FFF727FE07F50377BD46CC
S315200017B0BDE881408546704769BC0020684620F018
S315200017C007018D4681B583B000AFFFF733FE034690
S315200017D04FEA9303DBB203F00103FB71FB79012B84
S315200017E002D100F03BFB01E000F0C0FB4FF002000D
S315200017F001F032F84FF02200FFF7FEFD07F10C074B
S31520001800BD46BDE881408546704700BF684620F04A
S3152000181007018D4689B500AF00F012FC4FF003009A
S3152000182001F01AF84FF02300FFF7E6FDBD46BDE8AC
S3152000183089408546704700BF684620F007018D46DF
S3152000184089B500AF00F030FC4FF0040001F004F839
S315200018504FF02400FFF7D0FDBD46BDE88940854600
S31520001860704700BF684620F007018D4689B500AF56
S3152000187000F0A6FB4FF0050000F0EEFF4FF025002C
S31520001880FFF7BAFDBD46BDE889408546704700BFD3
S3152000189080B582B000AF49F6A470C2F2000001F014
S315200018A0F9FA49F6C470C2F2000001F0F3FA49F6DB
S315200018B0D470C2F2000001F0EDFA49F6E470C2F2EB
S315200018C0000001F0E7FA49F6F870C2F2000001F0D4
S315200018D0E1FA4BF69843C2F200034FF00002DA71A8
S315200018E04BF69843C2F200034FF000025A724BF6B1
S315200018F0A443C2F200034FF000021A704BF6A44331
S31520001900C2F200034FF000029A604FF000033B60E2
S315200019100CE03A684BF6A443C2F2000313444FF09E
S3152000192000025A703B6803F101033B603B68052BBC
S31520001930EFDD4BF66843C2F200034FF000021A7047
S315200019404BF66843C2F200034FF000025A604FF094
S3152000195000033B600CE03A684BF66843C2F2000392
S3152000196013444FF000025A703B6803F101033B60B9
S315200019703B68022BEFDD4BF67043C2F200034FF0BB
S3152000198000021A704BF67043C2F200034FF00102B8
S315200019905A704BF67043C2F200034FF002029A705F
S315200019A04BF67043C2F200034FF00302DA704BF697
S315200019B07043C2F200034FF004021A714BF67043D3
S315200019C0C2F200034FF005025A714BF67043C2F281
S315200019D000034FF006029A714BF69843C2F20003B9
S315200019E04FF000025A714BF67043C2F200034FF0DB
S315200019F00002DA714BF67043C2F200034FF00A027E
S31520001A001A724BF67043C2F200034FF05A025A7212
S31520001A104BF67043C2F200034FF018029A724BF64F
S31520001A207043C2F200034FF01902DA724BF670438C
S31520001A30C2F200034FF030021A734BF67043C2F223
S31520001A4000034FF03C025A734BF67043C2F2000378
S31520001A504FF000021A764BF67043C2F200034FF0A5
S31520001A6000025A764BF67043C2F200034FF0000292
S31520001A709A764BF67043C2F200034FF00002DA76F4
S31520001A804BF67043C2F200036FF001021A774BF651
S31520001A907043C2F200034FF000025A774BF67043B0
S31520001AA0C2F200034FF07F029A7746F21003C4F287
S31520001AB000037B607A6845F2FA53C4F66E431360DE
S31520001AC04AF21000C2F2000001F0E4F900F064FED0
S31520001AD04BF69040C2F2000040F20001C4F205012C
S31520001AE04FF035024FF0010300F0D8FF4BF6B0401F
S31520001AF0C2F2000040F20011C4F205014FF0C70205
S31520001B004FF0010300F0CAFF4BF6B040C2F20000CE
S31520001B10FFF7C0FB4FF000004FF0420100F06CFED3
S31520001B204FF0000000F074FE4FF02000FFF748FC55
S31520001B304FF001004FF0420100F05EFE4FF0010031
S31520001B4000F066FE4FF02100FFF73AFC4FF002004E
S31520001B504FF0820100F050FE4FF0020000F058FED8
S31520001B604FF02200FFF72CFC4FF003004FF042010C
S31520001B7000F042FE4FF0030000F04AFE4FF0230033
S31520001B80FFF71EFC4FF004004FF0420100F034FE38
S31520001B904FF0040000F03CFE4FF02400FFF710FC4D
S31520001BA04FF005004FF0420100F026FE4FF00500F1
S31520001BB000F02EFE4FF02500FFF702FC4BF670409A
S31520001BC0C2F200004BF69841C2F20001FEF7ACFCCF
S31520001BD04FF0000000F0BEFA07F10807BD4680BDB1
S31520001BE080B584B000AF78600B467B807B681B781D
S31520001BF0902B3BD14BF69843C2F200031B78012B66
S31520001C0012D17B6803F101031B78184600F098F87F
S31520001C100346FB73FB7B062B46D8FB7B184600F05E
S31520001C204DF800F0AFFA44E04BF69843C2F20003B9
S31520001C30DB79012B3AD14BF69843C2F200031B7A8B
S31520001C40002B35D14BF67043C2F200031B697A682C
S31520001C5002F1010212781A704BF69843C2F2000381
S31520001C604FF00002DA71FFF7E5FA22E07B681B7875
S31520001C70802B1ED14BF69843C2F200031B78012B12
S31520001C8017D17B6803F101031B78184600F058F83A
S31520001C900346FB73FB7B062B0BD8FB7B184600F019
S31520001CA02DF800F06FFA04E000BF02E000BF00E06C
S31520001CB000BF07F11007BD4680BD00BF80B483B0CA
S31520001CC000AF0346FB714BF69843C2F200039B79A3
S31520001CD01A46FB794FF0010101FA03F3DBB242EA1F
S31520001CE00303DBB2DAB24BF69843C2F200039A71D1
S31520001CF007F10C07BD4680BC704700BF80B483B097
S31520001D0000AF0346FB714BF69843C2F200039B7962
S31520001D101A46FB794FF0010101FA03F3DBB26FEAB1
S31520001D200303DBB202EA0303DBB2DAB24BF69843D3
S31520001D30C2F200039A7107F10C07BD4680BC7047BA
S31520001D4080B485B000AF0346FB714FF00003FB6003
S31520001D500FE0FA684BF67043C2F200039B5CFA79F7
S31520001D609A4202D1FB68DBB208E0FB6803F101036B
S31520001D70FB60FB68062BECDD4FF0FF03184607F1EE
S31520001D801407BD4680BC704780B584B002AF4BF6C1
S31520001D909843C2F200035B7819464BF69843C2F289
S31520001DA000039B781A464BF69843C2F20003DB7871
S31520001DB04AF22C00C2F2000001F06CF84BF6984370
S31520001DC0C2F200031B794AF24400C2F2000019460F
S31520001DD001F060F84BF69843C2F200035B794AF2B1
S31520001DE05000C2F20000194601F054F84BF6984311
S31520001DF0C2F200031B78012B2BD14BF69843C2F27B
S31520001E00000358784BF67043C2F20003D97E4BF696
S31520001E107043C2F200031A7F4BF67043C2F20003EE
S31520001E2093F81DC04BF67043C2F200039B7F0093CC
S31520001E30634600F06DF90346FB71FA794BF6704361
S31520001E40C2F200039B7E10461946FFF791FA00F076
S31520001E5099F907F10807BD4680BD00BF80B584B05B
S31520001E6002AF4BF69843C2F200031B78012B52D1E6
S31520001E704BF69843C2F200035B7A012B0FD14BF647
S31520001E809843C2F200039A7A4BF67043C2F20003DB
S31520001E909B7E10464FF047011A46FFF745FA4BF650
S31520001EA09843C2F2000358794BF67043C2F20003FE
S31520001EB0197A4BF67043C2F200035A7A4BF67043F6
S31520001EC0C2F2000393F80CC04BF67043C2F2000333
S31520001ED05B7B0093634600F01BF90346FB714BF6D0
S31520001EE09843C2F20003FA799A724BF69843C2F2EB
S31520001EF000034FF001025A724BF67043C2F2000300
S31520001F009B7EFA7910464FF047011A46FFF7E6F90D
S31520001F1000F038F926E04BF69843C2F20003DB794D
S31520001F20012B1BD14BF69843C2F200031B7A012BDF
S31520001F3017D14BF67043C2F200035A694BF6984309
S31520001F40C2F200035B7913704BF69843C2F200038A
S31520001F504FF00002DA71FFF76DF903E0FFF7BCF8E6
S31520001F6000E000BF07F10807BD4680BD80B500AF81
S31520001F704BF69843C2F200031B78012B1FD14BF678
S31520001F809843C2F200035B7A012B18D14BF6984393
S31520001F90C2F200034FF000025A724BF69843C2F287
S31520001FA000039A7A4BF67043C2F200039B7E1046DA
S31520001FB04FF047011A46FFF7B7F900F0E3F880BD66
S31520001FC080B500AF4BF69843C2F200031B78012B75
S31520001FD022D14BF69843C2F200035B7A012B16D12D
S31520001FE04BF69843C2F200034FF000025A724BF6AA
S31520001FF09843C2F200039A7A4BF67043C2F200036A
S315200020009B7E10464FF047011A46FFF78DF94FF099
S31520002010000000F09FF812E04BF69843C2F200034E
S315200020204FF00002DA71FFF7F1F80346012B04D1D5
S315200020304FF0010000F08EF801E0FFF7FBF880BDBD
S3152000204080B500AF4BF69843C2F200031B78012BF4
S3152000205020D14BF67043C2F200039A7A4BF67043B6
S31520002060C2F200039B7E10464FF047011A46FFF747
S315200020705BF94BF67043C2F200039A7A4BF6704333
S31520002080C2F200039B7E10464FF047011A46FFF727
S3152000209025F908E04BF69843C2F20003DB79002BC2
S315200020A001D1FEF7F9FF80BD80B500AF4BF698430E
S315200020B0C2F200031B78012B20D14BF67043C2F2EB
S315200020C00003DA7A4BF67043C2F200039B7E104679
S315200020D04FF047011A46FFF727F94BF67043C2F235
S315200020E00003DA7A4BF67043C2F200039B7E104659
S315200020F04FF047011A46FFF7F1F808E04BF69843F0
S31520002100C2F20003DB79002B01D1FEF79DFF80BDD3
S3152000211080B483B000AFF871B9717A713B71FA79E6
S31520002120BB79C3EB0203397C3A79C2EB010202FB8D
S3152000213003F27979BB79C3EB010392FBF3F3DAB2AD
S315200021403B791344DBB2184607F10C07BD4680BC29
S31520002150704700BF80B582B000AF0346FB714BF6D7
S315200021609843C2F20003FA791A70FB79012B02D147
S3152000217000F008F801E0FEF7DBFE07F10807BD4690
S3152000218080BD00BF80B500AFFEF7BEF94AF26400FD
S31520002190C2F200004FF000014FF00002FEF79EF958
S315200021A04BF69843C2F200035B781A464AF654432C
S315200021B0C2F2000353F8223018464FF050014FF078
S315200021C00002FEF78BF94AF27000C2F200004FF0CF
S315200021D000014FF00802FEF781F94BF69843C2F250
S315200021E000039B781A464AF65443C2F2000353F87A
S315200021F0223018464FF050014FF00802FEF76EF9D4
S315200022004AF27C00C2F200004FF000014FF01002AB
S31520002210FEF764F94BF69843C2F20003DB781A46C0
S315200022204AF65443C2F2000353F8223018464FF0C0
S3152000223050014FF01002FEF751F94AF28800C2F21F
S3152000224000004FF000014FF01802FEF747F94BF659
S315200022509843C2F200031B791A464AF65443C2F247
S31520002260000353F8223018464FF050014FF0180261
S31520002270FEF734F94AF29400C2F200004FF0000152
S315200022804FF02002FEF72AF94BF69843C2F20003DC
S315200022905B791A464AF65443C2F2000353F82230B9
S315200022A018464FF050014FF02002FEF717F94AF278
S315200022B0A400C2F200004FF000014FF02802FEF702
S315200022C00DF94BF69843C2F200035B7A012B13D12A
S315200022D04BF69843C2F200039B7A1A464AF65423D9
S315200022E0C2F2000353F8223018464FF050014FF047
S315200022F02802FEF7F3F809E04AF2B400C2F2000021
S315200023004FF050014FF02802FEF7E8F84AF2BC00E1
S31520002310C2F200004FF000014FF03002FEF7DEF867
S315200023204BF69843C2F200039B791A464AF6544369
S31520002330C2F2000353F8223018464FF050014FF0F6
S315200023403002FEF7CBF880BD4FF0FF30704700BF5C
S31520002350FEE700BF4FF400534B604FF0000070477C
S315200023604FF00100704700BF4FF00000704700BFDC
S315200023704FF00000704700BF38B515461C464BF29B
S315200023807453C2F200031B6883B94BF6E040C2F2D5
S3152000239000004FF461414FF0030200F055F94BF273
S315200023A07453C2F200034FF001021A604BF6E0406C
S315200023B0C2F200002946224600F034F8204638BDF5
S315200023C008B54BF27853C2F200031B6843B94BF2AF
S315200023D07853C2F200034BF61052C2F200021A6082
S315200023E04BF27853C2F200031A68EFF308831044C5
S315200023F083420FD24FF000004FF001014AF2CC0287
S31520002400C2F200024FF01903FFF7B6FF4FF00100AA
S31520002410FFF79EFF4BF27853C2F200031860104676
S3152000242008BD00BF2DE9F0054BF6E043C2F20003DC
S31520002430984206D04BF6B843C2F20003984200D029
S3152000244000BE01B900BE02B900BE4BF6E043C2F29F
S315200024500003984205D04BF6B843C2F200039842D7
S3152000246033D1131E18BF012300290CBF002303F00C
S315200024700103002B29D04FF00007B8464FF0100A71
S3152000248003681B7D90F80AC043EA0C0C80F80AC04A
S3152000249013F0200F17D00F2A04D95646BC464346C0
S315200024A00F4404E00AB943460BE01646F6E70468F3
S315200024B0FD5C25700CF1010C03F101039E42F6D858
S315200024C06746C3EB0202002ADAD1BDE8F005704761
S315200024D008B54BF6E043C2F20003984207D04BF60C
S315200024E0B843C2F20003984201D000BE08BD03687B
S315200024F01B7A03F00F030C2B20D8DFE803F0071F0D
S315200025000D1F131F191F1F1F1F1F1300436A0BB90F
S3152000251000BE08BD984708BD036A0BB900BE08BDBA
S31520002520984708BDC3690BB900BE08BD984708BDCA
S3152000253083690BB900BE08BD984708BD00BE08BD1B
S3152000254010B44BF6E043C2F20003984206D04BF695
S31520002550B843C2F20003984200D000BEC26802B956
S3152000256000BE016901B900BE4BF6E043C2F200038A
S31520002570984205D04BF6B843C2F20003984230D1B8
S31520002580002A2ED000292CD003681B7D827A43EAAC
S315200025900202827213F0200F1AD002694369C3EB3C
S315200025A002030F2B04D94FF0100C4FF0000302E06A
S315200025B073B19C46F9E70268C4684169615C117091
S315200025C0426902F10102426103F101036345F2D33C
S315200025D0426903699A4201BF002303614268C2F837
S315200025E0843010BC704700BF684620F007018D4636
S315200025F001B54BF6E040C2F20000FFF769FF4EF24C
S315200026000013CEF200034FF48062C3F88021BDE8A8
S3152000261001408546704700BF684620F007018D4679
S3152000262001B54BF6B840C2F20000FFF751FF4EF25B
S315200026300013CEF200034FF40062C3F88021BDE8F8
S3152000264001408546704700BF70B504460D461646C4
S315200026504BF6E043C2F20003984206D04BF6B8434D
S31520002660C2F20003984200D000BE05B900BE00F0B9
S31520002670FDFA4BF6E043C2F200039C4226D14BF60C
S31520002680E043C2F200034FF080421A604FF08442CA
S315200026905A604FF00A021A814BF25C03C2F2000321
S315200026A0186842F20003CEF204031A6B42F080024D
S315200026B01A634EF20012CEF200024FF48061C2F885
S315200026C080111A6B22F080021A6325E040F2000383
S315200026D0C4F20103236040F20003C4F220236360A6
S315200026E04FF00B0323814BF26003C2F200031868FC
S315200026F042F20003CEF204031A6B42F480721A638C
S315200027004EF20012CEF200024FF40061C2F88011A0
S315200027101A6B22F480721A6323684FF000021A7132
S3152000272015B94FF001050FE0B0FBF5F515F0080FD0
S315200027304FEA151518BF0135B5F5803F38BFADB244
S3152000274002D300BE4FF0010563684FF00102C3F8C3
S315200027509C2123684FEA15221A712368EDB21D7059
S3152000276062684FF00003C2F89C3122681673226813
S315200027704FF00E0111726268C2F810322361E360D5
S315200027806361E36142F24152C2F200022262A36116
S315200027906362A37270BD00BF10B442F20003CEF292
S315200027A004031A6B42F480421A634FF000034AF284
S315200027B0E800C2F200004FF0010C4EF20014CEF2F7
S315200027C00004C25A11B24FEA511102F01F020CFA4C
S315200027D002F201F1600144F8212003F10203402BAB
S315200027E0EFD142F20003CEF204031A6B22F48042A8
S315200027F01A6310BC704700BF1F2801D900BE70475E
S315200028004AF22813C2F2000353F8203019607047A9
S315200028101F2801D900BE70474AF22813C2F20003CE
S3152000282053F820301A6842F008021A604AF2E80388
S31520002830C2F2000333F810301AB24FEA521203F0F4
S315200028401F034FF0010101FA03F14EF20013CEF2FD
S31520002850000343F8221070471F2801D900BE704795
S315200028604FF0010202FA00F143F20003C4F2010321
S31520002870C3F880104AF2E803C2F2000333F810309E
S3152000288019B24FEA511103F01F0302FA03F24EF276
S315200028900013CEF2000301F1600143F821207047B6
S315200028A0F0B58BB00E4617460446C0B94AF2A81CAE
S315200028B0C2F2000C6D46BCE80F000FC5BCE80F0045
S315200028C00FC59CE8030045F8040B25F8021B4FEAC8
S315200028D01141297068464FF0CC0100F05FFAC6B965
S315200028E04AF2A81CC2F2000C6D46BCE80F000FC5C8
S315200028F0BCE80F000FC59CE8030045F8040B25F83B
S31520002900021B4FEA1141297068464FF0CD0100F0B5
S3152000291045FAC7B94AF2A81CC2F2000C6D46BCE8BB
S315200029200F000FC5BCE80F000FC59CE8030045F853
S31520002930040B25F8021B4FEA1141297068464FF017
S31520002940CE0100F02BFA331E18BF0123002C0CBF3A
S31520002950002303F0010353B34FB3206800F11000A6
S3152000296000F05AFA237940EA0303237100F00200AB
S31520002970C0B2E0B14FF00005206800F1040000F07D
S315200029804BFA705505F10105206800F1100000F0A2
S3152000299043FA237940EA03032371C0F34000AF4290
S315200029A094BF002000F001000028E5D101E04FF09F
S315200029B0000528460BB0F0BDF0B58BB00E46174685
S315200029C00446C0B94AF2A81CC2F2000C6D46BCE807
S315200029D00F000FC5BCE80F000FC59CE8030045F8A3
S315200029E0040B25F8021B4FEA1141297068464FF067
S315200029F07D0100F0D3F9C6B94AF2A81CC2F2000C38
S31520002A006D46BCE80F000FC5BCE80F000FC59CE85B
S31520002A10030045F8040B25F8021B4FEA11412970E3
S31520002A2068464FF07E0100F0B9F9C7B94AF2A81CF2
S31520002A30C2F2000C6D46BCE80F000FC5BCE80F00C3
S31520002A400FC59CE8030045F8040B25F8021B4FEA46
S31520002A501141297068464FF07F0100F09FF9331E1F
S31520002A6018BF0123002C0CBF002303F0010393B1F0
S31520002A708FB14FF00005206800F1100000F0CCF96E
S31520002A8010F0010FF7D02068715D00F0C3F905F151
S31520002A900105AF42EFD80BB0F0BD00BF2DE9F041E4
S31520002AA08AB00F4616461D460446D8B94AF2A81ED5
S31520002AB0C2F2000EEC46BEE80F00ACE80F00BEE8FE
S31520002AC00F00ACE80F009EE803004CF8040B2CF82E
S31520002AD0021B4FEA11418CF8001068464FF0300176
S31520002AE000F05CF9072D1BD94AF2A81EC2F2000E8F
S31520002AF0EC46BEE80F00ACE80F00BEE80F00ACE8DD
S31520002B000F009EE803004CF8040B2CF8021B4FEA3A
S31520002B1011418CF8001068464FF0310100F03EF963
S31520002B20B6F5005F1BD34AF2A81EC2F2000EEC4691
S31520002B30BEE80F00ACE80F00BEE80F00ACE80F00BF
S31520002B409EE803004CF8040B2CF8021B4FEA1141B7
S31520002B508CF8001068464FF0320100F01FF9072D5F
S31520002B608CBF00230123002C0CBF002303F001039C
S31520002B70002B76D0B6F5005F73D207F108084046E1
S31520002B80F1B200F047F906F47F4107F10C0045EA5F
S31520002B90611100F03FF92760404600F03DF980467C
S31520002BA0206800F10C0000F037F9074600F0F80322
S31520002BB048EA43181FFA88F8B04518D04AF2A81CEC
S31520002BC0C2F2000C6E46BCE80F000FC6BCE80F0030
S31520002BD00FC69CE8030046F8040B26F8021B4FEAB2
S31520002BE01141317068464FF0540100F0D7F807F0D4
S31520002BF00707AF4218D04AF2A81CC2F2000C6D4655
S31520002C00BCE80F000FC5BCE80F000FC59CE8030009
S31520002C1045F8040B25F8021B4FEA11412970684636
S31520002C204FF0550100F0BAF8206800F1100000F0CE
S31520002C30F3F800F00203DBB283B1206800F1040050
S31520002C4000F0EAF88DF82700206800F1100000F067
S31520002C50E3F800F00200C0B20028EED14FF00003E6
S31520002C6023710AB0BDE8F081704700BF30B484B04C
S31520002C704AF2D013C2F20003EC460FCB8CE80F00C9
S31520002C8042F20003CEF204039A6C02F00C0204A96D
S31520002C900A4452F8105C9A6CC2F3011201EB8202CC
S31520002CA052F8104C9A6CC2F3811201EB820252F850
S31520002CB0100CD96CDB6CC1F3042101F1010113F472
S31520002CC0005F18BF490040F23023C6F208031A6895
S31520002CD022F0704241F2CF13C0F2A1539A4205D19D
S31520002CE04EF62C73C6F201031B6828E040F61C033F
S31520002CF0C6F208031A6844F24133C4F654439A4292
S31520002D001ED140F64003C6F208031A6822F07F421D
S31520002D1040F20033C0F201039A4211D9B2F5003FC6
S31520002D2005D241F22C63C6F208031B6807E0B2F510
S31520002D30403F05D241F6AC63C6F208031B6823B9AF
S31520002D4000BE47F64003C0F27D134BF26402C2F286
S31520002D50000213604BF25C02C2F20002B3FBF5F5EF
S31520002D6015604BF26002C2F20002B3FBF4F4146069
S31520002D704BF25402C2F20002B3FBF0F010604BF2A9
S31520002D805802C2F20002B3FBF1F111604BF2680265
S31520002D90C2F20002136004B030BC704784B00291C6
S31520002DA003788DF80F30029B0193019B03F10103F9
S31520002DB00193F4E701607047006870470EB503FA87
S31520002DC001F303EA020301686FEA020201EA020143
S31520002DD041EA030101600EBD006800EA020020FA04
S31520002DE001F0704701807047008870470EB503FADE
S31520002DF001F303EA020301886FEA020201EA0201F3
S31520002E0041EA030101800EBD008800EA020020FA93
S31520002E1001F0704701707047007870470EB503FACD
S31520002E2001F303EA020301786FEA020201EA0201D2
S31520002E3041EA030101700EBD007800EA020020FA83
S31520002E4001F0704770B54AF240464AF24045C2F258
S31520002E500006C2F20005761BB61006D0002455F8EF
S31520002E60243001349847A642F9D84AF240454AF21E
S31520002E704446C2F20005C2F20006761B07F0D4FAD9
S31520002E80B61006D0002455F8243001349847A642BF
S31520002E90F9D870BD0FB44BF26C03C2F2000310B523
S31520002EA01C6882B024B1A36913B9204602F094FEAF
S31520002EB0204605AC049A23468168019400F02AF83E
S31520002EC002B0BDE8104004B0704700BF0EB410B584
S31520002ED0044683B018B183690BB902F07DFE204603
S31520002EE006AC059A23468168019400F013F803B0D6
S31520002EF0BDE8104003B07047936810B5144613B967
S31520002F005360184610BD02F0CBFF00236360A36018
S31520002F1010BD00BF2DE9F04FADF5AE6D83B00E4666
S31520002F2015469A46814603F0ABF900681D90B9F123
S31520002F30000F04D0D9F81830002B00F05A814AF23D
S31520002F405C23C2F200039E4208BFD9F8046010D069
S31520002F504AF27C23C2F200039E4208BFD9F80860D9
S31520002F6007D04AF29C23C2F200039E4208BFD9F83A
S31520002F700C60B6F80CC01FFA8CF313F4005F09D16D
S31520002F804CF4005C726EA6F80CC01FFA8CF322F487
S31520002F900052726613F0080F01F001833269002A8D
S31520002FA001F0FD8203F01A030A2B00F0E0800022D4
S31520002FB012921A9200231C920DF59C6411920434ED
S31520002FC019920DF5A4621B9304320DF590632832F5
S31520002FD00333189207930023CDF84C45CDF850358E
S31520002FE0CDF854352B781A1E18BF0122252B0CBF7D
S31520002FF0002202F0010232B32F4617F8013F1A1EB3
S3152000300018BF0122252B0CBF002202F00102002A44
S31520003010F3D1B7EB050808BF3D4614D0C4F80480A9
S31520003020DDF85035DDF8542501332560072B424461
S31520003030CDF85035CDF8542578DC083411983D4626
S31520003040404411903B78002B7CD06B1C4FF0FF370F
S315200030502B204FF0200C00214FF000020F918DF80D
S315200030607725CDF82CA06A780A915D1CA2F1200361
S31520003070582B00F28682DFE813F09802840284023D
S31520003080A402840284028402840284028402AD02A1
S31520003090BA028402C102CA028402E702F002F002E6
S315200030A0F002F002F002F002F002F002F0028402D6
S315200030B084028402840284028402840284028402BA
S315200030C084020403260384022603840284028402E3
S315200030D084026A03840284028104840284028402B4
S315200030E0840284021404840284022F04840284024B
S315200030F0840284028402840284028402840284027A
S315200031004F046504260326032603730365048402FD
S3152000311084027903840285039603AD030A0484029C
S31520003120CC038402F40384028402C0000DF5A86255
S31520003130484631460C32FFF7DFFE58B90DF59C6440
S3152000314004347BE7DDF85435002B41F092810023CF
S31520003150CDF85035B38913F0400F02D04FF0FF3031
S31520003160119011985FB00DF5806DBDE8F08FB6F91E
S315200031700E30002BFFF61BAF376A2CF0020CD6F868
S3152000318028E00DF58E64ADF888C40C34B6F80EC070
S315200031902A465346484621461FADCDF89C74002743
S315200031A0CDF88C54CDF87C544FF48065CDF8A4E44A
S315200031B0ADF88AC4CDF89054CDF89474CDF88454E3
S315200031C0FFF7A8FE0028119009DB2146484602F0A9
S315200031D093FB1199B84218BF4FF0FF311191BDF8FA
S315200031E0883413F0400FBCD0B38943F04003B38139
S315200031F0B7E7484602F0F0FCA1E60A984AF22C2CE2
S31520003200C2F2000C169210F0200FCDF864C000F028
S315200032106E830B99CB1D23F0070303F108020B9253
S31520003220D3E900AB5AEA0B020A9B0CBF002201220B
S31520003230134240F06B8602234FF000018DF877157C
S31520003240002FA2BFDDF828C02CF0800CCDF828C0B6
S31520003250002F18BF42F00102002A00F01E84012B25
S3152000326000F0DE85022B00F0C185189913914FEAF4
S31520003270DA084FEADB0C48EA4B780AF00700E34607
S31520003280C24630305AEA0B0201F8010DEFD1DDF8C3
S3152000329028C013911CF0010F40F08C861898401A14
S315200032A010909DF87735109A1797BA42B8BF3A46CC
S315200032B00C9213B10C9A01320C920A9B0A9813F0C5
S315200032C0020315931EBFDDF830C00CF1020CCDF8B9
S315200032D030C010F0840014904DD10F990C9A8F1A9B
S315200032E0002F48DD102F4AF2E818D8BFC2F2000896
S315200032F030DDC2F200080DF5A86B43464FF0100AE8
S31520003300A8460BF10C0B1D4602E0103F102F1EDDC8
S31520003310C4F804A0DDF85035DDF8542501332560C6
S315200033201032072BCDF8542504F10804CDF850357A
S31520003330EBDD0DF59C64484631465A460434FFF7CA
S31520003340DBFD00287FF406AF103F102FE0DC2B4674
S31520003350454698466760DDF85035C4F800805A1C0B
S31520003360DDF85435CDF85025DB19072ACDF854352C
S3152000337000F38A8508349DF877359BB10123636075
S31520003380DDF850350DF5AE6207322260DDF85425A2
S315200033900133CDF850350132072BCDF8542500F3F3
S315200033A0B6840834159B9BB102236360DDF8503543
S315200033B00DF5AE6204322260DDF854250133CDF8D6
S315200033C050350232072BCDF8542500F3AF8408344C
S315200033D0DDF850C0BCF1800F00F07683179B109A61
S315200033E09F1A002F43DD102FDFF88C8B2EDD4346EE
S315200033F00DF5A86BA8464FF0100A0BF10C0B1D46D5
S3152000340002E0103F102F1EDDC4F804A0DDF8503571
S31520003410DDF85425013325601032072BCDF85425CD
S3152000342004F10804CDF85035EBDD0DF59C644846D3
S3152000343031465A460434FFF75FFD00287FF48AAEF2
S31520003440103F102FE0DC2B46454698466760DDF896
S315200034505035DDF854250133C4F80080D219072BE6
S31520003460CDF85425CDF8503500F342840834DDF8E4
S3152000347028C01CF4807F40F09D82109813996060CC
S31520003480DDF85035DDF85425013321601218072B5D
S31520003490CDF85035D8BF04F10803CDF8542500F3F4
S315200034A09B830A9911F0040F55D00F9ADDF830C08E
S315200034B0CCEB0207002F4EDD102F4AF2E818D8BFBA
S315200034C0C2F200082EDDC2F200080DF5A86A4246B7
S315200034D01024A8460AF10C0A154602E0103F102FC8
S315200034E01DDD5C60DDF85025DDF8541501321D60C8
S315200034F01031072ACDF8541503F10803CDF85025CD
S31520003500ECDD484631465246FFF7F6FC0DF59C6346
S31520003510043300287FF41EAE103F102FE1DC2A462C
S31520003520454690465F60DDF85025C3F80080DDF8FB
S3152000353054350132CDF85025FB18072ACDF85435DD
S315200035400BDD0DF5A862484631460C32FFF7D4FC58
S3152000355000287FF4FFADDDF8543511980C9A0F99A9
S315200035608A42ACBF801840181190002B40F042834D
S315200035700DF59C640023DDF82CA00434CDF85035DD
S3152000358030E51692002A3FF4DDAD0DF5A460012347
S315200035904FF0000C04300C938DF824258DF877C558
S315200035A0139010930021179187E69DF87735002B0D
S315200035B040F02B850B992B468DF877C52A780B91F1
S315200035C053E50B990A9B43F001030A932B462A786D
S315200035D00B914AE50B990B9A09680F91111D0F9BC8
S315200035E0002BC0F280872A782B460B913DE50B995C
S315200035F02B468DF877052A780B9136E50B990A9B91
S3152000360043F004030A932B462A780B912DE52B468B
S3152000361013F8012B2A2A01F0CD80A2F130010929C5
S3152000362001F237800235002715F8012C07EB8707B2
S315200036302B46013501EB4707A2F130010929F3D9C1
S3152000364047EAE7771D4611E50B992B460A9A42F081
S3152000365080020A922A780B9107E5A2F130014FF0F9
S3152000366000082B4608EB880813F8012B01EB4808C5
S31520003670A2F130011D460929F3D9CDF83C801D461B
S31520003680F4E40A9B169243F010030A93DDF828C04F
S315200036901CF0200F00F05D810B98C31D23F007035B
S315200036A003F108010B91D3E900ABBAF1000F7BF1CE
S315200036B00002C0F29B845AEA0B034FF001030CBFB1
S315200036C000220122BCE50A98169210F0080F00F09D
S315200036D0ED840B99CB1D23F0070303F108020B920F
S315200036E0D3F80480D3F800A0CDF86C80CDF848A09C
S315200036F05046414604F09AF98346002800F0998501
S31520003700504600220023414605F092F9002840F059
S315200037100B859DF877354AF220214AF21C2216980D
S31520003720C2F20001C2F200024FF0030C4728D8BFB4
S31520003730114613910A99CDF830C021F08001CDF8B9
S3152000374040C00A914FF0000CCDF85CC0B1E50B9952
S315200037500A9B43F008030A932B462A780B9184E4AC
S315200037600A9941F040010A910B993CE72A786C2A84
S3152000377000F055850B990A9B0B9143F010030A9391
S315200037802B4672E40A9A12F0200F00F082840B98DE
S31520003790119A036810464FEAE0710B9AC3E90001BB
S315200037A002F1040A1EE416920A9A12F0200300F08F
S315200037B0EF800B9BDA1D002322F0070202F1080C92
S315200037C0CDF82CC0D2E900AB5AEA0B000CBF002280
S315200037D0012231E50B987821DDF828C0169103687F
S315200037E04AF22C208DF8751530218DF874154CF081
S315200037F0020C0B991A1E18BF0122C2F200009A462B
S315200038004FF0000B0431CDF828C0199002230B91FC
S3152000381012E50B9B16924FF00002181D8DF87725A6
S315200038201B680B901393002B00F0C686002F13986D
S31520003830C0F28F8600213A4603F0A6F803460028F8
S3152000384000F0F58613981B1A1093BB4240F3BE85F1
S315200038501097002127EAE7779DF877350C9717917F
S3152000386027E5DDF828C016921CF0200F23D00B98F0
S315200038700123C21D22F0070202F108010B91D2E9B1
S3152000388000AB5AEA0B020CBF00220122D4E40A99AB
S315200038902B4641F020010A910B992A780B91FFF7CC
S315200038A0E4BB0A9B169243F010030A93DDF828C066
S315200038B01CF0200FDBD10A9B13F0100F00F0D583EC
S315200038C00B980123021D0B9201680A1E18BF0122C4
S315200038D08A464FF0000BAFE40A9816924AF2082265
S315200038E010F0200FC2F2000219927FF492AC0A9BCC
S315200038F013F0100F40F01A830A9A12F0400F00F0CE
S3152000390015830B9B03F1040CCDF82CC0B3F800A053
S31520003910D2464FF0000B85E416920DF5A4610B9A62
S315200039204FF0010C4FF000000431CDF830C0136881
S3152000393004328DF877050B921391CDF840C08DF89F
S3152000394024352FE6DDF828C016921CF0200F7FF4D0
S31520003950A3AE0A9A12F0100F40F0F1820A9A12F0E2
S31520003960400F00F0EC820B9B03F1040CCDF82CC029
S31520003970B3F900A0D2464FEAEA7B96E60A99169258
S3152000398041F010010A910A9A12F020037FF411AF38
S315200039900A9911F0100200F054830B9A02F1040CDC
S315200039A0CDF82CC011680A1E18BF01228A464FF096
S315200039B0000B41E4169A652A40F3288112980022CA
S315200039C000231B9905F02AF8002800F0BE81012368
S315200039D06360DDF850254AF24823C2F200032360D3
S315200039E0DDF854350132CDF850250133072ACDF8BC
S315200039F05435D8BF04F1080300F39B83DDF8702506
S31520003A001A98824204DB0A9911F0010F3FF449AD5E
S31520003A1001225A60DDF85025DDF8541501321D9833
S31520003A200131072ACDF854151860CDF8502500F33A
S31520003A305F8508331A994F1E002F7FF732AD102F5E
S31520003A40DFF8348540F3EA8242460DF5A86AA84697
S31520003A5010240AF10C0A154603E0103F102F40F3FC
S31520003A60DA825C60DDF85025DDF8541501321D60E0
S31520003A701031072ACDF8541503F10803CDF8502547
S31520003A80EBDD484631465246FFF736FA0DF59C6384
S31520003A9004330028E1D0FFF75DBB7BB90A9911F00A
S31520003AA0010F0BD00DF5A462302304328DF84B356F
S31520003AB02732012313921093FFF7F3BB18980021A6
S31520003AC010911390FFF7EDBB0F980C99471A002F12
S31520003AD07FF784AC102FDFF8A0842EDD43460DF54A
S31520003AE0A86BA8464FF0100A0BF10C0B1D4602E0FE
S31520003AF0103F102F1EDDC4F804A0DDF85035DDF888
S31520003B005425013325601032072BCDF8542504F1B6
S31520003B100804CDF85035EBDD0DF59C64484631465A
S31520003B205A460434FFF7E8F900287FF413AB103F18
S31520003B30102FE0DC2B46454698466760DDF8503569
S31520003B40C4F800805A1CDDF85435CDF85025DB1911
S31520003B50072ACDF8543500F33A8208343EE4139907
S31520003B606360DDF850252160DDF854150132CDF86B
S31520003B705025CB18072ACDF8543500F3498508344B
S31520003B801D9A0123DDF870756360DDF850352260DB
S31520003B90DDF854250133CDF850350132072BCDF809
S31520003BA05425D8BF04F1080300F323851398DDF8C4
S31520003BB07025C7191A981F60811A5960DDF85415A7
S31520003BC08A1ADDF850151218CDF854250131CDF892
S31520003BD05015072940F332820DF5A8624846314632
S31520003BE00C32FFF789F900287FF4B4AA0DF59C63FF
S31520003BF0043356E40DF5A862484631460C32FFF7E9
S31520003C007BF900283FF4B4ACFFF7A4BA1A9901292E
S31520003C104CDD01236360DDF85035DDF85425013392
S31520003C2013980132072BCDF854252060CDF8503556
S31520003C3000F3B281083401236360DDF85035DDF8E6
S31520003C40542501331D990132072BCDF854252160C7
S31520003C50CDF8503500F392810834129800220023C3
S31520003C601B9904F0DBFE002840F01D811A9B139857
S31520003C705A1E6260DDF85035411C2160DDF854156E
S31520003C800133CDF850358A18072BCDF8542521DC81
S31520003C9008341C9B0DF5AC621C9822606360DDF82D
S31520003CA05035DDF854250133FFF7F0BB0A9A12F0A0
S31520003CB0010FAED1139A01236360DDF850352260DF
S31520003CC0DDF854250133CDF850350132072BCDF8D8
S31520003CD05425DDDD0DF5A862484631460C32FFF746
S31520003CE00BF900287FF436AA0DF59C640434D0E73E
S31520003CF00DF5A862484631460C32FFF7FDF800283C
S31520003D007FF428AA0DF59C640434FFF7B0BB0DF5AB
S31520003D10A862484631460C32FFF7EEF800287FF4B9
S31520003D2019AA0DF59C640434FFF73CBB0DF5A86277
S31520003D30484631460C32FFF7DFF800287FF40AAAFE
S31520003D400DF59C640434FFF743BBDDF87035002B7A
S31520003D5040F3FD811A998B42FFF601AF139A6160F9
S31520003D60DDF850352260DDF854250133CDF8503585
S31520003D705218072BCDF85425D8BF04F1080300F3B9
S31520003D802984DDF870451A98241A002C40F3B38153
S31520003D90102CDFF8E48140F39D8142460DF5A86A98
S31520003DA0A84610270AF10C0A154603E0103C102CF1
S31520003DB040F38D815F60DDF85025DDF85415013222
S31520003DC01D601031072ACDF8541503F10803CDF8EC
S31520003DD05025EBDD484631465246FFF78DF80DF566
S31520003DE09C6304330028E1D0FFF7B4B9189A1998D8
S31520003DF0134613920AF00F024FEA1A1141EA0B7189
S31520003E004FEA1B1C825C8A46E3465AEA0B0C03F8EF
S31520003E10012DEFD118981393C01A1090FFF741BACD
S31520003E2009220023524573EB0B00DDF860801FD278
S31520003E3023464446B8461F46504659460A22002382
S31520003E4004F046FE00235046594602F1300C0A2261
S31520003E5004F801CD04F03CFE0922002382468B465D
S31520003E60524573EB0B03E7D33B464746A0461C4619
S31520003E7008F1FF300AF1300A139008F801AC1899BE
S31520003E80091A1091FFF70DBA0DF5A862484631467A
S31520003E900C32FFF731F800287FF45CA90DF59C64FD
S31520003EA00434FFF768BA1A994F1E002F7FF7F1AE38
S31520003EB0102FDFF8C4804EDD43460DF5A86BA846CB
S31520003EC04FF0100A0BF10C0B1D4602E0103F102F8D
S31520003ED03EDDC4F804A0DDF85035DDF85425013365
S31520003EE025601032072BCDF8542504F10804CDF8AF
S31520003EF05035EBDD0DF59C64484631465A46043470
S31520003F00FEF7FAFF0028E1D0FFF724B916983021F2
S31520003F10DDF828C0012202238DF874154CF0020C1E
S31520003F208DF87505CDF828C0FFF786B90B98011DC9
S31520003F3003680B919A464FF0000BFFF773B90B9865
S31520003F40011D03680B919A464FEAEA7BFFF7ADBB4A
S31520003F502B46454698466760DDF85035DDF85425F2
S31520003F600133C4F80080D219072BCDF85425CDF89B
S31520003F7050357FF78DAEADE6F8A100200DF5A8628D
S31520003F80484631460C32FEF7B7FF00287FF4E2A8F8
S31520003F900DF59C64043460E60DF5A862484631466A
S31520003FA00C32FEF7A9FF00287FF4D4A80DF59C64F7
S31520003FB0043440E6302800F0EC821398302300F8D1
S31520003FC0013D18991390091A1091FFF76AB90DF55A
S31520003FD0A862484631460C32FEF78EFF00287FF451
S31520003FE0B9A80DF59C640434FFF7F8B9DAF1000A94
S31520003FF06BEB4B0B2D235AEA0B0C8DF877350CBF48
S31520004000002201220123FFF71BB90B992B462A78A0
S315200040100B91FFF72AB82A46454690465F60DDF8A1
S315200040205025DDF854150132C3F80080C919072A36
S31520004030CDF85415CDF850253FF7CEAD0833FFF710
S3152000404030BA0A9810F0400300F0ED810B99134620
S315200040500A1D0B92B1F800A0BAF1000218BF012286
S31520004060D2464FF0000BFFF7E7B80A9B13F0400F3C
S3152000407000F0CC810B980123011D0B91B0F800A014
S31520004080BAF1000218BF0122D2464FF0000BFFF70B
S31520004090D3B80A9B13F0100F00F0A4810B98119946
S315200040A000F1040A03681960FEF79CBF0B98C31D34
S315200040B023F0070303F108010B91D3F80480D3F80A
S315200040C000A0CDF86C80CDF848A0FFF711BB2A469A
S315200040D0454690465C60DDF85025DDF854150132E2
S315200040E0C3F800800919072ACDF85415CDF85025B4
S315200040F000F3EA8208330A9911F0010F3FF4D1A99F
S3152000410001225A60DDF85025DDF8541501321D983C
S315200041100131072ACDF854151860CDF850253FF700
S315200041205BAD0833FFF7BDB92D238DF87735FFF743
S31520004130F2BA0DF5A862484631460C32FEF7DCFE8F
S3152000414000287FF407A80DF59C63043356E4012369
S315200041506360DDF850254AF24823C2F2000323604B
S31520004160DDF854350132CDF850250133072ACDF834
S315200041705435D8BF04F1080300F38781DDF8702594
S315200041803AB91A9A2AB9DDF828C01CF0010F3FF473
S3152000419088A901225A60DDF85025DDF85415013230
S315200041A01D980131072ACDF854151860CDF85025F1
S315200041B000F379810833DDF870757F42002F40F3D4
S315200041C0B381102FDFF8508640F3D28142460DF599
S315200041D0A86AA84610240AF10C0A154603E0103FE7
S315200041E0102F40F3C2815C60DDF85025DDF85415B0
S315200041F001321D601031072ACDF8541503F108034A
S31520004200CDF85025EBDD484631465246FEF774FE82
S315200042100DF59C6304330028E1D0FEF79BBF0B9974
S315200042206B1C0A9A42F020020A926A780B91FEF7DA
S315200042301CBF5046414603F00BFC002840F0FF808F
S31520004240B7F1FF3F00F051821698672814BF00236C
S315200042500123472808BF43F0010313B1002F08BFED
S3152000426001270DF5AB60434652460A99C0E9002363
S31520004270DDF85C3541F480710A91002BC0F264822E
S31520004280002117911698662814BF0023012346287B
S3152000429008BF43F001031093002B00F0D181BC46E8
S315200042A00323CDF830A00DF5AE61CDF83480484615
S315200042B0009302910DF5AC61DDE90C230C31CDF8AC
S315200042C004C003910DF5AD61CDF824C0049100F032
S315200042D0C7FB169ADDF824C0B2F1670318BF012385
S315200042E0472A0CBF002303F00103139033B90A9B1E
S315200042F013F0010F08BFDDF868B516D01398109992
S3152000430000EB0C0B31B10378302B00F0DA80DDF8AE
S3152000431070359B44504600220023414604F07EFB24
S31520004320002800F0C281CDF868B5169A1398672A3E
S3152000433014BF00230123472A08BF43F00103C0EB23
S315200043400B001A90002B00F08A81DDF8701511F110
S31520004350030F109102DB8F4280F28C81169A023A6B
S3152000436016921099169A4B1ECDF87035002B8DF8A3
S315200043706025C0F234822B228DF86125092B00F3AB
S31520004380B6810DF5AC62303304328DF863353023B7
S315200043908DF862350DF5AC631A981A99D31A181848
S315200043A01C930129109040F3108210980130109030
S315200043B020EAE0710C911798002800F06E812D23D9
S315200043C000218DF877351791FEF774BF109A4FF0BC
S315200043D0000C9DF8773522EAE272CDF85CC00C928B
S315200043E0FEF767BF0A9A12F0400F17BF0B980B9A79
S315200043F0119900F1040A11BF036802F1040A136837
S31520004400119814BF19801860FEF7ECBD0B9A131D86
S315200044100B93116801230A1E18BF01228A464FF00A
S31520004420000BFEF709BF0B98021D0B9201680A1EAE
S3152000443018BF01228A464FF0000BFEF7FDBE4AF256
S3152000444028224AF224231699C2F20003C2F200025D
S3152000445003204729D8BF1A4613920A9A0C9022F0B5
S315200044608002CDF85CB00A929DF877351090FEF761
S3152000447020BF0DF5A862484631460C32FEF73CFDBA
S3152000448000287EF467AEFEF762BE0DF5A8624846A8
S3152000449031460C32FEF730FD00287EF45BAE0DF57A
S315200044A09C6304336AE60DF5A862484631460C3211
S315200044B0FEF722FD00287EF44DAE0DF59C630433F5
S315200044C079E65046002200234146CDF824C004F068
S315200044D0A5FADDF824C000287FF419AFCCF101033A
S315200044E0CDF8703515E70F9A52420F92FFF787B82D
S315200044F00DF5A862484631460C32FEF7FDFC002831
S315200045007EF428AE0DF59C630433FFF793BA0DF5C0
S31520004510A862484631460C32FEF7EEFC00287EF4AF
S3152000452019AE0DF59C6304331A9913985960DDF87A
S315200045305025DDF85415186001321A98CDF850250B
S315200045400918072ACDF854153FF746AB0833FEF76E
S31520004550A8BF0021179103F0D3FB9DF8773520EAF9
S31520004560E07210900C92FEF7A4BE2A46454690466D
S315200045705F60DDF85025DDF854150132C3F8008060
S31520004580C919072ACDF85415CDF85025BFDC0833B4
S31520004590CAE7189A1399511A1091FEF782BE484617
S315200045A0314600F049F900287EF4D8ADB6F80CC0A3
S315200045B01FFA8CF3FEF7F6BC062F28BF06274AF211
S315200045C04021C2F2000127EAE772109713910C925C
S315200045D0FEF7E8BF0DF5A862484631460C32FEF7D5
S315200045E08BFC00287EF4B6AD0DF59C630433FFF7F3
S315200045F0C8BB0DF5A862484631460C32FEF77CFC56
S3152000460000287EF4A7AD0DF59C630433FFF7CEBAE0
S315200046100DF5A862484631460C32FEF76DFC00289F
S315200046207EF498AD0DF59C640434FFF7A9BA109773
S3152000463027EAE77717900C979DF87735FEF739BE6E
S315200046401699652914BF00230123452908BF43F085
S315200046500103002B46D007F1010C022321E6169B0D
S31520004660652B76DD169A662A1CBFDDF87035109309
S3152000467000F083801A9B109883426EDC0A9911F011
S31520004680010F40F08E8020EAE07267230C92169389
S3152000469091E600271D46FEF7E9BC10999DF877356F
S315200046A021EAE1710C91FEF704BEDDF868359B45E1
S315200046B098BF9B467FF639AE302203F8012B9B45E7
S315200046C0CDF86835F9D830E60DF5A862484631466A
S315200046D00C32FEF711FC00287EF43CAD0DF59C63F0
S315200046E0043308E5BC460233DBE50737B9E546F275
S315200046F0676C0DF590610331C6F2666C8CFB032066
S31520004700DA17C2EBA00202EB8200A3EB40001346AD
S315200047103030092A01F8010DF0DC3033481EDAB2B8
S3152000472001F8012C079B83426AD90DF5AC6303334C
S3152000473001E011F8012B03F8012C1A46DDF81CC004
S3152000474001338C45F5D825E62D2208F1004817922D
S3152000475098E5DDF87005109003E6109B1A99002B5A
S31520004760DABF1098C0F1020301235B186722109369
S3152000477023EAE37316920C931DE6DDF870050028F4
S31520004780109031DD1FB90A9911F0010F0ED0109843
S3152000479066211691431CDB19109323EAE3720C92CF
S315200047A009E61098672116910130109020EAE072F0
S315200047B00C9200E60B991A780F6804310B91002FA2
S315200047C0B8BF4FF0FF37FEF750BC0A9A12F0010F20
S315200047D004BF20EAE0730C933FF4EDADE5E52D220E
S315200047E05B428DF86125C9E577B90A9B13F0010F65
S315200047F00AD14FF0010CCDF830C0CDF840C0DAE533
S315200048000DF5AC620232C5E50237662127EAE7726A
S31520004810109716910C92CEE5F8A1002010B44BF219
S315200048206C04C2F200048C46134601466246206898
S3152000483010BCFEF76FBB00BF70B54BF26C05C2F221
S31520004840000506460C46286810B18369002B36D031
S315200048504AF25C23C2F200039C4238D04AF27C23FF
S31520004860C2F200039C4241D04AF29C23C2F20003CA
S315200048709C4204BF2B68DC68A289114693B213F0D0
S31520004880080F184618BF226933D01AB313F0010156
S3152000489007D063690021A1605B42A36142B1002079
S315200048A070BD13F0020F08BF6169A160002AF6D11E
S315200048B0A38913F0800FF2D04FF0FF3070BD01F0C6
S315200048C08BF94AF25C23C2F200039C42C6D12B68C4
S315200048D05C68D1E703F42071B1F5007FD6D030466D
S315200048E0214601F001FDA3892269CFE72B689C6848
S315200048F0C2E713F0100FDFD013F0040F08BF2269B0
S3152000490017D0616B51B104F14403994203D030466C
S3152000491001F0E6F9A28990B20023636322694FF67B
S31520004920DB71C0F20001002300EA01016360A1816E
S31520004930226041F00803A3819BB2A6E70000000095
S315200049402DE9F84F03690E69824689469E4200F397
S315200049508380F21C01F1140500F11404013E92003B
S315200049608B18121803F1040859685068013103F0B6
S31520004970F7FA0746002839D000239C461A46E958FC
S31520004980E0581FFA81FE4FEA114B81B20EFB07CE8B
S3152000499051180BFB07FC0CEB1E4C1FFA8EFECEEBC0
S315200049A001011FFA8CF24FEA1C4CC2EB10421FFA8F
S315200049B081FE02EB21424EEA0241E15004331214F9
S315200049C059198845DBD2321D0AEB8203596869B929
S315200049D09C4209D25AF8222012B105E01A681AB967
S315200049E0043B013E9C42F9D3CAF810604946504622
S315200049F002F0E8F900282CDB002301379C46EA5810
S31520004A00E05891B2120C1FFA80F9C2EB1042C1EBAA
S31520004A100901614402EB214289B241EA0241E15097
S31520004A2004334FEA224C5A199045E8D2321D0AEB3C
S31520004A308203596869B99C4209D25AF8222012B1D8
S31520004A4005E01A681AB9043B013E9C42F9D3CAF81C
S31520004A5010603846BDE8F88F0020BDE8F88F00BF0B
S31520004A602DE9F04F466AA1B00446904699462D9D01
S31520004A70002E00F02384326882B1616A4FF0010C67
S31520004A80766820460B6856604A6819460CFA02F288
S31520004A909A6002F0D1FA636A00221A60B9F1000620
S31520004AA038DB00232B6040F20003C7F6F0731A466A
S31520004AB006EA0303934217D00022002340464946C4
S31520004AC0CDE9068903F0AAFF002829D02C980123D6
S31520004AD02E990360002900F0D080794B581E2E9A1B
S31520004AE0136021B0BDE8F08F2C9842F20F7303605B
S31520004AF0B8F1000F00F095804AF25820C2F200006B
S31520004B002E990029EDD0C278C31C002AE7D000F1E7
S31520004B100803E4E726F000460123B1462B60C2E7EE
S31520004B202046DDE906231EA900911FA9019102F066
S31520004B30D5FAC6F30A558346002D7ED0DDE9060157
S31520004B40A5F57E751F9F073D21F07F4323F4700353
S31520004B5043F07E51002341F4E001199340F2000313
S31520004B600022C3F6F87303F03DFB4FA3D3E90023DD
S31520004B7003F0ECFC4EA3D3E9002303F035FBCDE98B
S31520004B800801284603F07CFC4BA3D3E9002303F05D
S31520004B90DDFC02460B46DDE9080103F025FBCDE9E5
S31520004BA0080103F06DFF002200230646DDE9080117
S31520004BB003F03EFF40B1304603F062FCDDE90823F6
S31520004BC003F02CFF00B9013E162E5BD90123189362
S31520004BD0013FB7EB050A42BFCAF1000ACDF83CA057
S31520004BE04FF0000A01D400220F92002EC0F27183EA
S31520004BF0B2440023179615932A9B092B62D8052BBE
S31520004C0040F377862A98002704382A902A998B1E03
S31520004C10032B00F2DD83DFE813F0A503D803D503C9
S31520004C20C40326F07F4626F47006002E7FF464AF78
S31520004C304AF24C20C2F2000062E71F9F1E9BFB181F
S31520004C4003F586639D1C202DDCBFC5F1200008FAE4
S31520004C5000F008DD1E3BC5F1400216FA02F228FAE2
S31520004C6003F342EA030003F0FBFBA5F58665012268
S31520004C70033D1992A1F1F87170E74AF24820C2F279
S31520004C8000002EE74AF20033DDE90601C2F20003F6
S31520004C9003EBC603D3E9002303F0CAFE002840F045
S31520004CA02083189094E700BF61436F63A787D23FA4
S31520004CB0B3C8608B288AC63FFB799F501344D33FE5
S31520004CC049A2002000234FF0FF301F4601212A93DE
S31520004CD01190169108902B93656A00236B602046ED
S31520004CE0696802F0C5F9636A28601B681093002F73
S31520004CF000F05B81002E40F32A844AF2003306F04E
S31520004D000F02C2F20003351103EBC20315F0100F98
S31520004D10D3E90001CDE90C0100F0E7824AF2D8334D
S31520004D20DDE90601C2F2000305F00F054FF0030886
S31520004D30D3E9082303F034FDCDE91201BDB14AF2CF
S31520004D40D837DDE90C23C2F2000715F0010F104613
S31520004D50194607D0D7E9002308F1010803F0F6FB2E
S31520004D6002460B4608376D10EFD1CDE90C23DDE95D
S31520004D700C23DDE9120103F013FDCDE90C0118998E
S31520004D80002900F0DE8040F20003DDE90C0100225C
S31520004D90C3F6F0734FF0000503F04AFE08B14FF05A
S31520004DA00105089A002AD4BF002505F00105002D2B
S31520004DB000F0C780119B002B40F3F58040F20003E2
S31520004DC00022C4F22403DDE90C0103F0BFFBCDE988
S31520004DD00C0108F10100711E129103F051FB0246ED
S31520004DE00B46DDE90C0103F0B1FB40F20003002283
S31520004DF0C4F21C0303F0F8F9DDF844C08046A1F1A3
S31520004E005079169B002B00F0AD834AF2003340F216
S31520004E100001C2F20003002003EBCC03C3F6E071CD
S31520004E20CDF80CC053E9022303F0BAFC42464B46A8
S31520004E30109D03F0D7F980468946DDE90C0103F081
S31520004E401FFE074603F01CFB02460B46DDE90C015C
S31520004E5003F0C8F907F13003CDE90C01404605F807
S31520004E60013B4946DDE90C2303F000FE002840F013
S31520004E70138240F20001DDE90C230020C3F6F07115
S31520004E8003F0B0F902460B464046494603F0EEFDD4
S31520004E90DDF80CC0002840F0E783BCF1010F40F399
S31520004EA08280CDF868B00127CDF870A01D966646A1
S31520004EB0DDE90CAB0C9410E040F200010020C3F6B3
S31520004EC0F07103F08FF942464B4603F0B1FD0028FE
S31520004ED040F0C783B74280F28B8440F200034046FD
S31520004EE049460022C4F22403013503F02FFB40F289
S31520004EF000030022C4F224038046894650465946C0
S31520004F0003F024FB8B46824603F0BAFD044603F0E9
S31520004F10B7FA303402460B465046594603F062F93A
S31520004F20109A4B46D4554246013782468B4603F0AB
S31520004F307FFD52465B460028BED0DDF868B00C9C4B
S31520004F40AAE1404603F09CFADDE90C2303F0FEFAC1
S31520004F5040F200030022C4F21C0303F045F9089A2C
S31520004F60A1F150758046A946002A40F0EC8240F215
S31520004F700003DDE90C010022C4F2140303F032F928
S31520004F8042462B46CDE90C0103F070FD002840F087
S31520004F904A824246DDE90C0105F1004303F048FD53
S31520004FA0002840F0D581DDE906891E9B6FEA0307BC
S31520004FB04FEAD7770E2ECCBF002707F00107002F28
S31520004FC000F0B7802B984AF20033C2F2000308990A
S31520004FD003EBC603C20F0029CCBF002202F0010258
S31520004FE0D3E90001CDE90401002A40F0A081024660
S31520004FF00B464046494603F0D3FB109D03F040FD87
S31520005000824603F03DFADDE9042303F09FFA0246C7
S315200050100B464046494603F0E5F80AF1300305F809
S31520005020013B089A012A8046894652D040F2000365
S315200050300022C4F2240303F089FA00220023CDE9DA
S31520005040060103F0EBFC002840F0EB8110984FF0AE
S315200050500108CDF82CB0A346871C0F96DDF82090CA
S31520005060DDE906450AE003F071FA00220023044632
S315200050700D4603F0D3FC002840F0CE81DDE9042361
S315200050802046294608F1010803F08AFB3E4603F034
S31520005090F7FC824603F0F4F9DDE9042303F056FA1F
S315200050A002460B462046294603F09CF800220AF1C8
S315200050B0300C07F801CC0137C14540F20003C4F299
S315200050C02403D0D135465C460F9E8046DDF82CB0B1
S315200050D0894642464B464046494603F085F8804677
S315200050E089464246DDE904014B4603F0A1FC60B93E
S315200050F0DDE9040142464B4603F090FC002800F00F
S3152000510090811AF0010F00F08C81109900E01D4665
S3152000511015F8012C6B1E392A40F067838B42F6D195
S3152000512010993023013631220B70109B1A7012967B
S31520005130B2E0169A002A40F0DF80159F0F9D0C9250
S31520005140002DD4BF00230123BAF1000FD4BF0023C2
S3152000515003F001034BB1AA45B4BF53462B460F9823
S31520005160C3EB0A0AED1AC01A0F90159900291CDD07
S31520005170169A002A00F0E982002F12DD0C993A4691
S31520005180204602F0D5F95A460C9020460C9902F09A
S31520005190E7F8594603462046039301F04DFF039B4B
S315200051A09B46159BDA1B40F011830121204602F015
S315200051B071F906901798002805DD06992046179A5A
S315200051C002F0B6F906902A99012940F30A810027B0
S315200051D0179B002B40F061820123534413F01F03D9
S315200051E040F02A811C230F9A9A44ED18D2180F9268
S315200051F00F9B002B05DD59461A46204602F052F831
S315200052008346BAF1000F05DD06995246204602F084
S3152000521049F806901898002840F029822A9808997B
S315200052200228D4BF002301230029CCBF002303F08A
S315200052300103002B00F00C81002940F08C80052210
S315200052400699089B204602F02FF9069058460699A3
S3152000525001F0B8FD00287EDD109D01360027DDF81F
S3152000526030A0312305F8013B0699204601F0E4FEE3
S31520005270BAF1000F00F0D5803B1E18BF0123574519
S315200052800CBF002303F00103002B40F0D0805146D1
S31520005290204601F0D1FE12962046594601F0CCFE5A
S315200052A0129A531C00222A702C982E9903600029EA
S315200052B000F0D4812E9A1098156012E4102001F087
S315200052C089F8C66046608660066006466062FFF71B
S315200052D0D2BB0F98714200221591801B17920F9016
S315200052E08AE40021013E189172E4DDE906234FF09D
S315200052F00208CDE9122321E52A98012840F36C8281
S31520005300089A1598531E9842C0F25882C71A089BCD
S31520005310002BA8BF0F9DC0F273820F9A2046012151
S315200053209A44D2180F9202F0B5F80C9008E7089B21
S3152000533073B940F200030022C4F21403DDE904012C
S3152000534003F004F942464B4603F086FB00286AD058
S31520005350002206920C922B9B0027DDF830A0DE431C
S31520005360109D81E7002116912B98002840F39F81FC
S315200053702B98014611900890656A002217296A60C9
S3152000538040F2AB8204235B00013203F11400884211
S31520005390F9D9089B6A600E2B8CBF002707F00107FE
S315200053A09DE4012216922B9BF3181193591C002978
S315200053B0C8BF0891E0DC0E298CBF002707F0010743
S315200053C0089189E401231693CEE700221692EAE794
S315200053D04FF0FF33002701201193169008932B9747
S315200053E07AE4B8F1000F7FF4F2AE29F07F4323F47C
S315200053F07003002B7FF4EBAE40F20003C7F6F07388
S3152000540009EA0303002B3FF4E2AE0F9A0AF1010AE0
S31520005410012701320F92DBE635465C460F9EDDF80A
S315200054202CB0129638E7002006900C9014E73946E7
S31520005430204601F001FE2AE7C3F12003042B40F3A6
S3152000544054820F99043B9A44ED18C9180F91CFE660
S315200054501699002900F03181002D05DD0C992A4688
S31520005460204601F01FFF0C90002F40F0EA81DDF866
S3152000547030A0109D012308F001000C9F11900F957C
S315200054801D460C9606995846FFF75AFA394630308B
S315200054900B90584601F096FC069952460646204641
S315200054A001F084FEC3688046002B3DD04FF00109F1
S315200054B04146204601F0C0FD2A9959EA010103D14F
S315200054C0119A002A00F0EB81002EC0F29E812A9AC2
S315200054D0324303D1119B002B00F09781B9F1000FC5
S315200054E000F3CE810F990B9A01F8012B089B0F919F
