S0260000777562737569745F626173655F4D53535F4D53535F434D335F305F6170702E73726563FC
S315200000000000012099020020090300200B03002094
S315200000100D0300200F030020110300200000000024
S315200000200000000000000000000000001303002074
S3152000003015030020000000001703002019030020EC
S315200000401B0300201D0300201F0300202103002086
S315200000502303002025030020270300202903002056
S315200000602B0300202D030020652100209521002050
S3152000007033030020350300203703002039030020F6
S315200000803B0300203D0300203F03002041030020C6
S315200000904303002045030020470300204903002096
S315200000A04B030020000000000000000000000000BC
S315200000B00000000000000000000000004D030020AA
S315200000C035130020F5140020A5160020F516002073
S315200000D057030020590300205B0300205D03002006
S315200000E05F030020610300206303002065030020D6
S315200000F067030020690300206B0300206D030020A6
S315200001006F03002071030020730300207503002075
S3152000011077030020790300207B0300207D03002045
S315200001207F03002081030020830300208503002015
S3152000013087030020890300208B0300208D030020E5
S315200001408F030020910300209303002095030020B5
S3152000015097030020990300209B0300209D03002085
S315200001609F030020A1030020A3030020A503002055
S31520000170A7030020A9030020AB030020AD03002025
S31520000180AF030020B1030020B3030020B5030020F5
S31520000190B7030020B9030020BB030020BD030020C5
S315200001A0BF030020C1030020C3030020C503002095
S315200001B0C7030020C9030020CB030020CD03002065
S315200001C0CF030020D1030020D3030020D503002035
S315200001D0D7030020D9030020DB030020DD03002005
S315200001E0DF030020E1030020E3030020E5030020D5
S315200001F0E7030020E9030020EB030020ED030020A5
S31520000200EF030020F1030020F3030020F503002074
S31520000210F7030020F9030020FB030020FD03002044
S31520000220FF03002001040020030400200504002011
S3152000023007040020090400200B0400200D040020E0
S315200002400F040020110400201304002015040020B0
S3152000025017040020190400201B0400201D04002080
S315200002601F04002021040020230400202504002050
S3152000027027040020290400202B0400202D04002020
S315200002802F040020310400203304002035040020F0
S315200002903704002039040020684880476848002831
S315200002A00BD168486849694A884206D091421CBFEA
S315200002B050F8043B41F8043BF8D165486549664A45
S315200002C0884206D091421CBF50F8043B41F8043BBB
S315200002D0F8D162486249634A914218BF41F8040B3B
S315200002E0FAD100000000000000000000000000001D
S315200002F0DFF874010FF2030E00474FF000004FF0B5
S315200003000001DFF868F1FEE7FEE7FEE7FEE7FEE71D
S31520000310FEE7FEE7FEE7FEE7FEE7FEE7FEE7FEE78F
S31520000320FEE7FEE7FEE7FEE7FEE7FEE7FEE7FEE77F
S31520000330FEE7FEE7FEE7FEE7FEE7FEE7FEE7FEE76F
S31520000340FEE7FEE7FEE7FEE7FEE7FEE7FEE7FEE75F
S31520000350FEE7FEE7FEE7FEE7FEE7FEE7FEE7FEE74F
S31520000360FEE7FEE7FEE7FEE7FEE7FEE7FEE7FEE73F
S31520000370FEE7FEE7FEE7FEE7FEE7FEE7FEE7FEE72F
S31520000380FEE7FEE7FEE7FEE7FEE7FEE7FEE7FEE71F
S31520000390FEE7FEE7FEE7FEE7FEE7FEE7FEE7FEE70F
S315200003A0FEE7FEE7FEE7FEE7FEE7FEE7FEE7FEE7FF
S315200003B0FEE7FEE7FEE7FEE7FEE7FEE7FEE7FEE7EF
S315200003C0FEE7FEE7FEE7FEE7FEE7FEE7FEE7FEE7DF
S315200003D0FEE7FEE7FEE7FEE7FEE7FEE7FEE7FEE7CF
S315200003E0FEE7FEE7FEE7FEE7FEE7FEE7FEE7FEE7BF
S315200003F0FEE7FEE7FEE7FEE7FEE7FEE7FEE7FEE7AF
S31520000400FEE7FEE7FEE7FEE7FEE7FEE7FEE7FEE79E
S31520000410FEE7FEE7FEE7FEE7FEE7FEE7FEE7FEE78E
S31520000420FEE7FEE7FEE7FEE7FEE7FEE7FEE7FEE77E
S31520000430FEE7FEE7FEE7FEE7FEE70000E5270020F1
S315200004400000000000000020000000200895002089
S315200004500895002008950020289C00200000000018
S31520000460289C0020B0B70020C12900201D050020AF
S3152000047049F62843C2F200031A780AB901201870F7
S31520000480704700BF49F20850C2F2000008B5036861
S315200004902BB140F20003C0F2000303B1984708BD18
S315200004A080B582B000AF0346FB7149F62943C2F2FC
S315200004B000031B781A46FB7948F63050C2F200003A
S315200004C011461A4602F0A4FA49F62943C2F200035D
S315200004D0FA791A7007F10807BD4680BD80B582B04B
S315200004E000AF786013460A46FA70BB70FA78BB787C
S315200004F048F65050C2F20000796802F089FA07F1F6
S315200005000807BD4680BD00BF80B500AF48F66450E1
S31520000510C2F2000002F07CFA80BD00BF80B500AFB9
S3152000052001F0FEF8FEE700BF80B582B000AF78602C
S3152000053039607B6803F1010348F6C470C2F20000FB
S31520000540194602F065FA7B685B7848F6C470C2F2F9
S315200005500000194602F05CFA4BF20473C2F2000363
S315200005607A681A604BF20073C2F200033A681A6086
S315200005704BF20473C2F200031B6803F1010348F631
S31520000580C470C2F20000194602F042FA4BF204731C
S31520000590C2F200031B685B7848F6C470C2F2000002
S315200005A0194602F035FA4BF2FC63C2F2000349F613
S315200005B06C42C2F200021A6049F66843C2F2000396
S315200005C04FF000021A7049F66C43C2F2000348F657
S315200005D0CC72C2F200021A6049F66C43C2F20003E2
S315200005E04FF004021A7149F66C43C2F200034FF031
S315200005F000029A6149F66C43C2F20003DC4ADA61D2
S3152000060049F66C43C2F20003DA4A1A6249F66C4391
S31520000610C2F20003D84A5A6249F66C43C2F200037A
S31520000620D64A9A6249F66C43C2F2000348F6D8725B
S31520000630C2F200025A6449F66C43C2F200034FF03C
S31520000640030283F8482049F66C43C2F20003CC4AE1
S315200006501A6649F66C43C2F20003CA4A5A6649F63C
S315200006606C43C2F20003C84A9A6649F66C43C2F24A
S31520000670000349F66C42C2F20002DA6549F66C4381
S31520000680C2F2000348F6E472C2F20002C3F88820E0
S3152000069049F66C43C2F200034FF0020283F88C2025
S315200006A049F66C43C2F20003B84AC3F8A42049F6BF
S315200006B06C43C2F20003B64AC3F8A82049F66C433D
S315200006C0C2F2000349F66C42C2F20002C3F8A0202F
S315200006D049F66C43C2F2000348F6F472C2F20002F5
S315200006E0C3F8CC2049F66C43C2F200034FF0030254
S315200006F083F8D02049F66C43C2F20003A54AC3F81A
S31520000700E82049F66C43C2F20003A34AC3F8EC2062
S3152000071049F66C43C2F20003A04AC3F8F02049F61A
S315200007206C43C2F20003924AC3F8E42049F66C43B4
S31520000730C2F2000348F68C72C2F20002C3F8D82532
S3152000074049F66C43C2F200034FF0000283F8DC2521
S3152000075049F66C43C2F200034FF0030283F8DD250D
S3152000076049F66C43C2F200034FF0000283F8DE25FF
S3152000077049F66C43C2F200037D4AC3F8F02549F6D8
S315200007806C43C2F2000348F69872C2F20002C3F824
S315200007901C2649F66C43C2F200034FF0000283F890
S315200007A0202649F66C43C2F200034FF0030283F879
S315200007B0212649F66C43C2F200034FF0010283F86A
S315200007C0DE2549F66C43C2F20003694AC3F8342693
S315200007D049F66C43C2F2000348F6A072C2F2000248
S315200007E0C3F8602649F66C43C2F200034FF00002BC
S315200007F083F8642649F66C43C2F200034FF00302E5
S3152000080083F8652649F66C43C2F200034FF00202D4
S3152000081083F8DE2549F66C43C2F20003544AC3F836
S31520000820782649F66C43C2F2000349F20402C2F26A
S315200008300002C3F8642249F66C43C2F200034FF06B
S31520000840000283F8682249F66C43C2F200034FF097
S31520000850010283F869224BF20473C2F200031B687B
S3152000086003F10B0249F66C43C2F20003C3F86C2273
S3152000087049F66C43C2F200033D4AC3F87C2249F68E
S315200008806C43C2F2000341F2D902C2F20002C3F85D
S31520000890782249F66C43C2F2000349F21002C2F2F2
S315200008A00002C3F8A82249F66C43C2F200034FF0B7
S315200008B0000283F8AC2249F66C43C2F200034FF0E3
S315200008C0010283F8AD224BF20473C2F200031B68C7
S315200008D003F10C0249F66C43C2F20003C3F8B022BE
S315200008E049F66C43C2F20003214AC3F8C02249F6F6
S315200008F06C43C2F2000341F2D902C2F20002C3F8ED
S31520000900BC2249F66C43C2F2000349F21C02C2F231
S315200009100002C3F8DC2149F66C43C2F200034FF013
S31520000920000283F8E02149F66C43C2F200034FF03F
S31520000930010283F8E1214BF20473C2F200031B6823
S3152000094003F1090249F66C43C2F20003C3F8E4211D
S3152000095049F66C43C2F20003064AC3F8F42149F66D
S315200009606C43C2F2000341F2D902C2F2000217E040
S31520000970B09C0020F49C0020589F002024A000203A
S31520000980389D0020D09E0020149F0020489E0020E5
S315200009908C9E002044A2002088A20020CCA2002009
S315200009A0C3F8F02149F66C43C2F2000349F228024B
S315200009B0C2F20002C3F8202249F66C43C2F20003B9
S315200009C04FF0000283F8242249F66C43C2F200035A
S315200009D04FF0010283F825224BF20473C2F2000382
S315200009E01B6803F10A0249F66C43C2F20003C3F8FE
S315200009F0282249F66C43C2F20003E54AC3F838229E
S31520000A0049F66C43C2F2000341F2D902C2F2000257
S31520000A10C3F8342249F66C43C2F2000349F2340289
S31520000A20C2F20002C3F8EC2249F66C43C2F200037C
S31520000A304FF0020283F8F02249F66C43C2F200031B
S31520000A40D44AC3F8082349F66C43C2F20003D24ABB
S31520000A50C3F80C2349F66C43C2F2000349F66C42F4
S31520000A60C2F20002C3F8042349F66C43C2F2000323
S31520000A7049F24002C2F20002C3F8302349F66C4321
S31520000A80C2F200034FF0000283F8342349F66C4388
S31520000A90C2F200034FF0020283F835234BF20473AF
S31520000AA0C2F200031B6803F1070249F66C43C2F247
S31520000AB00003C3F83C2349F66C43C2F20003B54A4F
S31520000AC0C3F8482349F66C43C2F2000349F25002A8
S31520000AD0C2F20002C3F8742349F66C43C2F2000343
S31520000AE04FF0000283F8782349F66C43C2F20003E4
S31520000AF04FF0020283F879234BF20473C2F200030B
S31520000B001B6803F1080249F66C43C2F20003C3F8DE
S31520000B10802349F66C43C2F200039E4AC3F88C2315
S31520000B2049F66C43C2F2000349F26002C2F20002A7
S31520000B30C3F8B82349F66C43C2F200034FF007020C
S31520000B4083F8BC2349F66C43C2F20003934AC3F8E8
S31520000B50D42349F66C43C2F20003914AC3F8D82342
S31520000B6049F66C43C2F200038E4AC3F8DC2349F6E9
S31520000B706C43C2F200038C4AC3F8E02349F66C4367
S31520000B80C2F20003894AC3F8E42349F66C43C2F251
S31520000B900003874AC3F8E82349F66C43C2F20003F0
S31520000BA0844AC3F8EC2349F66C43C2F2000349F6A3
S31520000BB06C42C2F20002C3F8D02349F66C43C2F25B
S31520000BC0000349F26C02C2F20002C3F8FC2349F684
S31520000BD06C43C2F200034FF0000283F8002449F66A
S31520000BE06C43C2F200034FF0010283F801244BF25A
S31520000BF00473C2F200031B681A4649F66C43C2F21C
S31520000C000003C3F8042449F66C43C2F200036A4A7F
S31520000C10C3F8142449F66C43C2F2000341F2D90208
S31520000C20C2F20002C3F8102449F66C43C2F2000354
S31520000C3049F27802C2F20002C3F8402449F66C4316
S31520000C40C2F200034FF0000283F8442449F66C43B5
S31520000C50C2F200034FF0010283F845244BF20473DD
S31520000C60C2F200031B6803F1010249F66C43C2F28B
S31520000C700003C3F8482449F66C43C2F200034E4AE7
S31520000C80C3F8582449F66C43C2F2000341F2D90254
S31520000C90C2F20002C3F8542449F66C43C2F20003A0
S31520000CA049F28402C2F20002C3F8842449F66C4356
S31520000CB0C2F200034FF0000283F8882449F66C4301
S31520000CC0C2F200034FF0010283F889244BF2047329
S31520000CD0C2F200031B6803F1020249F66C43C2F21A
S31520000CE00003C3F88C2449F66C43C2F20003324A4F
S31520000CF0C3F89C2449F66C43C2F2000341F2D902A0
S31520000D00C2F20002C3F8982449F66C43C2F20003EB
S31520000D1049F29002C2F20002C3F8C82449F66C4395
S31520000D20C2F200034FF0000283F8CC2449F66C434C
S31520000D30C2F200034FF0010283F8CD244BF2047374
S31520000D40C2F200031B6803F1030249F66C43C2F2A8
S31520000D500003C3F8D02449F66C43C2F20003164AB6
S31520000D60C3F8E02449F66C43C2F2000341F2D902EB
S31520000D70C2F20002C3F8DC2449F66C43C2F2000337
S31520000D8049F29C02C2F20002C3F80C2516E000BF0D
S31520000D90F49C0020589F00209C9F002068A00020E3
S31520000DA0ACA00020F0A0002034A1002078A10020D3
S31520000DB0BCA1002000A2002024A0002049F66C43FC
S31520000DC0C2F200034FF0000283F8102549F66C4367
S31520000DD0C2F200034FF0010283F811254BF204738F
S31520000DE0C2F200031B6803F1040249F66C43C2F207
S31520000DF00003C3F8142549F66C43C2F20003404AA7
S31520000E00C3F8242549F66C43C2F2000341F2D90205
S31520000E10C2F20002C3F8202549F66C43C2F2000351
S31520000E2049F2A802C2F20002C3F8502549F66C43E3
S31520000E30C2F200034FF0000283F8542549F66C43B2
S31520000E40C2F200034FF0010283F855254BF20473DA
S31520000E50C2F200031B6803F1050249F66C43C2F295
S31520000E600003C3F8582549F66C43C2F20003244A0E
S31520000E70C3F8682549F66C43C2F2000341F2D90251
S31520000E80C2F20002C3F8642549F66C43C2F200039D
S31520000E9049F2B402C2F20002C3F8942549F66C4323
S31520000EA0C2F200034FF0000283F8982549F66C43FE
S31520000EB0C2F200034FF0010283F899254BF2047326
S31520000EC0C2F200031B6803F1060249F66C43C2F224
S31520000ED00003C3F89C2549F66C43C2F20003084A76
S31520000EE0C3F8AC2549F66C43C2F2000341F2D9029D
S31520000EF0C2F20002C3F8A82507F10807BD4680BD47
S31520000F0024A0002080B582B000AFFFF7FDFA49F695
S31520000F106843C2F200031B781846FFF7C1FA4BF26A
S31520000F20FC63C2F200031B681B6818464FF00A01D7
S31520000F304FF00002FFF7D2FA4FF00003FB7040E0BB
S31520000F404BF2FC63C2F200031A68FB78DBB203F1B2
S31520000F5006034FEA830313445B687B607B681A6849
S31520000F60FB78DBB203F10103DBB24FEAC303DBB24A
S31520000F7010464FF00A011A46FFF7B0FA7B681B7934
S31520000F80DBB2002B17D17B685B79DBB2032B12D047
S31520000F907B685B69786898470246FB78DBB203F189
S31520000FA00103DBB24FEAC303DBB210464FF0640104
S31520000FB01A46FFF793FAFB78DBB203F10103DBB2A3
S31520000FC0FB704BF2FC63C2F200031B681A79FB78B4
S31520000FD0DBB29A42B4D807F10807BD4680BD00BFF0
S31520000FE080B582B000AF78604BF2FC63C2F200039A
S31520000FF07A681A6049F66843C2F200034FF000028D
S315200010001A704BF2FC63C2F200031B681846FFF706
S3152000101079FF07F10807BD4680BD00BF80B500AF48
S3152000102049F66843C2F200031B781A464BF2FC636A
S31520001030C2F200031B681B7903F1FF339A4214DACC
S3152000104049F66843C2F200031B7803F10103DAB2C2
S3152000105049F66843C2F200031A7049F66843C2F2A1
S3152000106000031B781846FFF71BFA80BD80B582B0B7
S3152000107000AF4BF2FC63C2F200031A6849F66843DC
S31520001080C2F200031B7803F106034FEA83031344DD
S315200010905B687B607B681B79002B15D17B685B794D
S315200010A0032B08D14BF20473C2F200031B687A6843
S315200010B092791A7502E0786800F022F87B689B69BD
S315200010C01846FFF78DFF02E07868FFF789FF07F1E2
S315200010D00807BD4680BD00BF80B483B000AF7860EE
S315200010E07B689B681B781A4649F20C53C2F20003B0
S315200010F053F82230184607F10C07BD4680BC7047CE
S3152000110080B483B000AF78604BF20073C2F2000364
S315200011101B684FF00102DA714BF20073C2F2000332
S315200011201B687A6852791A7200E030BF4BF200735E
S31520001130C2F200031B68DB79012BF6D07B685B7952
S31520001140012B09D17B689A684BF20073C2F2000327
S315200011501B689B7A13700CE07B685B79022B08D1A5
S315200011607B68DA684BF20073C2F200031B685B7976
S31520001170137007F10C07BD4680BC704780B483B05E
S3152000118000AF78604BF20873C2F200037A681A60E7
S3152000119007F10C07BD4680BC704700BF80B582B002
S315200011A000AF786039604BF20873C2F200031B6807
S315200011B0184679683A6801F0BDF907F10807BD4677
S315200011C080BD00BF80B584B000AF13460246FA71D9
S315200011D00A46BA717B717B79DBB203F00F036FEAA3
S315200011E0030303F06F036FEA0303DBB2DBB23B7347
S315200011F0FB797B73BB79BB7307F10C0318464FF061
S315200012000301FFF7CBFF07F11007BD4680BD00BFE6
S3152000121080B584B000AF13460246FA710A46BA7109
S315200012207B717B79DBB203F00F036FEA43636FEACE
S315200012305363DBB2DBB23B73FB797B73BB79BB7346
S3152000124007F10C0318464FF00301FFF7A7FF07F13C
S315200012501007BD4680BD00BF80B584B000AF0246F2
S315200012600B46FA807B717B79DBB203F00F036FEAC2
S31520001270C3636FEAD363DBB2D9B2FB88DBB21A460B
S3152000128002F07F02FB88DBB203F03F0339737A73E7
S31520001290BB7307F10C0318464FF00301FFF77EFFDF
S315200012A007F11007BD4680BD80B483B000AF03466A
S315200012B0FB804EF20013CEF20003B7F906204FEA68
S315200012C05212F98801F01F014FF0010000FA01F1D6
S315200012D043F8221007F10C07BD4680BC704700BFBB
S315200012E080B483B000AF0346FB804EF20013CEF2EB
S315200012F00003B7F906204FEA5212F98801F01F01C0
S315200013004FF0010000FA01F102F1600243F82210C9
S3152000131007F10C07BD4680BC704700BF80B400AF04
S3152000132043F20003C4F20103D3F884301846BD46C5
S3152000133080BC7047684620F007018D4681B5ADF523
S31520001340037D00AF4FF0000387F80732B9E007F1BD
S3152000135004034BF23070C2F2000019464FF40072BB
S3152000136001F05CF8034687F8073297F80732002B1E
S3152000137000F0A7803B464FF000021A609AE04BF23D
S315200013804473C2F200031B78012B1DD13B461B6818
S3152000139007F10402D35CFF2B2CD14BF24473C2F22B
S315200013A000039B68062B07D04BF24473C2F200035E
S315200013B04FF000021A701EE04BF24473C2F2000393
S315200013C04FF000029A6016E03B461B6807F10402C4
S315200013D0D35CFF2B0FD14BF24473C2F200034FF0C4
S315200013E000029A604BF24473C2F200034FF00102EE
S315200013F01A7000E000BF4BF24473C2F200039A68F1
S315200014003B461B6807F10401C95C4BF24473C2F2E8
S3152000141000031344597002F101024BF24473C2F2E5
S3152000142000039A604BF24473C2F200031B78012B2F
S315200014303AD14BF24473C2F200039B68062B33D198
S315200014404BF24473C2F200039A784BF23873C2F21D
S3152000145000035A704BF24473C2F20003DA784BF25F
S315200014603873C2F200039A704BF24473C2F200033F
S315200014701A794BF23873C2F20003DA704BF24473D6
S31520001480C2F200035A794BF23873C2F200031A7182
S315200014904BF24473C2F200039A794BF23873C2F2CC
S315200014A000035A7100F0A2FB3B461B6803F10102C0
S315200014B03B461A6097F807223B461B689A423FF73D
S315200014C05EAFFFF72BFF034603F00103DBB2002BD1
S315200014D07FF43DAF4FF0000000F07CFF4FF020007E
S315200014E0FFF7FEFE07F50377BD46BDE8814085463A
S315200014F0704700BF684620F007018D4681B5ADF5DF
S31520001500037D00AF4FF0000387F80732AEE007F106
S3152000151004034BF25070C2F2000019464FF40072D9
S3152000152000F07CFF034687F8073297F80732002B36
S3152000153000F09C803B464FF000021A608FE04BF291
S315200015400C73C2F200031B78012B2ED13B461B687D
S3152000155007F10402D35C4FEAD313DBB2012B4BD144
S315200015603B461B6807F10402D35C03F00F024BF2E3
S315200015701473C2F200035B7D9A423FD14BF20C7387
S31520001580C2F200035B68032B07D04BF20C73C2F246
S3152000159000034FF000021A7031E04BF20C73C2F2D6
S315200015A000034FF000025A6029E03B461B6807F112
S315200015B00402D35C4FEAD313DBB2012B1FD13B4687
S315200015C01B6807F10402D35C03F00F024BF214737D
S315200015D0C2F200035B7D9A4211D14BF20C73C2F228
S315200015E000034FF000025A604BF20C73C2F2000364
S315200015F04FF001021A7002E000BF00E000BF4BF27C
S315200016000C73C2F200035A683B461B6807F10401BB
S31520001610C95C4BF20C73C2F200031344597002F1F9
S3152000162001024BF20C73C2F200035A604BF20C73A8
S31520001630C2F200031B78012B0BD14BF20C73C2F2C2
S3152000164000035B68032B04D115484FF0030100F01B
S3152000165009FA3B461B6803F101023B461A6097F8DC
S3152000166007223B461B689A423FF769AFFFF756FEB3
S3152000167003464FEA530303F00103DBB2002B7FF44A
S3152000168046AF4FF0010000F0A5FE4FF02100FFF716
S3152000169027FE07F50377BD46BDE88140854670479E
S315200016A00DB70020684620F007018D4681B583B02E
S315200016B000AFFFF733FE03464FEA9303DBB203F096
S315200016C00103FB71FB79012B02D100F00DFB01E038
S315200016D000F06CFB4FF0020000F07CFE4FF0220081
S315200016E0FFF7FEFD07F10C07BD46BDE881408546A4
S315200016F0704700BF684620F007018D4689B500AFC8
S3152000170000F07CFB4FF0030000F064FE4FF0230056
S31520001710FFF7E6FDBD46BDE889408546704700BF18
S3152000172080B582B000AF49F2BC00C2F2000001F0E1
S315200017306FF949F2DC00C2F2000001F069F949F2C2
S31520001740EC00C2F2000001F063F949F2FC00C2F29B
S31520001750000001F05DF949F21010C2F2000001F01C
S3152000176057F94BF23873C2F200034FF00002DA71D8
S315200017704BF23873C2F200034FF000025A724BF25A
S315200017804473C2F200034FF000021A704BF2447306
S31520001790C2F200034FF000029A604FF000033B6054
S315200017A00CE03A684BF24473C2F2000313444FF044
S315200017B000025A703B6803F101033B603B68052B2E
S315200017C0EFDD4BF20C73C2F200034FF000021A70E9
S315200017D04BF20C73C2F200034FF000025A604FF036
S315200017E000033B600CE03A684BF20C73C2F2000334
S315200017F013444FF000025A703B6803F101033B602B
S315200018003B68022BEFDD4BF21473C2F200034FF05C
S3152000181000021A704BF21473C2F200034FF0010259
S315200018205A704BF21473C2F200034FF002029A7000
S315200018304BF21473C2F200034FF00302DA704BF23C
S315200018401473C2F200034FF004021A714BF21473A0
S31520001850C2F200034FF005025A714BF21473C2F222
S3152000186000034FF006029A714BF23873C2F200035E
S315200018704FF000025A714BF21473C2F200034FF07C
S3152000188000029A714BF21473C2F200034FF00A025F
S31520001890DA714BF21473C2F200034FF05A021A7235
S315200018A04BF21473C2F200034FF018025A724BF235
S315200018B01473C2F200034FF019029A724BF214739A
S315200018C0C2F200034FF03002DA724BF21473C2F206
S315200018D000034FF03C021A734BF21473C2F200035A
S315200018E04FF000021A754BF21473C2F200034FF048
S315200018F000025A754BF21473C2F200034FF0000235
S315200019009A754BF21473C2F200034FF00002DA7597
S315200019104BF21473C2F200036FF001021A764BF2F7
S315200019201473C2F200034FF000025A764BF214737E
S31520001930C2F200034FF07F029A7646F21003C4F2F9
S3152000194000037B607A6845F2FA53C4F66E4313604F
S3152000195049F22810C2F2000001F05AF800F0DAFC31
S315200019604BF23070C2F2000040F20001C4F20501D1
S315200019704FF035024FF0010300F04EFE4BF250704F
S31520001980C2F2000040F20011C4F205014FF0C70276
S315200019904FF0010300F040FE4BF25070C2F20000FF
S315200019A0FFF7ECFB4FF000004FF0420100F0E2FCA5
S315200019B04FF0000000F0EAFC4FF02000FFF774FC27
S315200019C04FF001004FF0420100F0D4FC4FF001002F
S315200019D000F0DCFC4FF02100FFF766FC4FF0020020
S315200019E04FF0820100F0C6FC4FF0020000F0CEFC62
S315200019F04FF02200FFF758FC4FF003004FF0420152
S31520001A0000F0B8FC4FF0030000F0C0FC4FF02300BC
S31520001A10FFF74AFC49F24410C2F20000104900F0D8
S31520001A20F7FF4BF21473C2F200035B7849F24410BD
S31520001A30C2F20000194600F0EBFF4BF21470C2F21E
S31520001A4000004BF23871C2F20001FEF76DFD4FF037
S31520001A50000000F023FA07F10807BD4680BD00BF4D
S31520001A6015B7002080B584B000AF78600B467B8028
S31520001A707B681B78902B33D14BF23873C2F200036C
S31520001A801B78012B0DD17B6803F101031B781846C7
S31520001A9000F088F80346FB73FB7B184600F040F8FD
S31520001AA03AE04BF23873C2F20003DB79012B30D1D6
S31520001AB04BF23873C2F200031B7A012B2BD17B68C1
S31520001AC003F101031A784BF23873C2F200039A72BB
S31520001AD04BF23873C2F200034FF00002DA711BE0BA
S31520001AE07B681B78802B17D14BF23873C2F2000328
S31520001AF01B78012B10D17B6803F101031B78184654
S31520001B0000F050F80346FB73FB7B184600F028F8DC
S31520001B1002E000BF00E000BF07F11007BD4680BD10
S31520001B2080B483B000AF0346FB714BF23873C2F228
S31520001B3000039B791A46FB794FF0010101FA03F362
S31520001B40DBB242EA0303DBB2DAB24BF23873C2F2FB
S31520001B5000039A7107F10C07BD4680BC704700BF91
S31520001B6080B483B000AF0346FB714BF23873C2F2E8
S31520001B7000039B791A46FB794FF0010101FA03F322
S31520001B80DBB26FEA0303DBB202EA0303DBB2DAB2AB
S31520001B904BF23873C2F200039A7107F10C07BD4667
S31520001BA080BC704780B485B000AF0346FB714FF010
S31520001BB00003FB600FE0FA684BF21473C2F20003D5
S31520001BC09B5CFA799A4202D1FB68DBB208E0FB689B
S31520001BD003F10103FB60FB68052BECDD4FF00003EE
S31520001BE0184607F11407BD4680BC704780B584B0FF
S31520001BF002AF4BF23873C2F200035B7819464BF200
S31520001C003873C2F200039B781A464BF23873C2F23D
S31520001C100003DB7849F24C10C2F2000000F0F8FE17
S31520001C204BF23873C2F200031B7949F26410C2F2F8
S31520001C300000194600F0ECFE4BF23873C2F20003A6
S31520001C405B7949F27010C2F20000194600F0E0FEFE
S31520001C504BF23873C2F200031B78012B2AD14BF2C8
S31520001C603873C2F2000358784BF21473C2F20003A1
S31520001C70D97D4BF21473C2F200031A7E4BF2147311
S31520001C80C2F2000393F819C04BF21473C2F2000398
S31520001C909B7E0093634600F0DFF80346FB71FA79DA
S31520001CA04BF21473C2F200039B7D10461946FFF7D0
S31520001CB0D3FA14E04BF23873C2F20003DB79012B1E
S31520001CC00DD14BF23873C2F200031B7A022B06D1D8
S31520001CD04BF23873C2F200034FF00002DA7107F1BB
S31520001CE00807BD4680BD00BF80B584B002AF4BF269
S31520001CF03873C2F200031B78012B50D14BF2387394
S31520001D00C2F200035B7A012B0FD14BF23873C2F279
S31520001D1000039A7A4BF21473C2F200039B7D10469D
S31520001D204FF047011A46FFF773FA4BF23873C2F2A7
S31520001D30000358794BF21473C2F20003D9794BF29F
S31520001D401473C2F200031A7A4BF21473C2F2000320
S31520001D5093F80BC04BF21473C2F200031B7B009363
S31520001D60634600F079F80346FB714BF23873C2F2F2
S31520001D700003FA799A724BF23873C2F200034FF0DD
S31520001D8001025A724BF21473C2F200039B7DFA7958
S31520001D9010464FF047011A46FFF714FA01E0FFF705
S31520001DA065F907F10807BD4680BD00BF80B500AFC5
S31520001DB04BF23873C2F200031B78012B1DD14BF274
S31520001DC03873C2F200035B7A012B16D14BF23873BB
S31520001DD0C2F200034FF000025A724BF23873C2F27D
S31520001DE000039A7A4BF21473C2F200039B7D1046CD
S31520001DF04FF047011A46FFF70BFA80BD80B500AFBA
S31520001E004BF23873C2F200031B78012B20D14BF220
S31520001E101473C2F200035A7A4BF21473C2F200030F
S31520001E209B7D10464FF047011A46FFF7F1F94BF21A
S31520001E301473C2F200035A7A4BF21473C2F20003EF
S31520001E409B7D10464FF047011A46FFF7BBF901E08C
S31520001E50FFF7E4F880BD00BF80B483B000AFF8710F
S31520001E60B9717A713B71FA79BB79C3EB0203397C7C
S31520001E703A79C2EB010202FB03F27979BB79C3EB13
S31520001E80010392FBF3F3DAB23B791344DBB2184633
S31520001E9007F10C07BD4680BC704700BF80B582B0F5
S31520001EA000AF0346FB714BF23873C2F20003FA7996
S31520001EB01A70FB79012B01D0FFF724F807F10807E8
S31520001EC0BD4680BD4FF0FF30704700BFFEE700BF24
S31520001ED04FF400534B604FF0000070474FF0010065
S31520001EE0704700BF4FF00000704700BF4FF0000062
S31520001EF0704700BF38B515461C4649F62C43C2F23A
S31520001F0000031B6883B94BF28070C2F200004FF4C5
S31520001F1061414FF0030200F055F949F62C43C2F215
S31520001F2000034FF001021A604BF28070C2F20000EB
S31520001F302946224600F034F8204638BD08B549F631
S31520001F403043C2F200031B6843B949F63043C2F25C
S31520001F5000034BF2B072C2F200021A6049F6304317
S31520001F60C2F200031A68EFF30883104483420FD2AB
S31520001F704FF000004FF0010149F28412C2F2000234
S31520001F804FF01903FFF7B6FF4FF00100FFF79EFF52
S31520001F9049F63043C2F200031860104608BD00BF60
S31520001FA02DE9F0054BF28073C2F20003984206D069
S31520001FB04BF25873C2F20003984200D000BE01B91A
S31520001FC000BE02B900BE4BF28073C2F200039842F3
S31520001FD005D04BF25873C2F20003984233D1131E38
S31520001FE018BF012300290CBF002303F00103002B97
S31520001FF029D04FF00007B8464FF0100A03681B7D22
S3152000200090F80AC043EA0C0C80F80AC013F0200F9F
S3152000201017D00F2A04D95646BC4643460F4404E03F
S315200020200AB943460BE01646F6E70468FD5C2570C0
S315200020300CF1010C03F101039E42F6D86746C3EB6F
S315200020400202002ADAD1BDE8F005704708B54BF246
S315200020508073C2F20003984207D04BF25873C2F243
S315200020600003984201D000BE08BD03681B7A03F026
S315200020700F030C2B20D8DFE803F0071F0D1F131FBB
S31520002080191F1F1F1F1F1300436A0BB900BE08BD6F
S31520002090984708BD036A0BB900BE08BD984708BD1E
S315200020A0C3690BB900BE08BD984708BD83690BB943
S315200020B000BE08BD984708BD00BE08BD10B44BF24F
S315200020C08073C2F20003984206D04BF25873C2F2D4
S315200020D00003984200D000BEC26802B900BE016962
S315200020E001B900BE4BF28073C2F20003984205D0BC
S315200020F04BF25873C2F20003984230D1002A2ED0F8
S3152000210000292CD003681B7D827A43EA0202827260
S3152000211013F0200F1AD002694369C3EB02030F2B79
S3152000212004D94FF0100C4FF0000302E073B19C4627
S31520002130F9E70268C4684169615C1170426902F17D
S315200021400102426103F101036345F2D34269036947
S315200021509A4201BF002303614268C2F8843010BC52
S31520002160704700BF684620F007018D4601B54BF247
S315200021708070C2F20000FFF769FF4EF20013CEF224
S3152000218000034FF48062C3F88021BDE801408546F4
S31520002190704700BF684620F007018D4601B54BF217
S315200021A05870C2F20000FFF751FF4EF20013CEF234
S315200021B000034FF40062C3F88021BDE80140854644
S315200021C0704700BF70B504460D4616464BF2807325
S315200021D0C2F20003984206D04BF25873C2F20003B3
S315200021E0984200D000BE05B900BE00F0FDFA4BF2C1
S315200021F08073C2F200039C4226D14BF28073C2F256
S3152000220000034FF080421A604FF084425A604FF02C
S315200022100A021A8149F21473C2F20003186842F2C4
S315200022200003CEF204031A6B42F080021A634EF2C8
S315200022300012CEF200024FF48061C2F880111A6BB0
S3152000224022F080021A6325E040F20003C4F2010363
S31520002250236040F20003C4F2202363604FF00B0397
S31520002260238149F21873C2F20003186842F2000370
S31520002270CEF204031A6B42F480721A634EF20012F5
S31520002280CEF200024FF40061C2F880111A6B22F4DC
S3152000229080721A6323684FF000021A7115B94FF045
S315200022A001050FE0B0FBF5F515F0080F4FEA1515FF
S315200022B018BF0135B5F5803F38BFADB202D300BE99
S315200022C04FF0010563684FF00102C3F89C21236893
S315200022D04FEA15221A712368EDB21D7062684FF01D
S315200022E00003C2F89C312268167322684FF00E0153
S315200022F011726268C2F810322361E3606361E361A0
S3152000230042F2BD02C2F200022262A3616362A3729C
S3152000231070BD00BF10B442F20003CEF204031A6B64
S3152000232042F480421A634FF0000349F2A010C2F231
S3152000233000004FF0010C4EF20014CEF20004C25AF7
S3152000234011B24FEA511102F01F020CFA02F201F10A
S31520002350600144F8212003F10203402BEFD142F221
S315200023600003CEF204031A6B22F480421A6310BCD7
S31520002370704700BF1F2801D900BE704749F2E013FD
S31520002380C2F2000353F82030196070471F2801D984
S3152000239000BE704749F2E013C2F2000353F8203022
S315200023A01A6842F008021A6049F2A013C2F200032A
S315200023B033F810301AB24FEA521203F01F034FF0CF
S315200023C0010101FA03F14EF20013CEF2000343F8A5
S315200023D0221070471F2801D900BE70474FF0010216
S315200023E002FA00F143F20003C4F20103C3F880109D
S315200023F049F2A013C2F2000333F8103019B24FEAA3
S31520002400511103F01F0302FA03F24EF20013CEF22B
S31520002410000301F1600143F821207047F0B58BB02D
S315200024200E4617460446C0B949F2602CC2F2000C8B
S315200024306D46BCE80F000FC5BCE80F000FC59CE831
S31520002440030045F8040B25F8021B4FEA11412970B9
S3152000245068464FF0CC0100F05FFAC6B949F2602C0D
S31520002460C2F2000C6D46BCE80F000FC5BCE80F0099
S315200024700FC59CE8030045F8040B25F8021B4FEA1C
S315200024801141297068464FF0CD0100F045FAC7B9D1
S3152000249049F2602CC2F2000C6D46BCE80F000FC555
S315200024A0BCE80F000FC59CE8030045F8040B25F88F
S315200024B0021B4FEA1141297068464FF0CE0100F009
S315200024C02BFA331E18BF0123002C0CBF002303F068
S315200024D0010353B34FB3206800F1100000F05AFAFD
S315200024E0237940EA0303237100F00200C0B2E0B171
S315200024F04FF00005206800F1040000F04BFA7055FB
S3152000250005F10105206800F1100000F043FA237957
S3152000251040EA03032371C0F34000AF4294BF00207A
S3152000252000F001000028E5D101E04FF00005284623
S315200025300BB0F0BDF0B58BB00E4617460446C0B9B9
S3152000254049F2602CC2F2000C6D46BCE80F000FC5A4
S31520002550BCE80F000FC59CE8030045F8040B25F8DE
S31520002560021B4FEA1141297068464FF07D0100F0A9
S31520002570D3F9C6B949F2602CC2F2000C6D46BCE80C
S315200025800F000FC5BCE80F000FC59CE8030045F8F7
S31520002590040B25F8021B4FEA1141297068464FF0BB
S315200025A07E0100F0B9F9C7B949F2602CC2F2000CDD
S315200025B06D46BCE80F000FC5BCE80F000FC59CE8B0
S315200025C0030045F8040B25F8021B4FEA1141297038
S315200025D068464FF07F0100F09FF9331E18BF012394
S315200025E0002C0CBF002303F0010393B18FB14FF0F1
S315200025F00005206800F1100000F0CCF910F0010F62
S31520002600F7D02068715D00F0C3F905F10105AF42EE
S31520002610EFD80BB0F0BD00BF2DE9F0418AB00F46D0
S3152000262016461D460446D8B949F2602EC2F2000E5F
S31520002630EC46BEE80F00ACE80F00BEE80F00ACE8A1
S315200026400F009EE803004CF8040B2CF8021B4FEAFF
S3152000265011418CF8001068464FF0300100F05CF90B
S31520002660072D1BD949F2602EC2F2000EEC46BEE8B9
S315200026700F00ACE80F00BEE80F00ACE80F009EE8A4
S3152000268003004CF8040B2CF8021B4FEA11418CF87E
S31520002690001068464FF0310100F03EF9B6F5005FB4
S315200026A01BD349F2602EC2F2000EEC46BEE80F00A4
S315200026B0ACE80F00BEE80F00ACE80F009EE8030070
S315200026C04CF8040B2CF8021B4FEA11418CF8001031
S315200026D068464FF0320100F01FF9072D8CBF00230A
S315200026E00123002C0CBF002303F00103002B76D01E
S315200026F0B6F5005F73D207F108084046F1B200F044
S3152000270047F906F47F4107F10C0045EA611100F014
S315200027103FF92760404600F03DF98046206800F1E9
S315200027200C0000F037F9074600F0F80348EA431892
S315200027301FFA88F8B04518D049F2602CC2F2000C76
S315200027406E46BCE80F000FC6BCE80F000FC69CE81B
S31520002750030046F8040B26F8021B4FEA114131709C
S3152000276068464FF0540100F0D7F807F00707AF424C
S3152000277018D049F2602CC2F2000C6D46BCE80F005E
S315200027800FC5BCE80F000FC59CE8030045F8040BF5
S3152000279025F8021B4FEA1141297068464FF0550172
S315200027A000F0BAF8206800F1100000F0F3F800F00D
S315200027B00203DBB283B1206800F1040000F0EAF8DE
S315200027C08DF82700206800F1100000F0E3F800F0F3
S315200027D00200C0B20028EED14FF0000323710AB0E8
S315200027E0BDE8F081704700BF30B484B049F2882339
S315200027F0C2F20003EC460FCB8CE80F0042F2000336
S31520002800CEF204039A6C02F00C0204A90A4452F890
S31520002810105C9A6CC2F3011201EB820252F8104C42
S315200028209A6CC2F3811201EB820252F8100CD96C19
S31520002830DB6CC1F3042101F1010113F4005F18BF21
S31520002840490040F23023C6F208031A6822F070428B
S3152000285041F2CF13C0F2A1539A4205D14EF62C7302
S31520002860C6F201031B6828E040F61C03C6F20803E3
S315200028701A6844F24133C4F654439A421ED140F6B4
S315200028804003C6F208031A6822F07F4240F2003362
S31520002890C0F201039A4211D9B2F5003F05D241F2A6
S315200028A02C63C6F208031B6807E0B2F5403F05D249
S315200028B041F6AC63C6F208031B6823B900BE47F68F
S315200028C04003C0F27D1349F21C72C2F2000213606B
S315200028D049F21472C2F20002B3FBF5F5156049F213
S315200028E01872C2F20002B3FBF4F4146049F20C72BF
S315200028F0C2F20002B3FBF0F0106049F21072C2F28D
S315200029000002B3FBF1F1116049F22072C2F200021B
S31520002910136004B030BC704784B0029103788DF800
S315200029200F30029B0193019B03F101030193F4E70E
S3152000293001607047006870470EB503FA01F303EA99
S31520002940020301686FEA020201EA020141EA030179
S3152000295001600EBD006800EA020020FA01F070470F
S3152000296001807047008870470EB503FA01F303EA29
S31520002970020301886FEA020201EA020141EA030129
S3152000298001800EBD008800EA020020FA01F070479F
S3152000299001707047007870470EB503FA01F303EA19
S315200029A0020301786FEA020201EA020141EA030109
S315200029B001700EBD007800EA020020FA01F070478F
S315200029C070B549F2F84649F2F845C2F20006C2F25D
S315200029D00005761BB61006D0002455F824300134A5
S315200029E09847A642F9D849F2F84549F2FC46C2F280
S315200029F00005C2F20006761B06F072FDB61006D060
S31520002A00002455F8243001349847A642F9D870BDE1
S31520002A100FB449F22473C2F2000310B51C6882B0C9
S31520002A2024B1A36913B9204602F092FE204605ACD4
S31520002A30049A23468168019400F02AF802B0BDE882
S31520002A40104004B0704700BF0EB410B5044683B0E2
S31520002A5018B183690BB902F07BFE204606AC059AB5
S31520002A6023468168019400F013F803B0BDE81040B6
S31520002A7003B07047936810B5144613B953601846CF
S31520002A8010BD02F0C9FF00236360A36010BD00BF24
S31520002A902DE9F04FADF5AE6D83B00E4615469A463C
S31520002AA0814603F0A9F900681D90B9F1000F04D002
S31520002AB0D9F81830002B00F05A8149F21433C2F2AB
S31520002AC000039E4208BFD9F8046010D049F234337F
S31520002AD0C2F200039E4208BFD9F8086007D049F227
S31520002AE05433C2F200039E4208BFD9F80C60B6F8F0
S31520002AF00CC01FFA8CF313F4005F09D14CF4005C70
S31520002B00726EA6F80CC01FFA8CF322F4005272667D
S31520002B1013F0080F01F001833269002A01F0FD82CB
S31520002B2003F01A030A2B00F0E080002212921A9278
S31520002B3000231C920DF59C641192043419920DF514
S31520002B40A4621B9304320DF5906328320333189246
S31520002B5007930023CDF84C45CDF85035CDF85435A4
S31520002B602B781A1E18BF0122252B0CBF002202F03B
S31520002B70010232B32F4617F8013F1A1E18BF012251
S31520002B80252B0CBF002202F00102002AF3D1B7EB5D
S31520002B90050808BF3D4614D0C4F80480DDF850353A
S31520002BA0DDF8542501332560072B4244CDF85035F6
S31520002BB0CDF8542578DC083411983D4640441190D0
S31520002BC03B78002B7CD06B1C4FF0FF372B204FF02F
S31520002BD0200C00214FF000020F918DF87725CDF8BB
S31520002BE02CA06A780A915D1CA2F12003582B00F2D2
S31520002BF08682DFE813F0980284028402A40284020B
S31520002C0084028402840284028402AD02BA0284020F
S31520002C10C102CA028402E702F002F002F002F002C8
S31520002C20F002F002F002F002F00284028402840232
S31520002C3084028402840284028402840284020403BD
S31520002C4026038402260384028402840284026A0301
S31520002C50840284028104840284028402840284021F
S31520002C601404840284022F048402840284028402CF
S31520002C708402840284028402840284024F0465044E
S31520002C80260326032603730365048402840279033C
S31520002C90840285039603AD030A048402CC038402CE
S31520002CA0F40384028402C0000DF5A862484631462A
S31520002CB00C32FFF7DFFE58B90DF59C6404347BE730
S31520002CC0DDF85435002B41F092810023CDF85035A4
S31520002CD0B38913F0400F02D04FF0FF3011901198B6
S31520002CE05FB00DF5806DBDE8F08FB6F90E30002B84
S31520002CF0FFF61BAF376A2CF0020CD6F828E00DF54C
S31520002D008E64ADF888C40C34B6F80EC02A465346F5
S31520002D10484621461FADCDF89C740027CDF88C542B
S31520002D20CDF87C544FF48065CDF8A4E4ADF88AC480
S31520002D30CDF89054CDF89474CDF88454FFF7A8FEBE
S31520002D400028119009DB2146484602F091FB119993
S31520002D50B84218BF4FF0FF311191BDF8883413F0F7
S31520002D60400FBCD0B38943F04003B381B7E7484650
S31520002D7002F0EEFCA1E60A9849F2E42CC2F2000C1D
S31520002D80169210F0200FCDF864C000F06E830B99D8
S31520002D90CB1D23F0070303F108020B92D3E900AB06
S31520002DA05AEA0B020A9B0CBF00220122134240F072
S31520002DB06B8602234FF000018DF87715002FA2BFF6
S31520002DC0DDF828C02CF0800CCDF828C0002F18BFC5
S31520002DD042F00102002A00F01E84012B00F0DE855D
S31520002DE0022B00F0C185189913914FEADA084FEAB1
S31520002DF0DB0C48EA4B780AF00700E346C24630303F
S31520002E005AEA0B0201F8010DEFD1DDF828C0139123
S31520002E101CF0010F40F08C861898401A10909DF8EF
S31520002E207735109A1797BA42B8BF3A460C9213B123
S31520002E300C9A01320C920A9B0A9813F002031593FE
S31520002E401EBFDDF830C00CF1020CCDF830C010F0FA
S31520002E50840014904DD10F990C9A8F1A002F48DDBB
S31520002E60102F49F2A028D8BFC2F2000830DDC2F2E6
S31520002E7000080DF5A86B43464FF0100AA8460BF143
S31520002E800C0B1D4602E0103F102F1EDDC4F804A0D7
S31520002E90DDF85035DDF85425013325601032072B37
S31520002EA0CDF8542504F10804CDF85035EBDD0DF5A9
S31520002EB09C64484631465A460434FFF7DBFD002819
S31520002EC07FF406AF103F102FE0DC2B464546984690
S31520002ED06760DDF85035C4F800805A1CDDF854359B
S31520002EE0CDF85025DB19072ACDF8543500F38A850D
S31520002EF008349DF877359BB101236360DDF85035A2
S31520002F000DF5AE6207322260DDF854250133CDF887
S31520002F1050350132072BCDF8542500F3B6840834FA
S31520002F20159B9BB102236360DDF850350DF5AE622B
S31520002F3004322260DDF854250133CDF850350232B3
S31520002F40072BCDF8542500F3AF840834DDF850C0A4
S31520002F50BCF1800F00F07683179B109A9F1A002FE2
S31520002F6043DD102FDFF88C8B2EDD43460DF5A86B45
S31520002F70A8464FF0100A0BF10C0B1D4602E0103F3D
S31520002F80102F1EDDC4F804A0DDF85035DDF85425D9
S31520002F90013325601032072BCDF8542504F108049F
S31520002FA0CDF85035EBDD0DF59C64484631465A4642
S31520002FB00434FFF75FFD00287FF48AAE103F102F00
S31520002FC0E0DC2B46454698466760DDF85035DDF84F
S31520002FD054250133C4F80080D219072BCDF8542587
S31520002FE0CDF8503500F342840834DDF828C01CF4AF
S31520002FF0807F40F09D82109813996060DDF85035EF
S31520003000DDF85425013321601218072BCDF85035F1
S31520003010D8BF04F10803CDF8542500F39B830A9901
S3152000302011F0040F55D00F9ADDF830C0CCEB020713
S31520003030002F4EDD102F49F2A028D8BFC2F200087B
S315200030402EDDC2F200080DF5A86A42461024A846D5
S315200030500AF10C0A154602E0103F102F1DDD5C60B8
S31520003060DDF85025DDF8541501321D601031072A90
S31520003070CDF8541503F10803CDF85025ECDD48466C
S3152000308031465246FFF7F6FC0DF59C6304330028C3
S315200030907FF41EAE103F102FE1DC2A4645469046AF
S315200030A05F60DDF85025C3F80080DDF85435013225
S315200030B0CDF85025FB18072ACDF854350BDD0DF534
S315200030C0A862484631460C32FFF7D4FC00287FF42C
S315200030D0FFADDDF8543511980C9A0F998A42ACBF92
S315200030E0801840181190002B40F042830DF59C6407
S315200030F00023DDF82CA00434CDF8503530E51692A7
S31520003100002A3FF4DDAD0DF5A46001234FF0000C3D
S3152000311004300C938DF824258DF877C513901093E1
S315200031200021179187E69DF87735002B40F02B85F7
S315200031300B992B468DF877C52A780B9153E50B9979
S315200031400A9B43F001030A932B462A780B914AE502
S315200031500B990B9A09680F91111D0F9B002BC0F23A
S3152000316080872A782B460B913DE50B992B468DF8C7
S3152000317077052A780B9136E50B990A9B43F00403D1
S315200031800A932B462A780B912DE52B4613F8012B13
S315200031902A2A01F0CD80A2F13001092901F23780D7
S315200031A00235002715F8012C07EB87072B4601353A
S315200031B001EB4707A2F130010929F3D947EAE7775E
S315200031C01D4611E50B992B460A9A42F080020A9277
S315200031D02A780B9107E5A2F130014FF000082B4623
S315200031E008EB880813F8012B01EB4808A2F13001FF
S315200031F01D460929F3D9CDF83C801D46F4E40A9BE7
S31520003200169243F010030A93DDF828C01CF0200F15
S3152000321000F05D810B98C31D23F0070303F108011D
S315200032200B91D3E900ABBAF1000F7BF10002C0F29B
S315200032309B845AEA0B034FF001030CBF00220122A4
S31520003240BCE50A98169210F0080F00F0ED840B9951
S31520003250CB1D23F0070303F108020B92D3F8048059
S31520003260D3F800A0CDF86C80CDF848A05046414652
S3152000327004F098F98346002800F0998550460022EC
S315200032800023414605F090F9002840F00B859DF873
S31520003290773549F2D82149F2D4221698C2F2000194
S315200032A0C2F200024FF0030C4728D8BF11461391F3
S315200032B00A99CDF830C021F08001CDF840C00A919E
S315200032C04FF0000CCDF85CC0B1E50B990A9B43F09A
S315200032D008030A932B462A780B9184E40A9941F035
S315200032E040010A910B993CE72A786C2A00F0558513
S315200032F00B990A9B0B9143F010030A932B4672E419
S315200033000A9A12F0200F00F082840B98119A036813
S3152000331010464FEAE0710B9AC3E9000102F1040A54
S315200033201EE416920A9A12F0200300F0EF800B9BFF
S31520003330DA1D002322F0070202F1080CCDF82CC07A
S31520003340D2E900AB5AEA0B000CBF0022012231E57C
S315200033500B987821DDF828C01691036849F2E420FD
S315200033608DF8751530218DF874154CF0020C0B99DB
S315200033701A1E18BF0122C2F200009A464FF0000B17
S315200033800431CDF828C0199002230B9112E50B9B2E
S3152000339016924FF00002181D8DF877251B680B90AA
S315200033A01393002B00F0C686002F1398C0F28F8649
S315200033B000213A4603F0A4F80346002800F0F586DB
S315200033C013981B1A1093BB4240F3BE851097002119
S315200033D027EAE7779DF877350C97179127E5DDF8EB
S315200033E028C016921CF0200F23D00B980123C21D53
S315200033F022F0070202F108010B91D2E900AB5AEA4A
S315200034000B020CBF00220122D4E40A992B4641F07C
S3152000341020010A910B992A780B91FFF7E4BB0A9BAE
S31520003420169243F010030A93DDF828C01CF0200FF3
S31520003430DBD10A9B13F0100F00F0D5830B980123E4
S31520003440021D0B9201680A1E18BF01228A464FF000
S31520003450000BAFE40A98169249F2C02210F0200F12
S31520003460C2F2000219927FF492AC0A9B13F0100F5D
S3152000347040F01A830A9A12F0400F00F015830B9B36
S3152000348003F1040CCDF82CC0B3F800A0D2464FF0BF
S31520003490000B85E416920DF5A4610B9A4FF0010CF2
S315200034A04FF000000431CDF830C0136804328DF897
S315200034B077050B921391CDF840C08DF824352FE671
S315200034C0DDF828C016921CF0200F7FF4A3AE0A9ACE
S315200034D012F0100F40F0F1820A9A12F0400F00F01D
S315200034E0EC820B9B03F1040CCDF82CC0B3F900A0A1
S315200034F0D2464FEAEA7B96E60A99169241F01001E7
S315200035000A910A9A12F020037FF411AF0A9911F05A
S31520003510100200F054830B9A02F1040CCDF82CC053
S3152000352011680A1E18BF01228A464FF0000B41E49B
S31520003530169A652A40F328811298002200231B99A7
S3152000354005F028F8002800F0BE8101236360DDF82D
S31520003550502549F20033C2F200032360DDF85435CA
S315200035600132CDF850250133072ACDF85435D8BF7E
S3152000357004F1080300F39B83DDF870251A98824234
S3152000358004DB0A9911F0010F3FF449AD01225A607C
S31520003590DDF85025DDF8541501321D980131072A32
S315200035A0CDF854151860CDF8502500F35F85083303
S315200035B01A994F1E002F7FF732AD102FDFF8348572
S315200035C040F3EA8242460DF5A86AA84610240AF17D
S315200035D00C0A154603E0103F102F40F3DA825C6098
S315200035E0DDF85025DDF8541501321D601031072A0B
S315200035F0CDF8541503F10803CDF85025EBDD4846E8
S3152000360031465246FFF736FA0DF59C6304330028FF
S31520003610E1D0FFF75DBB7BB90A9911F0010F0BD002
S315200036200DF5A462302304328DF84B352732012361
S3152000363013921093FFF7F3BB189800211091139063
S31520003640FFF7EDBB0F980C99471A002F7FF784AC34
S31520003650102FDFF8A0842EDD43460DF5A86BA84673
S315200036604FF0100A0BF10C0B1D4602E0103F102FF5
S315200036701EDDC4F804A0DDF85035DDF854250133ED
S3152000368025601032072BCDF8542504F10804CDF817
S315200036905035EBDD0DF59C64484631465A460434D8
S315200036A0FFF7E8F900287FF413AB103F102FE0DC7A
S315200036B02B46454698466760DDF85035C4F80080AD
S315200036C05A1CDDF85435CDF85025DB19072ACDF8DC
S315200036D0543500F33A8208343EE413996360DDF8EA
S315200036E050252160DDF854150132CDF85025CB1830
S315200036F0072ACDF8543500F3498508341D9A01234D
S31520003700DDF870756360DDF850352260DDF85425EC
S315200037100133CDF850350132072BCDF85425D8BFCB
S3152000372004F1080300F323851398DDF87025C719E3
S315200037301A981F60811A5960DDF854158A1ADDF827
S3152000374050151218CDF854250131CDF850150729FA
S3152000375040F332820DF5A862484631460C32FFF717
S3152000376089F900287FF4B4AA0DF59C63043356E446
S315200037700DF5A862484631460C32FFF77BF9002842
S315200037803FF4B4ACFFF7A4BA1A9901294CDD012302
S315200037906360DDF85035DDF8542501331398013286
S315200037A0072BCDF854252060CDF8503500F3B28193
S315200037B0083401236360DDF85035DDF854250133E4
S315200037C01D990132072BCDF854252160CDF85035AF
S315200037D000F3928108341298002200231B9904F0EA
S315200037E0D9FE002840F01D811A9B13985A1E62604C
S315200037F0DDF85035411C2160DDF854150133CDF834
S3152000380050358A18072BCDF8542521DC08341C9B0B
S315200038100DF5AC621C9822606360DDF85035DDF84A
S3152000382054250133FFF7F0BB0A9A12F0010FAED1EF
S31520003830139A01236360DDF850352260DDF85425A4
S315200038400133CDF850350132072BCDF85425DDDD77
S315200038500DF5A862484631460C32FFF70BF90028D1
S315200038607FF436AA0DF59C640434D0E70DF5A862E2
S31520003870484631460C32FFF7FDF800287FF428AA87
S315200038800DF59C640434FFF7B0BB0DF5A8624846DD
S3152000389031460C32FFF7EEF800287FF419AA0DF511
S315200038A09C640434FFF73CBB0DF5A86248463146BC
S315200038B00C32FFF7DFF800287FF40AAA0DF59C6486
S315200038C00434FFF743BBDDF87035002B40F3FD8150
S315200038D01A998B42FFF601AF139A6160DDF85035D5
S315200038E02260DDF854250133CDF850355218072BC8
S315200038F0CDF85425D8BF04F1080300F32984DDF858
S3152000390070451A98241A002C40F3B381102CDFF846
S31520003910E48140F39D8142460DF5A86AA84610270A
S315200039200AF10C0A154603E0103C102C40F38D8159
S315200039305F60DDF85025DDF8541501321D60103129
S31520003940072ACDF8541503F10803CDF85025EBDDF1
S31520003950484631465246FFF78DF80DF59C630433F1
S315200039600028E1D0FFF7B4B9189A19981346139294
S315200039700AF00F024FEA1A1141EA0B714FEA1B1C9B
S31520003980825C8A46E3465AEA0B0C03F8012DEFD1F6
S3152000399018981393C01A1090FFF741BA09220023F2
S315200039A0524573EB0B00DDF860801FD22346444658
S315200039B0B8461F46504659460A22002304F044FEC4
S315200039C000235046594602F1300C0A2204F801CD54
S315200039D004F03AFE0922002382468B46524573EBB9
S315200039E00B03E7D33B464746A0461C4608F1FF306B
S315200039F00AF1300A139008F801AC1899091A1091A7
S31520003A00FFF70DBA0DF5A862484631460C32FFF78E
S31520003A1031F800287FF45CA90DF59C640434FFF787
S31520003A2068BA1A994F1E002F7FF7F1AE102FDFF8D4
S31520003A30C4804EDD43460DF5A86BA8464FF0100A0C
S31520003A400BF10C0B1D4602E0103F102F3EDDC4F893
S31520003A5004A0DDF85035DDF85425013325601032F9
S31520003A60072BCDF8542504F10804CDF85035EBDDAD
S31520003A700DF59C64484631465A460434FEF7FAFF53
S31520003A800028E1D0FFF724B916983021DDF828C0A8
S31520003A90012202238DF874154CF0020C8DF8750561
S31520003AA0CDF828C0FFF786B90B98011D03680B9146
S31520003AB09A464FF0000BFFF773B90B98011D036868
S31520003AC00B919A464FEAEA7BFFF7ADBB2B4645465C
S31520003AD098466760DDF85035DDF854250133C4F883
S31520003AE00080D219072BCDF85425CDF850357FF715
S31520003AF08DAEADE6B09200200DF5A862484631465F
S31520003B000C32FEF7B7FF00287FF4E2A80DF59C647F
S31520003B10043460E60DF5A862484631460C32FEF7BD
S31520003B20A9FF00287FF4D4A80DF59C64043440E650
S31520003B30302800F0EC821398302300F8013D1899C4
S31520003B401390091A1091FFF76AB90DF5A862484635
S31520003B5031460C32FEF78EFF00287FF4B9A80DF50A
S31520003B609C640434FFF7F8B9DAF1000A6BEB4B0BCF
S31520003B702D235AEA0B0C8DF877350CBF0022012233
S31520003B800123FFF71BB90B992B462A780B91FFF7D8
S31520003B902AB82A46454690465F60DDF85025DDF86E
S31520003BA054150132C3F80080C919072ACDF85415D7
S31520003BB0CDF850253FF7CEAD0833FFF730BA0A9837
S31520003BC010F0400300F0ED810B9913460A1D0B926D
S31520003BD0B1F800A0BAF1000218BF0122D2464FF078
S31520003BE0000BFFF7E7B80A9B13F0400F00F0CC81DB
S31520003BF00B980123011D0B91B0F800A0BAF1000229
S31520003C0018BF0122D2464FF0000BFFF7D3B80A9B0C
S31520003C1013F0100F00F0A4810B98119900F1040AFB
S31520003C2003681960FEF79CBF0B98C31D23F007039A
S31520003C3003F108010B91D3F80480D3F800A0CDF846
S31520003C406C80CDF848A0FFF711BB2A464546904622
S31520003C505C60DDF85025DDF854150132C3F800808C
S31520003C600919072ACDF85415CDF8502500F3EA8214
S31520003C7008330A9911F0010F3FF4D1A901225A60A5
S31520003C80DDF85025DDF8541501321D980131072A3B
S31520003C90CDF854151860CDF850253FF75BAD0833A5
S31520003CA0FFF7BDB92D238DF87735FFF7F2BA0DF55D
S31520003CB0A862484631460C32FEF7DCFE00287FF427
S31520003CC007A80DF59C63043356E401236360DDF8F1
S31520003CD0502549F20033C2F200032360DDF8543543
S31520003CE00132CDF850250133072ACDF85435D8BFF7
S31520003CF004F1080300F38781DDF870253AB91A9A92
S31520003D002AB9DDF828C01CF0010F3FF488A901224A
S31520003D105A60DDF85025DDF8541501321D98013121
S31520003D20072ACDF854151860CDF8502500F379816F
S31520003D300833DDF870757F42002F40F3B381102FD2
S31520003D40DFF8508640F3D28142460DF5A86AA84690
S31520003D5010240AF10C0A154603E0103F102F40F3F9
S31520003D60C2815C60DDF85025DDF8541501321D60F6
S31520003D701031072ACDF8541503F10803CDF8502544
S31520003D80EBDD484631465246FEF774FE0DF59C6340
S31520003D9004330028E1D0FEF79BBF0B996B1C0A9ACF
S31520003DA042F020020A926A780B91FEF71CBF504619
S31520003DB0414603F009FC002840F0FF80B7F1FF3FA1
S31520003DC000F051821698672814BF00230123472844
S31520003DD008BF43F0010313B1002F08BF01270DF5DB
S31520003DE0AB60434652460A99C0E90023DDF85C35AC
S31520003DF041F480710A91002BC0F264820021179150
S31520003E001698662814BF00230123462808BF43F0CE
S31520003E1001031093002B00F0D181BC460323CDF87B
S31520003E2030A00DF5AE61CDF834804846009302915E
S31520003E300DF5AC61DDE90C230C31CDF804C00391FE
S31520003E400DF5AD61CDF824C0049100F0C5FB169A9E
S31520003E50DDF824C0B2F1670318BF0123472A0CBF3F
S31520003E60002303F00103139033B90A9B13F0010FCB
S31520003E7008BFDDF868B516D01398109900EB0C0B27
S31520003E8031B10378302B00F0DA80DDF870359B44B1
S31520003E90504600220023414604F07CFB002800F017
S31520003EA0C281CDF868B5169A1398672A14BF0023E5
S31520003EB00123472A08BF43F00103C0EB0B001A90E9
S31520003EC0002B00F08A81DDF8701511F1030F109197
S31520003ED002DB8F4280F28C81169A023A1692109952
S31520003EE0169A4B1ECDF87035002B8DF86025C0F242
S31520003EF034822B228DF86125092B00F3B6810DF52E
S31520003F00AC62303304328DF8633530238DF8623558
S31520003F100DF5AC631A981A99D31A18181C9301290F
S31520003F20109040F3108210980130109020EAE07132
S31520003F300C911798002800F06E812D2300218DF812
S31520003F4077351791FEF774BF109A4FF0000C9DF845
S31520003F50773522EAE272CDF85CC00C92FEF767BF95
S31520003F600A9A12F0400F17BF0B980B9A119900F17D
S31520003F70040A11BF036802F1040A1368119814BFDA
S31520003F8019801860FEF7ECBD0B9A131D0B93116870
S31520003F9001230A1E18BF01228A464FF0000BFEF7A6
S31520003FA009BF0B98021D0B9201680A1E18BF012239
S31520003FB08A464FF0000BFEF7FDBE49F2E02249F299
S31520003FC0DC231699C2F20003C2F20002032047291D
S31520003FD0D8BF1A4613920A9A0C9022F08002CDF886
S31520003FE05CB00A929DF877351090FEF720BF0DF54C
S31520003FF0A862484631460C32FEF73CFD00287EF486
S3152000400067AEFEF762BE0DF5A862484631460C3211
S31520004010FEF730FD00287EF45BAE0DF59C6304337D
S315200040206AE60DF5A862484631460C32FEF722FDB7
S3152000403000287EF44DAE0DF59C63043379E6504698
S31520004040002200234146CDF824C004F0A3FADDF86F
S3152000405024C000287FF419AFCCF10103CDF87035C8
S3152000406015E70F9A52420F92FFF787B80DF5A8620F
S31520004070484631460C32FEF7FDFC00287EF428AE79
S315200040800DF59C630433FFF793BA0DF5A8624846F5
S3152000409031460C32FEF7EEFC00287EF419AE0DF503
S315200040A09C6304331A9913985960DDF85025DDF87E
S315200040B05415186001321A98CDF850250918072A88
S315200040C0CDF854153FF746AB0833FEF7A8BF0021BD
S315200040D0179103F0D1FB9DF8773520EAE072109016
S315200040E00C92FEF7A4BE2A46454690465F60DDF850
S315200040F05025DDF854150132C3F80080C919072A66
S31520004100CDF85415CDF85025BFDC0833CAE7189AE8
S315200041101399511A1091FEF782BE4846314600F097
S3152000412049F900287EF4D8ADB6F80CC01FFA8CF3F6
S31520004130FEF7F6BC062F28BF062749F2F821C2F261
S31520004140000127EAE772109713910C92FEF7E8BF59
S315200041500DF5A862484631460C32FEF78BFC002846
S315200041607EF4B6AD0DF59C630433FFF7C8BB0DF5A1
S31520004170A862484631460C32FEF77CFC00287EF4C5
S31520004180A7AD0DF59C630433FFF7CEBA0DF5A862F3
S31520004190484631460C32FEF76DFC00287EF498AD79
S315200041A00DF59C640434FFF7A9BA109727EAE77740
S315200041B017900C979DF87735FEF739BE1699652925
S315200041C014BF00230123452908BF43F00103002B18
S315200041D046D007F1010C022321E6169B652B76DDDE
S315200041E0169A662A1CBFDDF87035109300F083807E
S315200041F01A9B109883426EDC0A9911F0010F40F049
S315200042008E8020EAE07267230C92169391E60027AF
S315200042101D46FEF7E9BC10999DF8773521EAE17134
S315200042200C91FEF704BEDDF868359B4598BF9B468A
S315200042307FF639AE302203F8012B9B45CDF8683541
S31520004240F9D830E60DF5A862484631460C32FEF71D
S3152000425011FC00287EF43CAD0DF59C63043308E583
S31520004260BC460233DBE50737B9E546F2676C0DF548
S3152000427090610331C6F2666C8CFB0320DA17C2EB21
S31520004280A00202EB8200A3EB400013463030092A3D
S3152000429001F8010DF0DC3033481EDAB201F8012CAA
S315200042A0079B83426AD90DF5AC63033301E011F80D
S315200042B0012B03F8012C1A46DDF81CC001338C456E
S315200042C0F5D825E62D2208F10048179298E5DDF865
S315200042D07005109003E6109B1A99002BDABF1098F0
S315200042E0C0F1020301235B186722109323EAE373CC
S315200042F016920C931DE6DDF870050028109031DD2E
S315200043001FB90A9911F0010F0ED010986621169147
S31520004310431CDB19109323EAE3720C9209E61098EA
S31520004320672116910130109020EAE0720C9200E687
S315200043300B991A780F6804310B91002FB8BF4FF0F4
S31520004340FF37FEF750BC0A9A12F0010F04BF20EA8D
S31520004350E0730C933FF4EDADE5E52D225B428DF83D
S315200043606125C9E577B90A9B13F0010F0AD14FF0F1
S31520004370010CCDF830C0CDF840C0DAE50DF5AC62C1
S315200043800232C5E50237662127EAE77210971691B1
S315200043900C92CEE5B092002010B449F22474C2F2F9
S315200043A000048C46134601466246206810BCFEF780
S315200043B06FBB00BF70B549F22475C2F200050646F0
S315200043C00C46286810B18369002B36D049F2143385
S315200043D0C2F200039C4238D049F23433C2F20003C1
S315200043E09C4241D049F25433C2F200039C4204BF9E
S315200043F02B68DC68A289114693B213F0080F184681
S3152000440018BF226933D01AB313F0010107D06369AC
S315200044100021A1605B42A36142B1002070BD13F070
S31520004420020F08BF6169A160002AF6D1A38913F0A3
S31520004430800FF2D04FF0FF3070BD01F089F949F2BC
S315200044401433C2F200039C42C6D12B685C68D1E7C4
S3152000445003F42071B1F5007FD6D03046214601F015
S31520004460FFFCA3892269CFE72B689C68C2E713F07B
S31520004470100FDFD013F0040F08BF226917D0616B2D
S3152000448051B104F14403994203D0304601F0E4F9D6
S31520004490A28990B20023636322694FF6DB71C0F2D2
S315200044A00001002300EA01016360A181226041F03E
S315200044B00803A3819BB2A6E72DE9F84F03690E698D
S315200044C0824689469E4200F38380F21C01F1140540
S315200044D000F11404013E92008B18121803F104080F
S315200044E059685068013103F0F7FA0746002839D099
S315200044F000239C461A46E958E0581FFA81FE4FEAE7
S31520004500114B81B20EFB07CE51180BFB07FC0CEBAF
S315200045101E4C1FFA8EFECEEB01011FFA8CF24FEADB
S315200045201C4CC2EB10421FFA81FE02EB21424EEADE
S315200045300241E1500433121459198845DBD2321D49
S315200045400AEB8203596869B99C4209D25AF822209B
S3152000455012B105E01A681AB9043B013E9C42F9D310
S31520004560CAF810604946504602F0E8F900282CDBCC
S31520004570002301379C46EA58E05891B2120C1FFAE4
S3152000458080F9C2EB1042C1EB0901614402EB2142E2
S3152000459089B241EA0241E15004334FEA224C5A19CA
S315200045A09045E8D2321D0AEB8203596869B99C42CC
S315200045B009D25AF8222012B105E01A681AB9043B2A
S315200045C0013E9C42F9D3CAF810603846BDE8F88F00
S315200045D00020BDE8F88F00BF2DE9F04F466AA1B054
S315200045E00446904699462D9D002E00F0238432687D
S315200045F082B1616A4FF0010C766820460B685660DE
S315200046004A6819460CFA02F29A6002F0D1FA636AF5
S3152000461000221A60B9F1000638DB00232B6040F235
S315200046200003C7F6F0731A4606EA0303934217D02F
S315200046300022002340464946CDE9068903F0AAFF19
S31520004640002829D02C9801232E990360002900F0F8
S31520004650D080794B581E2E9A136021B0BDE8F08F7A
S315200046602C9842F20F730360B8F1000F00F095808A
S3152000467049F21030C2F200002E990029EDD0C278FE
S31520004680C31C002AE7D000F10803E4E726F0004621
S315200046900123B1462B60C2E72046DDE906231EA989
S315200046A000911FA9019102F0D5FAC6F30A55834657
S315200046B0002D7ED0DDE90601A5F57E751F9F073DFD
S315200046C021F07F4323F4700343F07E51002341F40D
S315200046D0E001199340F200030022C3F6F87303F0B9
S315200046E03DFB4FA3D3E9002303F0ECFC4EA3D3E913
S315200046F0002303F035FBCDE90801284603F07CFCB6
S315200047004BA3D3E9002303F0DDFC02460B46DDE98B
S31520004710080103F025FBCDE9080103F06DFF002217
S3152000472000230646DDE9080103F03EFF40B130468E
S3152000473003F062FCDDE9082303F02CFF00B9013EFB
S31520004740162E5BD901231893013FB7EB050A42BF0A
S31520004750CAF1000ACDF83CA04FF0000A01D400228D
S315200047600F92002EC0F27183B24400231796159340
S315200047702A9B092B62D8052B40F377862A98002797
S3152000478004382A902A998B1E032B00F2DD83DFE85A
S3152000479013F0A503D803D503C40326F07F4626F4D9
S315200047A07006002E7FF464AF49F20430C2F2000096
S315200047B062E71F9F1E9BFB1803F586639D1C202D19
S315200047C0DCBFC5F1200008FA00F008DD1E3BC5F16C
S315200047D0400216FA02F228FA03F342EA030003F033
S315200047E0FBFBA5F586650122033D1992A1F1F8711F
S315200047F070E749F20030C2F200002EE749F2B833E2
S31520004800DDE90601C2F2000303EBC603D3E9002368
S3152000481003F0CAFE002840F02083189094E700BFDA
S3152000482061436F63A787D23FB3C8608B288AC63F90
S31520004830FB799F501344D33F0193002000234FF070
S31520004840FF301F4601212A931190169108902B9331
S31520004850656A00236B602046696802F0C5F9636AC1
S3152000486028601B681093002F00F05B81002E40F318
S315200048702A8449F2B83306F00F02C2F2000335113A
S3152000488003EBC20315F0100FD3E90001CDE90C01AB
S3152000489000F0E78249F29043DDE90601C2F2000307
S315200048A005F00F054FF00308D3E9082303F034FD84
S315200048B0CDE91201BDB149F29047DDE90C23C2F2E0
S315200048C0000715F0010F1046194607D0D7E9002337
S315200048D008F1010803F0F6FB02460B4608376D1077
S315200048E0EFD1CDE90C23DDE90C23DDE9120103F03C
S315200048F013FDCDE90C011899002900F0DE8040F265
S315200049000003DDE90C010022C3F6F0734FF0000529
S3152000491003F04AFE08B14FF00105089A002AD4BFD9
S31520004920002505F00105002D00F0C780119B002B06
S3152000493040F3F58040F200030022C4F22403DDE9AF
S315200049400C0103F0BFFBCDE90C0108F10100711E3B
S31520004950129103F051FB02460B46DDE90C0103F0F0
S31520004960B1FB40F200030022C4F21C0303F0F8F965
S31520004970DDF844C08046A1F15079169B002B00F04B
S31520004980AD8349F2B83340F20001C2F200030020A1
S3152000499003EBCC03C3F6E071CDF80CC053E9022338
S315200049A003F0BAFC42464B46109D03F0D7F98046E9
S315200049B08946DDE90C0103F01FFE074603F01CFBC8
S315200049C002460B46DDE90C0103F0C8F907F1300376
S315200049D0CDE90C01404605F8013B4946DDE90C23AB
S315200049E003F000FE002840F0138240F20001DDE9CA
S315200049F00C230020C3F6F07103F0B0F902460B46F3
S31520004A004046494603F0EEFDDDF80CC0002840F094
S31520004A10E783BCF1010F40F38280CDF868B001270F
S31520004A20CDF870A01D966646DDE90CAB0C9410E01F
S31520004A3040F200010020C3F6F07103F08FF94246E0
S31520004A404B4603F0B1FD002840F0C783B74280F201
S31520004A508B8440F20003404649460022C4F22403D8
S31520004A60013503F02FFB40F200030022C4F2240399
S31520004A70804689465046594603F024FB8B4682469B
S31520004A8003F0BAFD044603F0B7FA303402460B466B
S31520004A905046594603F062F9109A4B46D455424681
S31520004AA0013782468B4603F07FFD52465B4600283F
S31520004AB0BED0DDF868B00C9CAAE1404603F09CFA13
S31520004AC0DDE90C2303F0FEFA40F200030022C4F2D3
S31520004AD01C0303F045F9089AA1F150758046A946B2
S31520004AE0002A40F0EC8240F20003DDE90C010022AE
S31520004AF0C4F2140303F032F942462B46CDE90C01E9
S31520004B0003F070FD002840F04A824246DDE90C01A0
S31520004B1005F1004303F048FD002840F0D581DDE98A
S31520004B2006891E9B6FEA03074FEAD7770E2ECCBF66
S31520004B30002707F00107002F00F0B7802B9849F2D5
S31520004B40B833C2F20003089903EBC603C20F00294B
S31520004B50CCBF002202F00102D3E90001CDE9040115
S31520004B60002A40F0A08102460B464046494603F003
S31520004B70D3FB109D03F040FD824603F03DFADDE9AC
S31520004B80042303F09FFA02460B464046494603F0AB
S31520004B90E5F80AF1300305F8013B089A012A804618
S31520004BA0894652D040F200030022C4F2240303F0C7
S31520004BB089FA00220023CDE9060103F0EBFC002848
S31520004BC040F0EB8110984FF00108CDF82CB0A346A9
S31520004BD0871C0F96DDF82090DDE906450AE003F0F4
S31520004BE071FA0022002304460D4603F0D3FC002868
S31520004BF040F0CE81DDE904232046294608F101084C
S31520004C0003F08AFB3E4603F0F7FC824603F0F4F9F4
S31520004C10DDE9042303F056FA02460B4620462946D0
S31520004C2003F09CF800220AF1300C07F801CC01377A
S31520004C30C14540F20003C4F22403D0D135465C4678
S31520004C400F9E8046DDF82CB0894642464B464046AC
S31520004C50494603F085F8804689464246DDE9040147
S31520004C604B4603F0A1FC60B9DDE9040142464B4600
S31520004C7003F090FC002800F090811AF0010F00F05C
S31520004C808C81109900E01D4615F8012C6B1E392ADF
S31520004C9040F067838B42F6D11099302301363122BA
S31520004CA00B70109B1A701296B2E0169A002A40F0EA
S31520004CB0DF80159F0F9D0C92002DD4BF002301236A
S31520004CC0BAF1000FD4BF002303F001034BB1AA456C
S31520004CD0B4BF53462B460F98C3EB0A0AED1AC01AE7
S31520004CE00F90159900291CDD169A002A00F0E982FA
S31520004CF0002F12DD0C993A46204602F0D5F95A4685
S31520004D000C9020460C9902F0E7F8594603462046B7
S31520004D10039301F04DFF039B9B46159BDA1B40F046
S31520004D2011830121204602F071F906901798002878
S31520004D3005DD06992046179A02F0B6F906902A99BB
S31520004D40012940F30A810027179B002B40F061823E
S31520004D500123534413F01F0340F02A811C230F9A8A
S31520004D609A44ED18D2180F920F9B002B05DD594659
S31520004D701A46204602F052F88346BAF1000F05DDA6
S31520004D8006995246204602F049F8069018980028BF
S31520004D9040F029822A9808990228D4BF00230123AB
S31520004DA00029CCBF002303F00103002B00F00C8167
S31520004DB0002940F08C8005220699089B204602F0A7
S31520004DC02FF906905846069901F0B8FD00287EDD99
S31520004DD0109D01360027DDF830A0312305F8013B70
S31520004DE00699204601F0E4FEBAF1000F00F0D580C6
S31520004DF03B1E18BF012357450CBF002303F00103B8
S31520004E00002B40F0D0805146204601F0D1FE12966C
S31520004E102046594601F0CCFE129A531C00222A70D5
S31520004E202C982E990360002900F0D4812E9A109890
S31520004E30156012E4102001F089F8C660466086608D
S31520004E40066006466062FFF7D2BB0F9871420022C9
S31520004E501591801B17920F908AE40021013E18912C
S31520004E6072E4DDE906234FF00208CDE9122321E59D
S31520004E702A98012840F36C82089A1598531E984266
S31520004E80C0F25882C71A089B002BA8BF0F9DC0F2FC
S31520004E9073820F9A204601219A44D2180F9202F06B
S31520004EA0B5F80C9008E7089B73B940F2000300227E
S31520004EB0C4F21403DDE9040103F004F942464B462B
S31520004EC003F086FB00286AD0002206920C922B9BC8
S31520004ED00027DDF830A0DE43109D81E700211691E2
S31520004EE02B98002840F39F812B980146119008901B
S31520004EF0656A002217296A6040F2AB8204235B00B0
S31520004F00013203F114008842F9D9089B6A600E2BFE
S31520004F108CBF002707F001079DE4012216922B9BE8
S31520004F20F3181193591C0029C8BF0891E0DC0E29FB
S31520004F308CBF002707F00107089189E40123169307
S31520004F40CEE700221692EAE74FF0FF330027012032
S31520004F501193169008932B977AE4B8F1000F7FF4FB
S31520004F60F2AE29F07F4323F47003002B7FF4EBAEDF
S31520004F7040F20003C7F6F07309EA0303002B3FF45F
S31520004F80E2AE0F9A0AF1010A012701320F92DBE6FF
S31520004F9035465C460F9EDDF82CB0129638E7002089
S31520004FA006900C9014E73946204601F001FE2AE7C8
S31520004FB0C3F12003042B40F354820F99043B9A44F7
S31520004FC0ED18C9180F91CFE61699002900F0318106
S31520004FD0002D05DD0C992A46204601F01FFF0C9076
S31520004FE0002F40F0EA81DDF830A0109D012308F063
S31520004FF001000C9F11900F951D460C960699584658
S31520005000FFF75AFA394630300B90584601F096FC95
S31520005010069952460646204601F084FEC36880461D
S31520005020002B3DD04FF001094146204601F0C0FD3E
S315200050302A9959EA010103D1119A002A00F0EB813D
S31520005040002EC0F29E812A9A324303D1119B002B57
S3152000505000F09781B9F1000F00F3CE810F990B9ADA
S3152000506001F8012B089B0F919D4200F0C281594601
S315200050700A220023204601F0D3FF574539468346AE
S3152000508014D00A2200232046013501F0C9FF5146DB
S315200050900A2200230746204601F0C2FF8246ADE7DA
S315200050A05846414601F04AFC8146BDE720460A2281
S315200050B00023013501F0B4FF074682469EE712968B
S315200050C0DDF820C059E47542002D40F00181DDE96C
S315200050D006014FF00208CDE90C010CE449F2B83183
S315200050E04246C2F200014B4601EBCC01CDF80CC082
S315200050F0109D51E9020102F0E5FFCDE91A01DDE933
S315200051000C0103F079FA074602F076FF0B460246B9
S31520005110DDE90C0102F022FE07F13003CDE90C0196
S3152000512005F8013BDDF80CC0BCF1010F29D0D146B2
S31520005130DDE90C01B246109E1C9501276546A04666
S3152000514040F200030022C4F2240302F0BBFFCDE9A3
S315200051500C0103F051FA044602F04EFF30340246A9
S315200051600B46DDE90C0102F0F9FDF4550137AF429B
S31520005170E6D11C9D013F56464446CA46ED19CDE967
S315200051800C0140F200030022C3F6E073DDE91A01A8
S3152000519002F0E6FD02460B46DDE90C0103F022FA99
S315200051A0F0B940F20001DDE91A230020C3F6E071D0
S315200051B002F0D4FD02460B46DDE90C0103F0F4F9BA
S315200051C000283FF4ACAC2B461D4613F8012D302A9F
S315200051D0FAD01DE61098FFF740BADDF868B00C9CAF
S315200051E0129E109950E55846069901F0A7FB002813
S315200051F0BFF6D0AD594620460A22002301F010FF03
S315200052001699013E8346002940F01981119A089289
S31520005210C0E50698036900EB8303186901F03CFB9F
S31520005220C0F1200395E50121119108912B91FFF7FB
S315200052300FBB109DB146169FAA46DDF81880089E22
S3152000524002E001F0EDFE834641465846FFF734F969
S3152000525001350A220023594600F1300C0AF807C00E
S3152000526001372046BE42ECDCDDF830A04E46002752
S31520005270CDF82CC059460122204601F0CFFD0699D3
S31520005280834601F05BFB00280FDD109900E01D46E8
S3152000529015F8012C6B1E392A40F08C808B42F6D1F2
S315200052A01099312301360B709AE503D10B9810F033
S315200052B0010FEAD12B461D4613F8012D302AFAD0CC
S315200052C08EE55946159A204601F0EEFE834628E5DE
S315200052D005F00F0349F2B832C2F20002DDE90601F9
S315200052E002EBC303D3E9002302F0ECFE2D1108BF25
S315200052F04FF00208CDE90C013FF4FDAA49F2904790
S31520005300DDE90C234FF00208C2F2000715F0010F69
S315200053101046194607D0D7E9002308F1010802F004
S31520005320D1FE02460B4608376D10EFD1CDE90C238E
S31520005330FFF7E1BA1599179A5B1AC918D218159171
S315200053401792A0E55946204601F0AEFE8346E8E4D2
S315200053501999002947D003F58663159F03330F9DBE
S3152000536097E50132D2B29DE4DDF868B0DDF870A091
S315200053701D9E0C9CFFF7D3BB0F99002308980D1A8E
S3152000538087E5B9F1000F0F9D0C9E0FDD59460122CE
S31520005390204601F043FD0699834601F0CFFA002806
S315200053A047DD0B99392931D001310B910B9A05F83C
S315200053B0012B15E501321A7012E50C9A2046516828
S315200053C001F012FC0C9B03F10C011A6902329200C7
S315200053D005460C3001F0CEF820462946012201F080
S315200053E01DFD824601E61F9B159F0F9DC3F13603C7
S315200053F04FE50F9D0C9E3DE70B9B0F9D392B0C9E79
S3152000540004D00B98431C05F8013BE9E4392305F841
S31520005410013B10993CE70B9833460F9D39280C9E8B
S31520005420F4D0002B01DD01300B900B9905F8011B00
S31520005430D6E4BBD10B9810F0010FB7D0B1E700230B
S315200054400C9920460A2201F0EBFD119B08930C9043
S31520005450A0E408990E298CBF002707F00107FFF763
S31520005460FAB93FF481AC1C3379E40127FFF78AB9F6
S315200054700B692DE9F0410C468046002B71D010B106
S315200054808369002B78D049F21433C2F200039C4280
S3152000549008BFD8F8044010D049F23433C2F20003D2
S315200054A09C4208BFD8F8084007D049F25433C2F2CC
S315200054B000039C4208BFD8F80C40A3891AB212F008
S315200054C0080F35D1626843F40063A381002A5EDDAC
S315200054D0E66A002E45D09BB213F4805218BF656D44
S315200054E059D013F0040F4AD100234046216A2A4698
