:020000042000DA
:100000000000012099020020090300200B030020BA
:100010000D0300200F03002011030020000000004A
:10002000000000000000000000000000130300209A
:100030001503002000000000170300201903002012
:100040001B0300201D0300201F03002021030020AC
:10005000230300202503002027030020290300207C
:100060002B0300202D03002011290020412900200E
:10007000330300203503002037030020390300201C
:100080003B0300203D0300203F03002041030020EC
:1000900043030020450300204703002049030020BC
:1000A0004B030020000000000000000000000000E2
:1000B0000000000000000000000000004D030020D0
:1000C0007915002039170020151900206519002026
:1000D00091190020BD1900205B0300205D03002062
:1000E0005F030020610300206303002065030020FC
:1000F00067030020690300206B0300206D030020CC
:100100006F0300207103002073030020750300209B
:1001100077030020790300207B0300207D0300206B
:100120007F0300208103002083030020850300203B
:1001300087030020890300208B0300208D0300200B
:100140008F030020910300209303002095030020DB
:1001500097030020990300209B0300209D030020AB
:100160009F030020A1030020A3030020A50300207B
:10017000A7030020A9030020AB030020AD0300204B
:10018000AF030020B1030020B3030020B50300201B
:10019000B7030020B9030020BB030020BD030020EB
:1001A000BF030020C1030020C3030020C5030020BB
:1001B000C7030020C9030020CB030020CD0300208B
:1001C000CF030020D1030020D3030020D50300205B
:1001D000D7030020D9030020DB030020DD0300202B
:1001E000DF030020E1030020E3030020E5030020FB
:1001F000E7030020E9030020EB030020ED030020CB
:10020000EF030020F1030020F3030020F50300209A
:10021000F7030020F9030020FB030020FD0300206A
:10022000FF03002001040020030400200504002037
:1002300007040020090400200B0400200D04002006
:100240000F040020110400201304002015040020D6
:1002500017040020190400201B0400201D040020A6
:100260001F04002021040020230400202504002076
:1002700027040020290400202B0400202D04002046
:100280002F04002031040020330400203504002016
:100290003704002039040020684880476848002857
:1002A0000BD168486849694A884206D091421CBF10
:1002B00050F8043B41F8043BF8D165486549664A6B
:1002C000884206D091421CBF50F8043B41F8043BE1
:1002D000F8D162486249634A914218BF41F8040B61
:1002E000FAD1000000000000000000000000000043
:1002F000DFF874010FF2030E00474FF000004FF0DB
:100300000001DFF868F1FEE7FEE7FEE7FEE7FEE743
:10031000FEE7FEE7FEE7FEE7FEE7FEE7FEE7FEE7B5
:10032000FEE7FEE7FEE7FEE7FEE7FEE7FEE7FEE7A5
:10033000FEE7FEE7FEE7FEE7FEE7FEE7FEE7FEE795
:10034000FEE7FEE7FEE7FEE7FEE7FEE7FEE7FEE785
:10035000FEE7FEE7FEE7FEE7FEE7FEE7FEE7FEE775
:10036000FEE7FEE7FEE7FEE7FEE7FEE7FEE7FEE765
:10037000FEE7FEE7FEE7FEE7FEE7FEE7FEE7FEE755
:10038000FEE7FEE7FEE7FEE7FEE7FEE7FEE7FEE745
:10039000FEE7FEE7FEE7FEE7FEE7FEE7FEE7FEE735
:1003A000FEE7FEE7FEE7FEE7FEE7FEE7FEE7FEE725
:1003B000FEE7FEE7FEE7FEE7FEE7FEE7FEE7FEE715
:1003C000FEE7FEE7FEE7FEE7FEE7FEE7FEE7FEE705
:1003D000FEE7FEE7FEE7FEE7FEE7FEE7FEE7FEE7F5
:1003E000FEE7FEE7FEE7FEE7FEE7FEE7FEE7FEE7E5
:1003F000FEE7FEE7FEE7FEE7FEE7FEE7FEE7FEE7D5
:10040000FEE7FEE7FEE7FEE7FEE7FEE7FEE7FEE7C4
:10041000FEE7FEE7FEE7FEE7FEE7FEE7FEE7FEE7B4
:10042000FEE7FEE7FEE7FEE7FEE7FEE7FEE7FEE7A4
:10043000FEE7FEE7FEE7FEE7FEE70000912F002063
:1004400000000000000000200000002030A7002075
:1004500030A7002030A7002050B800200000000086
:1004600050B80020F8BF00206D310020D1050020D9
:100470004BF65003C2F200031A780AB90120187033
:10048000704700BF4AF23070C2F2000008B503683E
:100490002BB140F20003C0F2000303B1984708BD3E
:1004A00080B584B000AF78604BF69003C2F20003D1
:1004B0007A681A604FF07C033B734FF007037B733D
:1004C0004FF03603BB734BF69003C2F200031A6879
:1004D00007F10C03104619464FF0030202F000FC2E
:1004E00007F11007BD4680BD80B586B000AF7860CB
:1004F00013460A46FA70BB704FF07C033B744FF012
:1005000018037B74FB78BB74BB78C3F17F03DBB249
:100510004FF07C023A734FF019027A73BB737B6819
:100520007B614FF00003BB6007E0BB6803F1010390
:10053000BB607B6903F101037B617B691B78DBB2E4
:10054000002BF2D14BF69003C2F200031A6807F1B8
:100550001003104619464FF0030202F0C1FB4BF6A0
:100560009003C2F200031A6807F10C031046194603
:100570004FF0030202F0B4FB4BF69003C2F200030B
:100580001A68BB6803F10103104679681A4602F045
:10059000A7FB07F11807BD4680BD00BF80B582B03C
:1005A00000AF4FF07C033B714FF000037B714BF6C3
:1005B0009003C2F200031A6807F1040310461946BB
:1005C0004FF0020202F08CFB07F10807BD4680BD28
:1005D00080B500AF01F008FAFEE700BF80B483B039
:1005E00000AF786039604BF64473C2F200037A685A
:1005F0001A604BF64073C2F200033A681A604BF679
:100600003C73C2F200034BF69802C2F200021A6079
:100610004BF69403C2F200034FF000021A704BF63F
:100620009803C2F2000349F62432C2F200021A60B3
:100630004BF69803C2F200034FF004021A714BF616
:100640009803C2F200034FF000029A614BF6980340
:10065000C2F20003DC4ADA614BF69803C2F20003EF
:10066000DA4A1A624BF69803C2F20003D84A5A6279
:100670004BF69803C2F20003D64A9A624BF69803EF
:10068000C2F2000349F63032C2F200025A644BF65D
:100690009803C2F200034FF0030283F848204BF6A0
:1006A0009803C2F20003CC4A1A664BF69803C2F2D2
:1006B0000003CA4A5A664BF69803C2F20003C84ABE
:1006C0009A664BF69803C2F200034BF69802C2F208
:1006D0000002DA654BF69803C2F2000349F63C3299
:1006E000C2F20002C3F888204BF69803C2F200035E
:1006F0004FF0020283F88C204BF69803C2F20003FD
:10070000B84AC3F8A4204BF69803C2F20003B64AD5
:10071000C3F8A8204BF69803C2F200034BF69802E8
:10072000C2F20002C3F8A0204BF69803C2F2000305
:1007300049F64C32C2F20002C3F8CC204BF69803C3
:10074000C2F200034FF0030283F8D0204BF6980367
:10075000C2F20003A54AC3F8E8204BF69803C2F2A0
:100760000003A34AC3F8EC204BF69803C2F200033F
:10077000A04AC3F8F0204BF69803C2F20003924A55
:10078000C3F8E4204BF69803C2F2000349F6EC22CA
:10079000C2F20002C3F8D8254BF69803C2F2000358
:1007A0004FF0000283F8DC254BF69803C2F20003F9
:1007B0004FF0020283F8DD254BF69803C2F20003E6
:1007C0004FF0000283F8DE254BF69803C2F20003D7
:1007D0007D4AC3F8F0254BF69803C2F2000349F6B0
:1007E000F822C2F20002C3F81C264BF69803C2F2AC
:1007F00000034FF0000283F820264BF69803C2F264
:1008000000034FF0020283F821264BF69803C2F250
:1008100000034FF0010283F8DE254BF69803C2F285
:100820000003694AC3F834264BF69803C2F200036A
:1008300049F60032C2F20002C3F860264BF6980374
:10084000C2F200034FF0000283F864264BF69803CF
:10085000C2F200034FF0020283F865264BF69803BC
:10086000C2F200034FF0020283F8DE254BF6980334
:10087000C2F20003544AC3F878264BF69803C2F23A
:10088000000349F65C32C2F20002C3F864224BF660
:100890009803C2F200034FF0000283F868224BF67F
:1008A0009803C2F200034FF0000283F869224BF66E
:1008B0004473C2F200031B6803F10C024BF6980369
:1008C000C2F20003C3F86C224BF69803C2F2000395
:1008D0003D4AC3F87C224BF69803C2F2000341F272
:1008E0007D22C2F20002C3F878224BF69803C2F2CE
:1008F000000349F66832C2F20002C3F8A8224BF6A0
:100900009803C2F200034FF0000283F8AC224BF6CA
:100910009803C2F200034FF0000283F8AD224BF6B9
:100920004473C2F200031B6803F10D024BF69803F7
:10093000C2F20003C3F8B0224BF69803C2F20003E0
:10094000214AC3F8C0224BF69803C2F2000341F2D9
:100950007D22C2F20002C3F8BC224BF69803C2F219
:10096000000349F67432C2F20002C3F8DC214BF6F0
:100970009803C2F200034FF0000283F8E0214BF627
:100980009803C2F200034FF0000283F8E1214BF616
:100990004473C2F200031B6803F10A024BF698038A
:1009A000C2F20003C3F8E4214BF69803C2F200033D
:1009B000064AC3F8F4214BF69803C2F2000341F251
:1009C0007D22C2F2000217E0DCB8002020B900202E
:1009D00084BB002050BC002064B90020FCBA002079
:1009E00040BB002074BA0020B8BA002070BE0020BE
:1009F000B4BE0020F8BE0020C3F8F0214BF69803E7
:100A0000C2F2000349F68032C2F20002C3F820228B
:100A10004BF69803C2F200034FF0000283F8242241
:100A20004BF69803C2F200034FF0000283F8252230
:100A30004BF64473C2F200031B6803F10B024BF642
:100A40009803C2F20003C3F828224BF69803C2F2BF
:100A50000003E54AC3F838224BF69803C2F20003BC
:100A600041F27D22C2F20002C3F834224BF6980311
:100A7000C2F2000349F68C32C2F20002C3F8EC2243
:100A80004BF69803C2F200034FF0020283F8F02203
:100A90004BF69803C2F20003D44AC3F808234BF67E
:100AA0009803C2F20003D24AC3F80C234BF6980312
:100AB000C2F200034BF69802C2F20002C3F804230C
:100AC0004BF69803C2F2000349F69832C2F20002D4
:100AD000C3F830234BF69803C2F200034FF0000234
:100AE00083F834234BF69803C2F200034FF001025F
:100AF00083F835234BF64473C2F200031B6803F1FD
:100B000008024BF69803C2F20003C3F83C234BF6ED
:100B10009803C2F20003B74AC3F848234BF6980380
:100B2000C2F2000341F2A522C2F20002C3F844233C
:100B30004BF69803C2F2000349F6A832C2F2000253
:100B4000C3F874234BF69803C2F200034FF000027F
:100B500083F878234BF69803C2F200034FF00102AA
:100B600083F879234BF64473C2F200031B6803F148
:100B700009024BF69803C2F20003C3F880234BF638
:100B80009803C2F200039B4AC3F88C234BF69803E8
:100B9000C2F2000341F2A522C2F20002C3F8882388
:100BA0004BF69803C2F2000349F6B832C2F20002D3
:100BB000C3F8B8234BF69803C2F200034FF00702C4
:100BC00083F8BC234BF69803C2F200038A4AC3F8A9
:100BD000D4234BF69803C2F20003884AC3F8D82303
:100BE0004BF69803C2F20003854AC3F8DC234BF6A8
:100BF0009803C2F20003834AC3F8E0234BF698033C
:100C0000C2F20003804AC3F8E4234BF69803C2F211
:100C100000037E4AC3F8E8234BF69803C2F20003B0
:100C20007B4AC3F8EC234BF69803C2F200034BF661
:100C30009802C2F20002C3F8D0234BF69803C2F226
:100C4000000349F6C432C2F20002C3F8FC234BF69B
:100C50009803C2F200034FF0000283F800244BF621
:100C60009803C2F200034FF0000283F801244BF610
:100C70004473C2F200031B681A464BF69803C2F293
:100C80000003C3F804244BF69803C2F20003614A40
:100C9000C3F814244BF69803C2F2000341F27D22FC
:100CA000C2F20002C3F810244BF69803C2F200030C
:100CB00049F6D032C2F20002C3F840244BF6980342
:100CC000C2F200034FF0000283F844244BF698036D
:100CD000C2F200034FF0000283F845244BF6447340
:100CE000C2F200031B6803F101024BF69803C2F243
:100CF0000003C3F848244BF69803C2F20003454AA8
:100D0000C3F858244BF69803C2F2000341F27D2247
:100D1000C2F20002C3F854244BF69803C2F2000357
:100D200049F6DC32C2F20002C3F884244BF6980381
:100D3000C2F200034FF0000283F888244BF69803B8
:100D4000C2F200034FF0000283F889244BF644738B
:100D5000C2F200031B6803F102024BF69803C2F2D1
:100D60000003C3F88C244BF69803C2F20003294A0F
:100D7000C3F89C244BF69803C2F2000341F27D2293
:100D8000C2F20002C3F898244BF69803C2F20003A3
:100D900049F6E832C2F20002C3F8C8244BF69803C1
:100DA000C2F200034FF0000283F8CC244BF6980304
:100DB000C2F200034FF0000283F8CD244BF64473D7
:100DC000C2F200031B6803F103024BF69803C2F260
:100DD0000003C3F8D0244BF69803C2F200030D4A77
:100DE000C3F8E02418E000BF20B90020C8BB0020F1
:100DF0000CBC002084BB002094BC0020D8BC002088
:100E00001CBD002060BD0020A4BD0020E8BD002066
:100E10002CBE002050BC00204BF69803C2F2000309
:100E200041F27D22C2F20002C3F8DC244BF69803A3
:100E3000C2F2000349F6F432C2F20002C3F80C25F4
:100E40004BF69803C2F200034FF0000283F810251E
:100E50004BF69803C2F200034FF0000283F811250D
:100E60004BF64473C2F200031B6803F104024BF615
:100E70009803C2F20003C3F814254BF69803C2F29C
:100E80000003414AC3F824254BF69803C2F200033D
:100E900041F27D22C2F20002C3F820254BF69803EE
:100EA000C2F2000349F60042C2F20002C3F8502524
:100EB0004BF69803C2F200034FF0000283F854256A
:100EC0004BF69803C2F200034FF0000283F8552559
:100ED0004BF64473C2F200031B6803F105024BF6A4
:100EE0009803C2F20003C3F858254BF69803C2F2E8
:100EF0000003254AC3F868254BF69803C2F20003A5
:100F000041F27D22C2F20002C3F864254BF6980339
:100F1000C2F2000349F60C42C2F20002C3F8942563
:100F20004BF69803C2F200034FF0000283F89825B5
:100F30004BF69803C2F200034FF0000283F89925A4
:100F40004BF64473C2F200031B6803F106024BF632
:100F50009803C2F20003C3F89C254BF69803C2F233
:100F60000003094AC3F8AC254BF69803C2F200030C
:100F700041F27D22C2F20002C3F8A82507F10C0756
:100F8000BD4680BC704700BF50BC002080B582B019
:100F900000AFFFF703FB4BF69403C2F200031B788C
:100FA00003F10103DBB21A464FEA420213444FEA4F
:100FB0008303DBB249F61440C2F200004FF0000197
:100FC0001A46FFF791FA4BF63C73C2F200031B6816
:100FD0001B6818464FF00A014FF00002FFF784FA31
:100FE0004FF00003FB7048E04BF63C73C2F2000385
:100FF0001A68FB78DBB203F106034FEA830313445C
:101000005B687B607B681A68FB78DBB203F10103E5
:10101000DBB219464FEA41010B444FEA8303DBB2CE
:1010200010464FF00F011A46FFF75EFA7B681B79F6
:10103000DBB2002B1BD17B685B79DBB2022B16D0B5
:101040007B685B69786898470246FB78DBB203F1FE
:101050000103DBB219464FEA41010B444FEA830317
:10106000DBB210464FF078011A46FFF73DFAFB78E5
:10107000DBB203F10103DBB2FB704BF63C73C2F24F
:1010800000031B681A79FB78DBB29A42ACD807F1EF
:101090000807BD4680BD00BF80B582B000AF786054
:1010A0004BF63C73C2F200037A681A604BF6940365
:1010B000C2F200034FF000021A704BF63C73C2F20A
:1010C00000031B681846FFF761FF07F10807BD46DC
:1010D00080BD00BF80B500AF4BF69403C2F20003A1
:1010E0001B781A464BF63C73C2F200031B681B794F
:1010F00003F1FF339A423CDA4BF69403C2F2000349
:101100001B7803F10103DBB21A464FEA4202134493
:101110004FEA8303DBB249F61840C2F200004FF0F9
:1011200000011A46FFF7E0F94BF69403C2F2000300
:101130001B7803F10103DAB24BF69403C2F2000309
:101140001A704BF69403C2F200031B7803F10103FB
:10115000DBB21A464FEA420213444FEA8303DBB282
:1011600049F61440C2F200004FF000011A46FFF7A2
:10117000BBF980BD80B500AF4BF69403C2F200030B
:101180001B78002B3CD04BF69403C2F200031B7873
:1011900003F10103DBB21A464FEA420213444FEA5D
:1011A0008303DBB249F61840C2F200004FF00001A1
:1011B0001A46FFF799F94BF69403C2F200031B7825
:1011C00003F1FF33DAB24BF69403C2F200031A7054
:1011D0004BF69403C2F200031B7803F10103DBB268
:1011E0001A464FEA420213444FEA8303DBB249F640
:1011F0001440C2F200004FF000011A46FFF774F9E4
:1012000080BD00BF80B582B000AF4BF63C73C2F228
:1012100000031A684BF69403C2F200031B7803F133
:1012200006034FEA830313445B687B607B681B798A
:10123000002B1BD17B685B79022B0DD14BF64473DD
:10124000C2F200031B687A6892791A767B689B6900
:101250001846FFF721FF0CE0786800F037F84BF6EE
:101260003C73C2F200037A681A6002E07868FFF704
:1012700013FF07F10807BD4680BD00BF80B483B0EF
:1012800000AF78607B689B681B781A464AF234731B
:10129000C2F2000353F82230184607F10C07BD468E
:1012A00080BC704780B483B000AF78607B68DB6837
:1012B0001B781A464AF63413C2F2000353F8223060
:1012C000184607F10C07BD4680BC704780B582B058
:1012D00000AF78604BF64073C2F200031B684FF01A
:1012E0000102DA714BF64073C2F200031B687A68A0
:1012F00052791A727B685B79002B08D14BF64473E4
:10130000C2F200031B687A6892681A610BE07B687E
:101310005B79012B07D14BF64473C2F200031B68C3
:101320007A68D2685A617B685B79184600F024F8C5
:1013300007F10807BD4680BD80B400AF4BF63C7393
:10134000C2F200031B689B69002B02D14FF001031E
:1013500001E04FF000031846BD4680BC704700BF57
:1013600080B500AF4BF63C73C2F200031B689B696B
:101370001846FFF791FE80BD80B582B000AF0346EE
:10138000FB71FFF70BF9FB79002B0AD149F61C40E2
:10139000C2F200004FF000014FF00002FFF7A4F886
:1013A00009E049F63840C2F200004FF000014FF06A
:1013B0000002FFF799F807F10807BD4680BD00BF9E
:1013C00080B483B000AF78604BF64873C2F200037C
:1013D0007A681A6007F10C07BD4680BC704700BFF1
:1013E00080B582B000AF786039604BF64873C2F2C6
:1013F00000031B68184679683A6801F071FC07F130
:101400000807BD4680BD00BF80B584B000AF13465D
:101410000246FA710A46BA717B717B79DBB203F03E
:101420000F036FEA030303F06F036FEA0303DBB2FA
:10143000DBB23B73FB797B73BB79BB7307F10C03A6
:1014400018464FF00301FFF7CBFF07F11007BD4629
:1014500080BD00BF80B584B000AF13460246FA716C
:101460000A46BA717B717B79DBB203F00F036FEA36
:1014700043636FEA5363DBB2DBB23B73FB797B738D
:10148000BB79BB7307F10C0318464FF00301FFF75C
:10149000A7FF07F11007BD4680BD00BF80B584B02F
:1014A00000AF02460B46FA807B717B79DBB203F01A
:1014B0000F036FEAC3636FEAD363DBB2D9B2FB8871
:1014C000DBB21A4602F07F02FB88DBB203F03F0377
:1014D00039737A73BB7307F10C0318464FF003019D
:1014E000FFF77EFF07F11007BD4680BD80B483B0D3
:1014F00000AF0346FB804EF20013CEF20003B7F9B3
:1015000006204FEA5212F98801F01F014FF0010046
:1015100000FA01F143F8221007F10C07BD4680BC28
:10152000704700BF80B483B000AF0346FB804EF22B
:101530000013CEF20003B7F906204FEA5212F988E1
:1015400001F01F014FF0010000FA01F102F1600209
:1015500043F8221007F10C07BD4680BC704700BF5E
:1015600080B400AF43F20003C4F20103D3F8843027
:101570001846BD4680BC7047684620F007018D467E
:1015800081B5ADF5037D00AF4FF0000387F807325A
:10159000B9E007F104034BF67C70C2F20000194673
:1015A0004FF4007201F010FB034687F8073297F8FA
:1015B0000732002B00F0A7803B464FF000021A6074
:1015C0009AE04BF69073C2F200031B78012B1DD1F9
:1015D0003B461B6807F10402D35CFF2B2CD14BF672
:1015E0009073C2F200039B68062B07D04BF69073F2
:1015F000C2F200034FF000021A701EE04BF6907327
:10160000C2F200034FF000029A6016E03B461B68EE
:1016100007F10402D35CFF2B0FD14BF69073C2F29B
:1016200000034FF000029A604BF69073C2F2000381
:101630004FF001021A7000E000BF4BF69073C2F247
:1016400000039A683B461B6807F10401C95C4BF62E
:101650009073C2F200031344597002F101024BF679
:101660009073C2F200039A604BF69073C2F20003CB
:101670001B78012B3AD14BF69073C2F200039B68A2
:10168000062B33D14BF69073C2F200039A784BF6D7
:101690008473C2F200035A704BF69073C2F20003D7
:1016A000DA784BF68473C2F200039A704BF69073AB
:1016B000C2F200031A794BF68473C2F20003DA70A7
:1016C0004BF69073C2F200035A794BF68473C2F260
:1016D00000031A714BF69073C2F200039A794BF62D
:1016E0008473C2F200035A7100F00EFC3B461B6883
:1016F00003F101023B461A6097F807223B461B683C
:101700009A423FF75EAFFFF72BFF034603F001035A
:10171000DBB2002B7FF43DAF4FF0000001F030FA58
:101720004FF02000FFF7FEFE07F50377BD46BDE84A
:1017300081408546704700BF684620F007018D460E
:1017400081B5ADF5037D00AF4FF0000387F8073298
:10175000C3E007F104034BF69C70C2F20000194687
:101760004FF4007201F030FA034687F8073297F819
:101770000732002B00F0B1803B464FF000021A60A8
:10178000A4E04BF64C73C2F200035B68022B0DDD44
:101790004BF64C73C2F200034FF000021A704BF686
:1017A0004C73C2F200034FF000025A604BF64C73C8
:1017B000C2F200031B78012B2ED13B461B6807F1B8
:1017C0000402D35C4FEAD313DBB2012B4BD13B466F
:1017D0001B6807F10402D35C03F00F024BF654734D
:1017E000C2F200035B7E9A423FD14BF64C73C2F2C9
:1017F00000035B68032B07D04BF64C73C2F2000367
:101800004FF000021A7031E04BF64C73C2F2000345
:101810004FF000025A6029E03B461B6807F10402C2
:10182000D35C4FEAD313DBB2012B1FD13B461B68BD
:1018300007F10402D35C03F00F024BF65473C2F2BB
:1018400000035B7E9A4211D14BF64C73C2F2000347
:101850004FF000025A604BF64C73C2F200034FF097
:1018600001021A7002E000BF00E000BF4BF64C73AB
:10187000C2F200035A683B461B6807F10401C95CC9
:101880004BF64C73C2F200031344597002F101028B
:101890004BF64C73C2F200035A604BF64C73C2F223
:1018A00000031B78012B0BD14BF64C73C2F20003E3
:1018B0005B68032B04D116484FF0030100F050FA87
:1018C0003B461B6803F101023B461A6097F807226A
:1018D0003B461B689A423FF754AFFFF741FE034671
:1018E0004FEA530303F00103DBB2002B7FF431AF67
:1018F0004FF0010001F044F94FF02100FFF712FE14
:1019000007F50377BD46BDE881408546704700BFB7
:101910004DBF0020684620F007018D4681B583B099
:1019200000AFFFF71DFE03464FEA9303DBB203F05F
:101930000103FB71FB79012B02D100F04FFB01E0A9
:1019400000F0D4FB4FF0020001F01AF94FF0220032
:10195000FFF7E8FD07F10C07BD46BDE8814085466D
:10196000704700BF684620F007018D4689B500AF7B
:1019700000F026FC4FF0030001F002F94FF02300C5
:10198000FFF7D0FDBD46BDE889408546704700BFE2
:10199000684620F007018D4689B500AF00F044FC91
:1019A0004FF0040001F0ECF84FF02400FFF7BAFD0F
:1019B000BD46BDE889408546704700BF684620F0B7
:1019C00007018D4689B500AF00F0BAFB4FF0050066
:1019D00001F0D6F84FF02500FFF7A4FDBD46BDE8A5
:1019E00089408546704700BF80B582B000AF4AF29B
:1019F0007C20C2F2000001F0E1FB4AF29C20C2F21E
:101A0000000001F0DBFB4AF2AC20C2F2000001F062
:101A1000D5FB4AF2BC20C2F2000001F0CFFB4AF233
:101A2000D020C2F2000001F0C9FB4BF68473C2F271
:101A300000034FF00002DA714BF68473C2F2000328
:101A40004FF000025A724BF69073C2F200034FF04F
:101A500000021A704BF69073C2F200034FF00002BE
:101A60009A604FF000033B600CE03A684BF69073CD
:101A7000C2F2000313444FF000025A703B6803F1B6
:101A800001033B603B68052BEFDD4BF64C73C2F264
:101A900000034FF000021A704BF64C73C2F20003C1
:101AA0004FF000025A604FF000033B600CE03A68D0
:101AB0004BF64C73C2F2000313444FF000025A700D
:101AC0003B6803F101033B603B68022BEFDD4BF603
:101AD0005473C2F200034FF000021A704BF65473B5
:101AE000C2F200034FF001025A704BF65473C2F277
:101AF00000034FF002029A704BF65473C2F20003D7
:101B00004FF00302DA704BF65473C2F200034FF049
:101B100004021A714BF65473C2F200034FF005022F
:101B20005A714BF65473C2F200034FF006029A71D9
:101B30004BF68473C2F200034FF000025A714BF669
:101B40005473C2F200034FF00002DA714BF6547383
:101B5000C2F200034FF00A021A724BF65473C2F23B
:101B600000034FF05A025A724BF65473C2F200034C
:101B70004FF018029A724BF65473C2F200034FF002
:101B80001902DA724BF65473C2F200034FF03002BE
:101B90001A734BF65473C2F200034FF03C025A73AF
:101BA0004BF65473C2F200034FF000021A764BF664
:101BB0005473C2F200034FF000025A764BF654738E
:101BC000C2F200034FF000029A764BF65473C2F251
:101BD00000034FF00002DA764BF65473C2F20003B2
:101BE0006FF001021A774BF65473C2F200034FF004
:101BF00000025A774BF65473C2F200034FF07F0293
:101C00009A7746F21003C4F200037B607A6845F2CB
:101C1000FA53C4F66E4313604AF2E820C2F20000A1
:101C200001F0CCFA00F04CFF4BF67C70C2F20000E1
:101C300040F20001C4F205014FF035024FF00103FC
:101C400001F0C0F84BF69C70C2F2000040F20011A7
:101C5000C4F205014FF0C7024FF0010301F0B2F8E2
:101C60004BF69C70C2F20000FFF7AAFB4BF67470B3
:101C7000C2F2000040F20021C4F205014FF035022B
:101C80004FF0010301F09EF84BF67470C2F20000B1
:101C9000FEF706FC4FF000004FF0420100F040FF5D
:101CA0004FF0000000F048FF4FF02000FFF71EFC4F
:101CB0004FF001004FF0420100F032FF4FF0010001
:101CC00000F03AFF4FF02100FFF710FC4FF0020048
:101CD0004FF0820100F024FF4FF0020000F02CFFD3
:101CE0004FF02200FFF702FC4FF003004FF04201DB
:101CF00000F016FF4FF0030000F01EFF4FF023002E
:101D0000FFF7F4FB4FF004004FF0420100F008FF32
:101D10004FF0040000F010FF4FF02400FFF7E6FB47
:101D20004FF005004FF0420100F0FAFE4FF00500C1
:101D300000F002FF4FF02500FFF7D8FB4BF6547080
:101D4000C2F200004BF68471C2F20001FEF746FCBD
:101D50004FF0000000F0BEFA07F10807BD4680BD55
:101D600080B584B000AF78600B467B807B681B78C1
:101D7000902B3BD14BF68473C2F200031B78012BEE
:101D800012D17B6803F101031B78184600F098F824
:101D90000346FB73FB7B062B46D8FB7B184600F003
:101DA0004DF800F091FB44E04BF68473C2F200035F
:101DB000DB79012B3AD14BF68473C2F200031B7A14
:101DC000002B35D14BF65473C2F200031B697A68BD
:101DD00002F1010212781A704BF68473C2F200030A
:101DE0004FF00002DA71FFF7BBFA22E07B681B7844
:101DF000802B1ED14BF68473C2F200031B78012B9B
:101E000017D17B6803F101031B78184600F058F8DE
:101E10000346FB73FB7B062B0BD8FB7B184600F0BD
:101E20002DF800F051FB04E000BF02E000BF00E02D
:101E300000BF07F11007BD4680BD00BF80B483B06E
:101E400000AF0346FB714BF68473C2F200039B792B
:101E50001A46FB794FF0010101FA03F3DBB242EAC3
:101E60000303DBB2DAB24BF68473C2F200039A7159
:101E700007F10C07BD4680BC704700BF80B483B03B
:101E800000AF0346FB714BF68473C2F200039B79EB
:101E90001A46FB794FF0010101FA03F3DBB26FEA56
:101EA0000303DBB202EA0303DBB2DAB24BF684735C
:101EB000C2F200039A7107F10C07BD4680BC70475F
:101EC00080B485B000AF0346FB714FF00003FB60A8
:101ED0000FE0FA684BF65473C2F200039B5CFA7988
:101EE0009A4202D1FB68DBB208E0FB6803F1010310
:101EF000FB60FB68062BECDD4FF0FF03184607F193
:101F00001407BD4680BC704780B584B002AF4BF665
:101F10008473C2F200035B7819464BF68473C2F2F5
:101F200000039B781A464BF68473C2F20003DB78F9
:101F30004AF20430C2F2000001F040F94BF684731B
:101F4000C2F200031B794AF21C30C2F200001946AB
:101F500001F034F94BF68473C2F200035B794AF264
:101F60002830C2F20000194601F028F94BF68473BC
:101F7000C2F200031B78012B2BD14BF68473C2F203
:101F8000000358784BF65473C2F20003D97E4BF627
:101F90005473C2F200031A7F4BF65473C2F200036B
:101FA00093F81DC04BF65473C2F200039B7F00935D
:101FB000634600F06DF90346FB71FA794BF65473F2
:101FC000C2F200039B7E10461946FFF767FA00F045
:101FD0007BFA07F10807BD4680BD00BF80B584B01D
:101FE00002AF4BF68473C2F200031B78012B52D16F
:101FF0004BF68473C2F200035B7A012B0FD14BF6D0
:102000008473C2F200039A7A4BF65473C2F200034F
:102010009B7E10464FF047011A46FFF71BFA4BF61E
:102020008473C2F2000358794BF65473C2F2000372
:10203000197A4BF65473C2F200035A7A4BF6547372
:10204000C2F2000393F80CC04BF65473C2F20003C3
:102050005B7B0093634600F01BF90346FB714BF674
:102060008473C2F20003FA799A724BF68473C2F257
:1020700000034FF001025A724BF65473C2F2000390
:102080009B7EFA7910464FF047011A46FFF7BCF9DC
:1020900000F01AFA26E04BF68473C2F20003DB79F3
:1020A000012B1BD14BF68473C2F200031B7A012B68
:1020B00017D14BF65473C2F200035A694BF684737E
:1020C000C2F200035B7913704BF68473C2F2000313
:1020D0004FF00002DA71FFF743F903E0FFF792F8DF
:1020E00000E000BF07F10807BD4680BD80B500AF26
:1020F0004BF68473C2F200031B78012B1FD14BF601
:102100008473C2F200035B7A012B18D14BF68473FF
:10211000C2F200034FF000025A724BF68473C2F20F
:1021200000039A7A4BF65473C2F200039B7E10466A
:102130004FF047011A46FFF78DF900F0C5F980BD51
:1021400080B500AF4BF68473C2F200031B78012BFD
:1021500022D14BF68473C2F200035B7A012B16D1B5
:102160004BF68473C2F200034FF000025A724BF632
:102170008473C2F200039A7A4BF65473C2F20003DE
:102180009B7E10464FF047011A46FFF763F94FF068
:10219000000000F09FF812E04BF68473C2F20003D7
:1021A0004FF00002DA71FFF7C7F80346012B04D1A4
:1021B0004FF0010000F08EF801E0FFF7D1F880BD8C
:1021C00080B500AF4BF68473C2F200031B78012B7D
:1021D00020D14BF65473C2F200039A7A4BF6547333
:1021E000C2F200039B7E10464FF047011A46FFF7EC
:1021F00031F94BF65473C2F200039A7A4BF65473DA
:10220000C2F200039B7E10464FF047011A46FFF7CB
:10221000FBF808E04BF68473C2F20003DB79002B75
:1022200001D1FEF7A7FF80BD80B500AF4BF68473E8
:10223000C2F200031B78012B20D14BF65473C2F27B
:102240000003DA7A4BF65473C2F200039B7E104609
:102250004FF047011A46FFF7FDF84BF65473C2F2F0
:102260000003DA7A4BF65473C2F200039B7E1046E9
:102270004FF047011A46FFF7C7F808E04BF68473A2
:10228000C2F20003DB79002B01D1FEF723FF80BDF2
:1022900080B483B000AFF871B9717A713B71FA798B
:1022A000BB79C3EB0203397C3A79C2EB010202FB32
:1022B00003F27979BB79C3EB010392FBF3F3DAB252
:1022C0003B791344DBB2184607F10C07BD4680BCCE
:1022D000704700BF80B582B000AF0346FB714BF67C
:1022E0008473C2F20003FA791A70FB79012B02D1D0
:1022F00000F008F801E0FEF749FE07F10807BD46C7
:1023000080BD00BF80B500AFFEF748F94AF23C300F
:10231000C2F200004FF000014FF00002FEF7E4F8B7
:102320004BF68473C2F200035B781A464AF63473A4
:10233000C2F2000353F8223018464FF064014FF008
:102340000002FEF7D1F84AF24830C2F200004FF026
:1023500000014FF00C02FEF7C7F84BF68473C2F28F
:1023600000039B781A464AF63473C2F2000353F80E
:10237000223018464FF064014FF00C02FEF7B4F81B
:102380004AF25430C2F200004FF000014FF0180240
:10239000FEF7AAF84BF68473C2F20003DB781A4604
:1023A0004AF63473C2F2000353F8223018464FF055
:1023B00064014FF01802FEF797F84AF26030C2F25B
:1023C00000004FF000014FF02402FEF78DF84BF6AD
:1023D0008473C2F200031B791A464AF63473C2F2C0
:1023E000000353F8223018464FF064014FF02402E6
:1023F000FEF77AF84AF26C30C2F200004FF00001AA
:102400004FF03002FEF770F84BF68473C2F200030F
:102410005B791A464AF63473C2F2000353F822304D
:1024200018464FF064014FF03002FEF75DF84AF2B3
:102430007C30C2F200004FF000014FF03C02FEF78A
:1024400053F84BF68473C2F200035B7A012B13D16D
:102450004BF68473C2F200039B7A1A464AF6345351
:10246000C2F2000353F8223018464FF064014FF0D7
:102470003C02FEF739F809E04AF28C30C2F2000063
:102480004FF064014FF03C02FEF72EF84AF2943010
:10249000C2F200004FF000014FF04802FEF724F8AE
:1024A0004BF68473C2F200039B791A464AF63473E2
:1024B000C2F2000353F8223018464FF064014FF087
:1024C0004802FEF711F880BD80B582B000AF4AF235
:1024D000A433C2F200037B6078684FF064014FF0D0
:1024E0000002FEF701F84BF68473C2F200035B783A
:1024F0001A464AF63473C2F2000353F822301846E3
:102500004FF064014FF00002FDF7EEFF78684FF0E6
:1025100064014FF00C02FDF7E7FF4BF68473C2F243
:1025200000039B781A464AF63473C2F2000353F84C
:10253000223018464FF064014FF00C02FDF7D4FF33
:1025400078684FF064014FF01802FDF7CDFF4BF6AD
:102550008473C2F20003DB781A464AF63473C2F27F
:10256000000353F8223018464FF064014FF0180270
:10257000FDF7BAFF78684FF064014FF02402FDF7D1
:10258000B3FF4BF68473C2F200031B791A464AF676
:102590003473C2F2000353F8223018464FF064013E
:1025A0004FF02402FDF7A0FF78684FF064014FF070
:1025B0003002FDF799FF4BF68473C2F200035B799A
:1025C0001A464AF63473C2F2000353F82230184612
:1025D0004FF064014FF03002FDF786FF78684FF04E
:1025E00064014FF03C02FDF77FFF4BF68473C2F2AB
:1025F00000035B7A012B13D14BF68473C2F2000304
:102600009B7A1A464AF63453C2F2000353F822303A
:1026100018464FF064014FF03C02FDF765FF09E0FA
:102620004AF28C30C2F200004FF064014FF03C02DD
:10263000FDF75AFF78684FF064014FF04802FDF74C
:1026400053FF4BF68473C2F200039B791A464AF695
:102650003473C2F2000353F8223018464FF064017D
:102660004FF04802FDF740FF07F10807BD4680BD67
:102670004FF0FF30704700BFFEE700BF4FF400533C
:102680004B604FF0000070474FF00100704700BFF3
:102690004FF00000704700BF4FF00000704700BFD0
:1026A00038B515461C464BF65403C2F200031B68AE
:1026B00083B94BF6CC70C2F200004FF461414FF089
:1026C000030200F055F94BF65403C2F200034FF039
:1026D00001021A604BF6CC70C2F200002946224675
:1026E00000F034F8204638BD08B54BF65803C2F266
:1026F00000031B6843B94BF65803C2F200034BF6C4
:10270000F872C2F200021A604BF65803C2F20003DC
:102710001A68EFF30883104483420FD24FF0000091
:102720004FF001014AF2AC32C2F200024FF019033D
:10273000FFF7B6FF4FF00100FFF79EFF4BF658037F
:10274000C2F200031860104608BD00BF2DE9F00575
:102750004BF6CC73C2F20003984206D04BF6A4733A
:10276000C2F20003984200D000BE01B900BE02B917
:1027700000BE4BF6CC73C2F20003984205D04BF674
:10278000A473C2F20003984233D1131E18BF012371
:1027900000290CBF002303F00103002B29D04FF0C8
:1027A0000007B8464FF0100A03681B7D90F80AC076
:1027B00043EA0C0C80F80AC013F0200F17D00F2A40
:1027C00004D95646BC4643460F4404E00AB9434682
:1027D0000BE01646F6E70468FD5C25700CF1010C71
:1027E00003F101039E42F6D86746C3EB0202002ABA
:1027F000DAD1BDE8F005704708B54BF6CC73C2F2EC
:102800000003984207D04BF6A473C2F2000398422B
:1028100001D000BE08BD03681B7A03F00F030C2B28
:1028200020D8DFE803F0071F0D1F131F191F1F1FFC
:102830001F1F1300436A0BB900BE08BD984708BDAF
:10284000036A0BB900BE08BD984708BDC3690BB940
:1028500000BE08BD984708BD83690BB900BE08BD1E
:10286000984708BD00BE08BD10B44BF6CC73C2F249
:102870000003984206D04BF6A473C2F200039842BC
:1028800000D000BEC26802B900BE016901B900BE35
:102890004BF6CC73C2F20003984205D04BF6A473FA
:1028A000C2F20003984230D1002A2ED000292CD049
:1028B00003681B7D827A43EA0202827213F0200FC2
:1028C0001AD002694369C3EB02030F2B04D94FF0FE
:1028D000100C4FF0000302E073B19C46F9E7026868
:1028E000C4684169615C1170426902F10102426190
:1028F00003F101036345F2D3426903699A4201BFC0
:10290000002303614268C2F8843010BC704700BFE6
:10291000684620F007018D4601B54BF6CC70C2F237
:102920000000FFF769FF4EF20013CEF200034FF4F0
:102930008062C3F88021BDE801408546704700BF32
:10294000684620F007018D4601B54BF6A470C2F22F
:102950000000FFF751FF4EF20013CEF200034FF4D8
:102960000062C3F88021BDE801408546704700BF82
:1029700070B504460D4616464BF6CC73C2F2000302
:10298000984206D04BF6A473C2F20003984200D0DE
:1029900000BE05B900BE00F0FDFA4BF6CC73C2F2E2
:1029A00000039C4226D14BF6CC73C2F200034FF0D9
:1029B00080421A604FF084425A604FF00A021A8136
:1029C0004BF23C33C2F20003186842F20003CEF22D
:1029D00004031A6B42F080021A634EF20012CEF228
:1029E00000024FF48061C2F880111A6B22F080025D
:1029F0001A6325E040F20003C4F20103236040F2B1
:102A00000003C4F2202363604FF00B0323814BF2D9
:102A10004033C2F20003186842F20003CEF204030E
:102A20001A6B42F480721A634EF20012CEF2000268
:102A30004FF40061C2F880111A6B22F480721A639D
:102A400023684FF000021A7115B94FF001050FE02D
:102A5000B0FBF5F515F0080F4FEA151518BF013555
:102A6000B5F5803F38BFADB202D300BE4FF00105CF
:102A700063684FF00102C3F89C2123684FEA1522D6
:102A80001A712368EDB21D7062684FF00003C2F83E
:102A90009C312268167322684FF00E011172626831
:102AA000C2F810322361E3606361E36142F66902B8
:102AB000C2F200022262A3616362A37270BD00BF12
:102AC00010B442F20003CEF204031A6B42F48042C7
:102AD0001A634FF000034AF2C830C2F200004FF010
:102AE000010C4EF20014CEF20004C25A11B24FEAA9
:102AF000511102F01F020CFA02F201F1600144F8D8
:102B0000212003F10203402BEFD142F20003CEF269
:102B100004031A6B22F480421A6310BC704700BF92
:102B20001F2801D900BE70474AF20843C2F20003D1
:102B300053F82030196070471F2801D900BE704734
:102B40004AF20843C2F2000353F820301A6842F0F8
:102B500008021A604AF2C833C2F2000333F8103098
:102B60001AB24FEA521203F01F034FF0010101FAAB
:102B700003F14EF20013CEF2000343F82210704727
:102B80001F2801D900BE70474FF0010202FA00F180
:102B900043F20003C4F20103C3F880104AF2C833C1
:102BA000C2F2000333F8103019B24FEA511103F0AA
:102BB0001F0302FA03F24EF20013CEF2000301F1FA
:102BC000600143F821207047F0B58BB00E461746E0
:102BD0000446C0B94AF2884CC2F2000C6D46BCE80B
:102BE0000F000FC5BCE80F000FC59CE8030045F8B7
:102BF000040B25F8021B4FEA1141297068464FF07B
:102C0000CC0100F05FFAC6B94AF2884CC2F2000C5F
:102C10006D46BCE80F000FC5BCE80F000FC59CE86F
:102C2000030045F8040B25F8021B4FEA11412970F7
:102C300068464FF0CD0100F045FAC7B94AF2884C1A
:102C4000C2F2000C6D46BCE80F000FC5BCE80F00D7
:102C50000FC59CE8030045F8040B25F8021B4FEA5A
:102C60001141297068464FF0CE0100F02BFA331E57
:102C700018BF0123002C0CBF002303F0010353B342
:102C80004FB3206800F1100000F05AFA237940EAAF
:102C90000303237100F00200C0B2E0B14FF0000561
:102CA000206800F1040000F04BFA705505F10105B1
:102CB000206800F1100000F043FA237940EA030392
:102CC0002371C0F34000AF4294BF002000F0010028
:102CD0000028E5D101E04FF0000528460BB0F0BD1B
:102CE000F0B58BB00E4617460446C0B94AF2884C80
:102CF000C2F2000C6D46BCE80F000FC5BCE80F0027
:102D00000FC59CE8030045F8040B25F8021B4FEAA9
:102D10001141297068464FF07D0100F0D3F9C6B922
:102D20004AF2884CC2F2000C6D46BCE80F000FC599
:102D3000BCE80F000FC59CE8030045F8040B25F81C
:102D4000021B4FEA1141297068464FF07E0100F0E6
:102D5000B9F9C7B94AF2884CC2F2000C6D46BCE81A
:102D60000F000FC5BCE80F000FC59CE8030045F835
:102D7000040B25F8021B4FEA1141297068464FF0F9
:102D80007F0100F09FF9331E18BF0123002C0CBFF8
:102D9000002303F0010393B18FB14FF000052068C9
:102DA00000F1100000F0CCF910F0010FF7D020680E
:102DB000715D00F0C3F905F10105AF42EFD80BB02A
:102DC000F0BD00BF2DE9F0418AB00F4616461D4602
:102DD0000446D8B94AF2884EC2F2000EEC46BEE86C
:102DE0000F00ACE80F00BEE80F00ACE80F009EE853
:102DF00003004CF8040B2CF8021B4FEA11418CF82D
:102E0000001068464FF0300100F05CF9072D1BD927
:102E10004AF2884EC2F2000EEC46BEE80F00ACE863
:102E20000F00BEE80F00ACE80F009EE803004CF86E
:102E3000040B2CF8021B4FEA11418CF80010684675
:102E40004FF0310100F03EF9B6F5005F1BD34AF2B6
:102E5000884EC2F2000EEC46BEE80F00ACE80F0050
:102E6000BEE80F00ACE80F009EE803004CF8040B2E
:102E70002CF8021B4FEA11418CF8001068464FF005
:102E8000320100F01FF9072D8CBF00230123002C15
:102E90000CBF002303F00103002B76D0B6F5005FD2
:102EA00073D207F108084046F1B200F047F906F482
:102EB0007F4107F10C0045EA611100F03FF92760FE
:102EC000404600F03DF98046206800F10C0000F01B
:102ED00037F9074600F0F80348EA43181FFA88F864
:102EE000B04518D04AF2884CC2F2000C6E46BCE8DD
:102EF0000F000FC6BCE80F000FC69CE8030046F8A1
:102F0000040B26F8021B4FEA1141317068464FF05E
:102F1000540100F0D7F807F00707AF4218D04AF283
:102F2000884CC2F2000C6D46BCE80F000FC5BCE82F
:102F30000F000FC59CE8030045F8040B25F8021BA1
:102F40004FEA1141297068464FF0550100F0BAF878
:102F5000206800F1100000F0F3F800F00203DBB28B
:102F600083B1206800F1040000F0EAF88DF8270032
:102F7000206800F1100000F0E3F800F00200C0B299
:102F80000028EED14FF0000323710AB0BDE8F081B4
:102F9000704700BF30B484B04AF2B043C2F20003BD
:102FA000EC460FCB8CE80F0042F20003CEF2040394
:102FB0009A6C02F00C0204A90A4452F8105C9A6C54
:102FC000C2F3011201EB820252F8104C9A6CC2F368
:102FD000811201EB820252F8100CD96CDB6CC1F348
:102FE000042101F1010113F4005F18BF490040F210
:102FF0003023C6F208031A6822F0704241F2CF1360
:10300000C0F2A1539A4205D14EF62C73C6F20103C9
:103010001B6828E040F61C03C6F208031A6844F255
:103020004133C4F654439A421ED140F64003C6F2DF
:1030300008031A6822F07F4240F20033C0F2010315
:103040009A4211D9B2F5003F05D241F22C63C6F283
:1030500008031B6807E0B2F5403F05D241F6AC63B8
:10306000C6F208031B6823B900BE47F64003C0F24E
:103070007D134BF24432C2F2000213604BF23C3239
:10308000C2F20002B3FBF5F515604BF24032C2F21A
:103090000002B3FBF4F414604BF23432C2F20002CB
:1030A000B3FBF0F010604BF23832C2F20002B3FB17
:1030B000F1F111604BF24832C2F20002136004B029
:1030C00030BC704784B0029103788DF80F30029BBA
:1030D0000193019B03F101030193F4E70160704741
:1030E000006870470EB503FA01F303EA02030168B2
:1030F0006FEA020201EA020141EA030101600EBD2A
:10310000006800EA020020FA01F070470180704771
:10311000008870470EB503FA01F303EA0203018841
:103120006FEA020201EA020141EA030101800EBDD9
:10313000008800EA020020FA01F070470170704731
:10314000007870470EB503FA01F303EA0203017831
:103150006FEA020201EA020141EA030101700EBDB9
:10316000007800EA020020FA01F0704770B54AF2D8
:1031700020764AF22075C2F20006C2F20005761BE4
:10318000B61006D0002455F8243001349847A642E2
:10319000F9D84AF220754AF22476C2F20005C2F24A
:1031A0000006761B07F0B0FAB61006D0002455F8DA
:1031B000243001349847A642F9D870BD0FB44BF2C1
:1031C0004C33C2F2000310B51C6882B024B1A3696D
:1031D00013B9204602F094FE204605AC049A23461B
:1031E0008168019400F02AF802B0BDE8104004B0F4
:1031F000704700BF0EB410B5044683B018B18369A0
:103200000BB902F07DFE204606AC059A2346816884
:10321000019400F013F803B0BDE8104003B070470C
:10322000936810B5144613B95360184610BD02F0E8
:10323000CBFF00236360A36010BD00BF2DE9F04FFA
:10324000ADF5AE6D83B00E4615469A46814603F045
:10325000ABF900681D90B9F1000F04D0D9F818300F
:10326000002B00F05A814AF23C53C2F200039E4206
:1032700008BFD9F8046010D04AF25C53C2F20003D0
:103280009E4208BFD9F8086007D04AF27C53C2F2C8
:1032900000039E4208BFD9F80C60B6F80CC01FFAB4
:1032A0008CF313F4005F09D14CF4005C726EA6F845
:1032B0000CC01FFA8CF322F40052726613F0080F50
:1032C00001F001833269002A01F0FD8203F01A0344
:1032D0000A2B00F0E080002212921A9200231C9226
:1032E0000DF59C641192043419920DF5A4621B93A0
:1032F00004320DF5906328320333189207930023AC
:10330000CDF84C45CDF85035CDF854352B781A1EF4
:1033100018BF0122252B0CBF002202F0010232B39C
:103320002F4617F8013F1A1E18BF0122252B0CBF8C
:10333000002202F00102002AF3D1B7EB050808BF12
:103340003D4614D0C4F80480DDF85035DDF854252E
:1033500001332560072B4244CDF85035CDF8542574
:1033600078DC083411983D46404411903B78002B9E
:103370007CD06B1C4FF0FF372B204FF0200C00212E
:103380004FF000020F918DF87725CDF82CA06A78C8
:103390000A915D1CA2F12003582B00F28682DFE81F
:1033A00013F0980284028402A4028402840284023C
:1033B000840284028402AD02BA028402C102CA02FB
:1033C0008402E702F002F002F002F002F002F002E2
:1033D000F002F002F0028402840284028402840279
:1033E0008402840284028402840204032603840289
:1033F000260384028402840284026A038402840213
:1034000081048402840284028402840214048402FB
:1034100084022F04840284028402840284028402CF
:1034200084028402840284024F0465042603260376
:1034300026037303650484028402790384028503EE
:103440009603AD030A048402CC038402F4038402CD
:103450008402C0000DF5A862484631460C32FFF7E1
:10346000DFFE58B90DF59C6404347BE7DDF8543574
:10347000002B41F092810023CDF85035B38913F031
:10348000400F02D04FF0FF30119011985FB00DF552
:10349000806DBDE8F08FB6F90E30002BFFF61BAF44
:1034A000376A2CF0020CD6F828E00DF58E64ADF8E2
:1034B00088C40C34B6F80EC02A4653464846214606
:1034C0001FADCDF89C740027CDF88C54CDF87C54FA
:1034D0004FF48065CDF8A4E4ADF88AC4CDF89054DB
:1034E000CDF89474CDF88454FFF7A8FE002811900D
:1034F00009DB2146484602F093FB1199B84218BFF8
:103500004FF0FF311191BDF8883413F0400FBCD05B
:10351000B38943F04003B381B7E7484602F0F0FCBB
:10352000A1E60A984AF20C5CC2F2000C169210F066
:10353000200FCDF864C000F06E830B99CB1D23F0F3
:10354000070303F108020B92D3E900AB5AEA0B021E
:103550000A9B0CBF00220122134240F06B8602231B
:103560004FF000018DF87715002FA2BFDDF828C0BD
:103570002CF0800CCDF828C0002F18BF42F00102BB
:10358000002A00F01E84012B00F0DE85022B00F0E3
:10359000C185189913914FEADA084FEADB0C48EA23
:1035A0004B780AF00700E346C24630305AEA0B0275
:1035B00001F8010DEFD1DDF828C013911CF0010FC7
:1035C00040F08C861898401A10909DF87735109A24
:1035D0001797BA42B8BF3A460C9213B10C9A01320F
:1035E0000C920A9B0A9813F0020315931EBFDDF894
:1035F00030C00CF1020CCDF830C010F084001490F3
:103600004DD10F990C9A8F1A002F48DD102F4AF2D6
:10361000C848D8BFC2F2000830DDC2F200080DF57C
:10362000A86B43464FF0100AA8460BF10C0B1D4641
:1036300002E0103F102F1EDDC4F804A0DDF8503565
:10364000DDF85425013325601032072BCDF85425C1
:1036500004F10804CDF85035EBDD0DF59C644846C7
:1036600031465A460434FFF7DBFD00287FF406AFED
:10367000103F102FE0DC2B46454698466760DDF88A
:103680005035C4F800805A1CDDF85435CDF850256B
:10369000DB19072ACDF8543500F38A8508349DF8E4
:1036A00077359BB101236360DDF850350DF5AE62CF
:1036B00007322260DDF854250133CDF85035013250
:1036C000072BCDF8542500F3B6840834159B9BB125
:1036D00002236360DDF850350DF5AE6204322260DE
:1036E000DDF854250133CDF850350232072BCDF8E3
:1036F000542500F3AF840834DDF850C0BCF1800FCE
:1037000000F07683179B109A9F1A002F43DD102F2D
:10371000DFF88C8B2EDD43460DF5A86BA8464FF0E5
:10372000100A0BF10C0B1D4602E0103F102F1EDD9E
:10373000C4F804A0DDF85035DDF8542501332560C8
:103740001032072BCDF8542504F10804CDF850357C
:10375000EBDD0DF59C64484631465A460434FFF7CC
:103760005FFD00287FF48AAE103F102FE0DC2B466F
:10377000454698466760DDF85035DDF8542501333D
:10378000C4F80080D219072BCDF85425CDF8503558
:1037900000F342840834DDF828C01CF4807F40F038
:1037A0009D82109813996060DDF85035DDF854253E
:1037B000013321601218072BCDF85035D8BF04F122
:1037C0000803CDF8542500F39B830A9911F0040FE8
:1037D00055D00F9ADDF830C0CCEB0207002F4EDD3C
:1037E000102F4AF2C848D8BFC2F200082EDDC2F23C
:1037F00000080DF5A86A42461024A8460AF10C0AF2
:10380000154602E0103F102F1DDD5C60DDF85025ED
:10381000DDF8541501321D601031072ACDF854151A
:1038200003F10803CDF85025ECDD484631465246F9
:10383000FFF7F6FC0DF59C63043300287FF41EAE01
:10384000103F102FE1DC2A46454690465F60DDF8C8
:103850005025C3F80080DDF854350132CDF85025ED
:10386000FB18072ACDF854350BDD0DF5A862484644
:1038700031460C32FFF7D4FC00287FF4FFADDDF8B1
:10388000543511980C9A0F998A42ACBF8018401891
:103890001190002B40F042830DF59C640023DDF86D
:1038A0002CA00434CDF8503530E51692002A3FF4B0
:1038B000DDAD0DF5A46001234FF0000C04300C9336
:1038C0008DF824258DF877C513901093002117915A
:1038D00087E69DF87735002B40F02B850B992B461A
:1038E0008DF877C52A780B9153E50B990A9B43F025
:1038F00001030A932B462A780B914AE50B990B9A00
:1039000009680F91111D0F9B002BC0F280872A7848
:103910002B460B913DE50B992B468DF877052A78C0
:103920000B9136E50B990A9B43F004030A932B464F
:103930002A780B912DE52B4613F8012B2A2A01F04A
:10394000CD80A2F13001092901F23780023500272C
:1039500015F8012C07EB87072B46013501EB4707CC
:10396000A2F130010929F3D947EAE7771D4611E5AD
:103970000B992B460A9A42F080020A922A780B9100
:1039800007E5A2F130014FF000082B4608EB88084C
:1039900013F8012B01EB4808A2F130011D4609295B
:1039A000F3D9CDF83C801D46F4E40A9B169243F00F
:1039B00010030A93DDF828C01CF0200F00F05D8191
:1039C0000B98C31D23F0070303F108010B91D3E902
:1039D00000ABBAF1000F7BF10002C0F29B845AEAFF
:1039E0000B034FF001030CBF00220122BCE50A9833
:1039F000169210F0080F00F0ED840B99CB1D23F008
:103A0000070303F108020B92D3F80480D3F800A057
:103A1000CDF86C80CDF848A05046414604F09AF9A4
:103A20008346002800F09985504600220023414635
:103A300005F092F9002840F00B859DF877354AF2A1
:103A400000514AF2FC421698C2F20001C2F2000292
:103A50004FF0030C4728D8BF114613910A99CDF8AF
:103A600030C021F08001CDF840C00A914FF0000C29
:103A7000CDF85CC0B1E50B990A9B43F008030A93AB
:103A80002B462A780B9184E40A9941F040010A916F
:103A90000B993CE72A786C2A00F055850B990A9B14
:103AA0000B9143F010030A932B4672E40A9A12F02A
:103AB000200F00F082840B98119A036810464FEA99
:103AC000E0710B9AC3E9000102F1040A1EE41692A8
:103AD0000A9A12F0200300F0EF800B9BDA1D0023FE
:103AE00022F0070202F1080CCDF82CC0D2E900AB9D
:103AF0005AEA0B000CBF0022012231E50B98782115
:103B0000DDF828C0169103684AF20C508DF875153F
:103B100030218DF874154CF0020C0B991A1E18BF49
:103B20000122C2F200009A464FF0000B0431CDF89A
:103B300028C0199002230B9112E50B9B16924FF0AF
:103B40000002181D8DF877251B680B901393002B2E
:103B500000F0C686002F1398C0F28F8600213A46E7
:103B600003F0A6F80346002800F0F58613981B1A08
:103B70001093BB4240F3BE851097002127EAE777F8
:103B80009DF877350C97179127E5DDF828C0169238
:103B90001CF0200F23D00B980123C21D22F0070236
:103BA00002F108010B91D2E900AB5AEA0B020CBFFB
:103BB00000220122D4E40A992B4641F020010A9107
:103BC0000B992A780B91FFF7E4BB0A9B169243F0FE
:103BD00010030A93DDF828C01CF0200FDBD10A9BEC
:103BE00013F0100F00F0D5830B980123021D0B92E8
:103BF00001680A1E18BF01228A464FF0000BAFE48D
:103C00000A9816924AF2E84210F0200FC2F200021F
:103C100019927FF492AC0A9B13F0100F40F01A83B4
:103C20000A9A12F0400F00F015830B9B03F1040C6D
:103C3000CDF82CC0B3F800A0D2464FF0000B85E4BD
:103C400016920DF5A4610B9A4FF0010C4FF0000095
:103C50000431CDF830C0136804328DF877050B922B
:103C60001391CDF840C08DF824352FE6DDF828C03B
:103C700016921CF0200F7FF4A3AE0A9A12F0100FD8
:103C800040F0F1820A9A12F0400F00F0EC820B9B98
:103C900003F1040CCDF82CC0B3F900A0D2464FEAD2
:103CA000EA7B96E60A99169241F010010A910A9A67
:103CB00012F020037FF411AF0A9911F0100200F006
:103CC00054830B9A02F1040CCDF82CC011680A1E23
:103CD00018BF01228A464FF0000B41E4169A652A6C
:103CE00040F328811298002200231B9905F02AF83E
:103CF000002800F0BE8101236360DDF850254AF200
:103D00002853C2F200032360DDF854350132CDF8A8
:103D100050250133072ACDF85435D8BF04F10803E4
:103D200000F39B83DDF870251A98824204DB0A9920
:103D300011F0010F3FF449AD01225A60DDF8502522
:103D4000DDF8541501321D980131072ACDF85415BC
:103D50001860CDF8502500F35F8508331A994F1E7F
:103D6000002F7FF732AD102FDFF8348540F3EA8261
:103D700042460DF5A86AA84610240AF10C0A154619
:103D800003E0103F102F40F3DA825C60DDF850252D
:103D9000DDF8541501321D601031072ACDF8541595
:103DA00003F10803CDF85025EBDD48463146524675
:103DB000FFF736FA0DF59C6304330028E1D0FFF7D6
:103DC0005DBB7BB90A9911F0010F0BD00DF5A46210
:103DD000302304328DF84B35273201231392109390
:103DE000FFF7F3BB1898002110911390FFF7EDBB7C
:103DF0000F980C99471A002F7FF784AC102FDFF82B
:103E0000A0842EDD43460DF5A86BA8464FF0100A9E
:103E10000BF10C0B1D4602E0103F102F1EDDC4F805
:103E200004A0DDF85035DDF854250133256010324B
:103E3000072BCDF8542504F10804CDF85035EBDDFF
:103E40000DF59C64484631465A460434FFF7E8F9BC
:103E500000287FF413AB103F102FE0DC2B464546C3
:103E600098466760DDF85035C4F800805A1CDDF8CC
:103E70005435CDF85025DB19072ACDF8543500F319
:103E80003A8208343EE413996360DDF850252160DE
:103E9000DDF854150132CDF85025CB18072ACDF89E
:103EA000543500F3498508341D9A0123DDF87075F7
:103EB0006360DDF850352260DDF854250133CDF81C
:103EC00050350132072BCDF85425D8BF04F1080333
:103ED00000F323851398DDF87025C7191A981F6021
:103EE000811A5960DDF854158A1ADDF85015121838
:103EF000CDF854250131CDF85015072940F3328211
:103F00000DF5A862484631460C32FFF789F90028C2
:103F10007FF4B4AA0DF59C63043356E40DF5A86252
:103F2000484631460C32FFF77BF900283FF4B4AC29
:103F3000FFF7A4BA1A9901294CDD01236360DDF86B
:103F40005035DDF85425013313980132072BCDF895
:103F500054252060CDF8503500F3B2810834012398
:103F60006360DDF85035DDF8542501331D990132C9
:103F7000072BCDF854252160CDF8503500F3928100
:103F800008341298002200231B9904F0DBFE00285D
:103F900040F01D811A9B13985A1E6260DDF850355F
:103FA000411C2160DDF854150133CDF850358A18D5
:103FB000072BCDF8542521DC08341C9B0DF5AC6291
:103FC0001C9822606360DDF85035DDF8542501331C
:103FD000FFF7F0BB0A9A12F0010FAED1139A01233A
:103FE0006360DDF850352260DDF854250133CDF8EB
:103FF00050350132072BCDF85425DDDD0DF5A862D3
:10400000484631460C32FFF70BF900287FF436AAF8
:104010000DF59C640434D0E70DF5A862484631469E
:104020000C32FFF7FDF800287FF428AA0DF59C64F8
:104030000434FFF7B0BB0DF5A862484631460C3298
:10404000FFF7EEF800287FF419AA0DF59C640434FC
:10405000FFF73CBB0DF5A862484631460C32FFF72E
:10406000DFF800287FF40AAA0DF59C640434FFF7FA
:1040700043BBDDF87035002B40F3FD811A998B426C
:10408000FFF601AF139A6160DDF850352260DDF86C
:1040900054250133CDF850355218072BCDF854254F
:1040A000D8BF04F1080300F32984DDF870451A989D
:1040B000241A002C40F3B381102CDFF8E48140F384
:1040C0009D8142460DF5A86AA84610270AF10C0A00
:1040D000154603E0103C102C40F38D815F60DDF845
:1040E0005025DDF8541501321D601031072ACDF836
:1040F000541503F10803CDF85025EBDD4846314651
:104100005246FFF78DF80DF59C6304330028E1D08B
:10411000FFF7B4B9189A1998134613920AF00F02D0
:104120004FEA1A1141EA0B714FEA1B1C825C8A4666
:10413000E3465AEA0B0C03F8012DEFD118981393BC
:10414000C01A1090FFF741BA09220023524573EBC1
:104150000B00DDF860801FD223464446B8461F4658
:10416000504659460A22002304F046FE00235046DA
:10417000594602F1300C0A2204F801CD04F03CFE4D
:104180000922002382468B46524573EB0B03E7D38B
:104190003B464746A0461C4608F1FF300AF1300A6C
:1041A000139008F801AC1899091A1091FFF70DBA8D
:1041B0000DF5A862484631460C32FFF731F8002869
:1041C0007FF45CA90DF59C640434FFF768BA1A9972
:1041D0004F1E002F7FF7F1AE102FDFF8C4804EDDA9
:1041E00043460DF5A86BA8464FF0100A0BF10C0BD7
:1041F0001D4602E0103F102F3EDDC4F804A0DDF89C
:104200005035DDF85425013325601032072BCDF8E9
:10421000542504F10804CDF85035EBDD0DF59C6410
:10422000484631465A460434FEF7FAFF0028E1D0EA
:10423000FFF724B916983021DDF828C001220223A7
:104240008DF874154CF0020C8DF87505CDF828C06A
:10425000FFF786B90B98011D03680B919A464FF042
:10426000000BFFF773B90B98011D03680B919A4679
:104270004FEAEA7BFFF7ADBB2B46454698466760A1
:10428000DDF85035DDF854250133C4F80080D2192B
:10429000072BCDF85425CDF850357FF78DAEADE620
:1042A000D8A400200DF5A862484631460C32FEF72E
:1042B000B7FF00287FF4E2A80DF59C64043460E6A3
:1042C0000DF5A862484631460C32FEF7A9FF0028DA
:1042D0007FF4D4A80DF59C64043440E6302800F047
:1042E000EC821398302300F8013D18991390091AB5
:1042F0001091FFF76AB90DF5A862484631460C32B5
:10430000FEF78EFF00287FF4B9A80DF59C640434F5
:10431000FFF7F8B9DAF1000A6BEB4B0B2D235AEAE1
:104320000B0C8DF877350CBF002201220123FFF71B
:104330001BB90B992B462A780B91FFF72AB82A460E
:10434000454690465F60DDF85025DDF85415013292
:10435000C3F80080C919072ACDF85415CDF85025A7
:104360003FF7CEAD0833FFF730BA0A9810F040039C
:1043700000F0ED810B9913460A1D0B92B1F800A0D5
:10438000BAF1000218BF0122D2464FF0000BFFF72E
:10439000E7B80A9B13F0400F00F0CC810B98012383
:1043A000011D0B91B0F800A0BAF1000218BF012264
:1043B000D2464FF0000BFFF7D3B80A9B13F0100F53
:1043C00000F0A4810B98119900F1040A03681960A8
:1043D000FEF79CBF0B98C31D23F0070303F10801F0
:1043E0000B91D3F80480D3F800A0CDF86C80CDF801
:1043F00048A0FFF711BB2A46454690465C60DDF8B1
:104400005025DDF854150132C3F800800919072A38
:10441000CDF85415CDF8502500F3EA8208330A99F7
:1044200011F0010F3FF4D1A901225A60DDF85025A7
:10443000DDF8541501321D980131072ACDF85415C5
:104440001860CDF850253FF75BAD0833FFF7BDB9D5
:104450002D238DF87735FFF7F2BA0DF5A86248469F
:1044600031460C32FEF7DCFE00287FF407A80DF57C
:104470009C63043356E401236360DDF850254AF25F
:104480002853C2F200032360DDF854350132CDF821
:1044900050250133072ACDF85435D8BF04F108035D
:1044A00000F38781DDF870253AB91A9A2AB9DDF848
:1044B00028C01CF0010F3FF488A901225A60DDF8E2
:1044C0005025DDF8541501321D980131072ACDF829
:1044D00054151860CDF8502500F379810833DDF8C4
:1044E00070757F42002F40F3B381102FDFF85086A4
:1044F00040F3D28142460DF5A86AA84610240AF17D
:104500000C0A154603E0103F102F40F3C2815C6097
:10451000DDF85025DDF8541501321D601031072AF1
:10452000CDF8541503F10803CDF85025EBDD4846CE
:1045300031465246FEF774FE0DF59C6304330028A5
:10454000E1D0FEF79BBF0B996B1C0A9A42F0200248
:104550000A926A780B91FEF71CBF5046414603F061
:104560000BFC002840F0FF80B7F1FF3F00F05182C4
:104570001698672814BF00230123472808BF43F07B
:10458000010313B1002F08BF01270DF5AB604346AF
:1045900052460A99C0E90023DDF85C3541F4807188
:1045A0000A91002BC0F264820021179116986628A8
:1045B00014BF00230123462808BF43F001031093D2
:1045C000002B00F0D181BC460323CDF830A00DF5BF
:1045D000AE61CDF834804846009302910DF5AC6190
:1045E000DDE90C230C31CDF804C003910DF5AD616C
:1045F000CDF824C0049100F0C7FB169ADDF824C062
:10460000B2F1670318BF0123472A0CBF002303F050
:104610000103139033B90A9B13F0010F08BFDDF8B3
:1046200068B516D01398109900EB0C0B31B10378D4
:10463000302B00F0DA80DDF870359B4450460022C4
:104640000023414604F07EFB002800F0C281CDF833
:1046500068B5169A1398672A14BF00230123472AC6
:1046600008BF43F00103C0EB0B001A90002B00F0D1
:104670008A81DDF8701511F1030F109102DB8F4272
:1046800080F28C81169A023A16921099169A4B1E55
:10469000CDF87035002B8DF86025C0F234822B22C6
:1046A0008DF86125092B00F3B6810DF5AC6230332E
:1046B00004328DF8633530238DF862350DF5AC6327
:1046C0001A981A99D31A18181C930129109040F3BC
:1046D000108210980130109020EAE0710C91179828
:1046E000002800F06E812D2300218DF87735179179
:1046F000FEF774BF109A4FF0000C9DF8773522EA50
:10470000E272CDF85CC00C92FEF767BF0A9A12F015
:10471000400F17BF0B980B9A119900F1040A11BFB3
:10472000036802F1040A1368119814BF1980186015
:10473000FEF7ECBD0B9A131D0B93116801230A1EA3
:1047400018BF01228A464FF0000BFEF709BF0B98F5
:10475000021D0B9201680A1E18BF01228A464FF003
:10476000000BFEF7FDBE4AF208524AF204531699B6
:10477000C2F20003C2F2000203204729D8BF1A4642
:1047800013920A9A0C9022F08002CDF85CB00A9243
:104790009DF877351090FEF720BF0DF5A8624846CA
:1047A00031460C32FEF73CFD00287EF467AEFEF782
:1047B00062BE0DF5A862484631460C32FEF730FD68
:1047C00000287EF45BAE0DF59C6304336AE60DF5BC
:1047D000A862484631460C32FEF722FD00287EF4DE
:1047E0004DAE0DF59C63043379E65046002200235C
:1047F0004146CDF824C004F0A5FADDF824C0002815
:104800007FF419AFCCF10103CDF8703515E70F9A9D
:1048100052420F92FFF787B80DF5A862484631461D
:104820000C32FEF7FDFC00287EF428AE0DF59C63EB
:104830000433FFF793BA0DF5A862484631460C32AF
:10484000FEF7EEFC00287EF419AE0DF59C630433F0
:104850001A9913985960DDF85025DDF85415186041
:1048600001321A98CDF850250918072ACDF85415A9
:104870003FF746AB0833FEF7A8BF0021179103F0BE
:10488000D3FB9DF8773520EAE07210900C92FEF78A
:10489000A4BE2A46454690465F60DDF85025DDF807
:1048A00054150132C3F80080C919072ACDF85415F0
:1048B000CDF85025BFDC0833CAE7189A1399511A6E
:1048C0001091FEF782BE4846314600F049F90028B3
:1048D0007EF4D8ADB6F80CC01FFA8CF3FEF7F6BC28
:1048E000062F28BF06274AF22051C2F2000127EA0C
:1048F000E772109713910C92FEF7E8BF0DF5A862CE
:10490000484631460C32FEF78BFC00287EF4B6ADEB
:104910000DF59C630433FFF7C8BB0DF5A86248464C
:1049200031460C32FEF77CFC00287EF4A7AD0DF575
:104930009C630433FFF7CEBA0DF5A86248463146B2
:104940000C32FEF76DFC00287EF498AD0DF59C64EA
:104950000434FFF7A9BA109727EAE77717900C9766
:104960009DF87735FEF739BE1699652914BF0023E7
:104970000123452908BF43F00103002B46D007F16E
:10498000010C022321E6169B652B76DD169A662A1A
:104990001CBFDDF87035109300F083801A9B1098CF
:1049A00083426EDC0A9911F0010F40F08E8020EAFC
:1049B000E07267230C92169391E600271D46FEF7DE
:1049C000E9BC10999DF8773521EAE1710C91FEF769
:1049D00004BEDDF868359B4598BF9B467FF639AE2F
:1049E000302203F8012B9B45CDF86835F9D830E625
:1049F0000DF5A862484631460C32FEF711FC00283E
:104A00007EF43CAD0DF59C63043308E5BC460233EF
:104A1000DBE50737B9E546F2676C0DF590610331C8
:104A2000C6F2666C8CFB0320DA17C2EBA00202EB25
:104A30008200A3EB400013463030092A01F8010D33
:104A4000F0DC3033481EDAB201F8012C079B8342B8
:104A50006AD90DF5AC63033301E011F8012B03F8BB
:104A6000012C1A46DDF81CC001338C45F5D825E62B
:104A70002D2208F10048179298E5DDF87005109096
:104A800003E6109B1A99002BDABF1098C0F10203BD
:104A900001235B186722109323EAE37316920C93A9
:104AA0001DE6DDF870050028109031DD1FB90A9968
:104AB00011F0010F0ED0109866211691431CDB19DE
:104AC000109323EAE3720C9209E61098672116917D
:104AD0000130109020EAE0720C9200E60B991A78EF
:104AE0000F6804310B91002FB8BF4FF0FF37FEF76E
:104AF00050BC0A9A12F0010F04BF20EAE0730C9335
:104B00003FF4EDADE5E52D225B428DF86125C9E569
:104B100077B90A9B13F0010F0AD14FF0010CCDF8C1
:104B200030C0CDF840C0DAE50DF5AC620232C5E523
:104B30000237662127EAE772109716910C92CEE5AC
:104B4000D8A4002010B44BF24C34C2F200048C46BE
:104B5000134601466246206810BCFEF76FBB00BFDB
:104B600070B54BF24C35C2F2000506460C4628687B
:104B700010B18369002B36D04AF23C53C2F20003D5
:104B80009C4238D04AF25C53C2F200039C4241D0AE
:104B90004AF27C53C2F200039C4204BF2B68DC68DB
:104BA000A289114693B213F0080F184618BF226964
:104BB00033D01AB313F0010107D063690021A1605B
:104BC0005B42A36142B1002070BD13F0020F08BF29
:104BD0006169A160002AF6D1A38913F0800FF2D099
:104BE0004FF0FF3070BD01F08BF94AF23C53C2F236
:104BF00000039C42C6D12B685C68D1E703F42071A6
:104C0000B1F5007FD6D03046214601F001FDA389E1
:104C10002269CFE72B689C68C2E713F0100FDFD042
:104C200013F0040F08BF226917D0616B51B104F172
:104C30004403994203D0304601F0E6F9A28990B2CC
:104C40000023636322694FF6DB71C0F20001002389
:104C500000EA01016360A181226041F00803A381A1
:104C60009BB2A6E7000000002DE9F84F03690E692A
:104C7000824689469E4200F38380F21C01F11405AE
:104C800000F11404013E92008B18121803F104087D
:104C900059685068013103F0F7FA0746002839D007
:104CA00000239C461A46E958E0581FFA81FE4FEA55
:104CB000114B81B20EFB07CE51180BFB07FC0CEB1E
:104CC0001E4C1FFA8EFECEEB01011FFA8CF24FEA4A
:104CD0001C4CC2EB10421FFA81FE02EB21424EEA4D
:104CE0000241E1500433121459198845DBD2321DB8
:104CF0000AEB8203596869B99C4209D25AF822200A
:104D000012B105E01A681AB9043B013E9C42F9D37E
:104D1000CAF810604946504602F0E8F900282CDB3A
:104D2000002301379C46EA58E05891B2120C1FFA52
:104D300080F9C2EB1042C1EB0901614402EB214250
:104D400089B241EA0241E15004334FEA224C5A1938
:104D50009045E8D2321D0AEB8203596869B99C423A
:104D600009D25AF8222012B105E01A681AB9043B98
:104D7000013E9C42F9D3CAF810603846BDE8F88F6E
:104D80000020BDE8F88F00BF2DE9F04F466AA1B0C2
:104D90000446904699462D9D002E00F023843268EB
:104DA00082B1616A4FF0010C766820460B6856604C
:104DB0004A6819460CFA02F29A6002F0D1FA636A64
:104DC00000221A60B9F1000638DB00232B6040F2A4
:104DD0000003C7F6F0731A4606EA0303934217D09E
:104DE0000022002340464946CDE9068903F0AAFF88
:104DF000002829D02C9801232E990360002900F067
:104E0000D080794B581E2E9A136021B0BDE8F08FE8
:104E10002C9842F20F730360B8F1000F00F09580F8
:104E20004AF23850C2F200002E990029EDD0C27823
:104E3000C31C002AE7D000F10803E4E726F000468F
:104E40000123B1462B60C2E72046DDE906231EA9F7
:104E500000911FA9019102F0D5FAC6F30A558346C5
:104E6000002D7ED0DDE90601A5F57E751F9F073D6B
:104E700021F07F4323F4700343F07E51002341F47B
:104E8000E001199340F200030022C3F6F87303F027
:104E90003DFB4FA3D3E9002303F0ECFC4EA3D3E981
:104EA000002303F035FBCDE90801284603F07CFC24
:104EB0004BA3D3E9002303F0DDFC02460B46DDE9FA
:104EC000080103F025FBCDE9080103F06DFF002286
:104ED00000230646DDE9080103F03EFF40B13046FD
:104EE00003F062FCDDE9082303F02CFF00B9013E6A
:104EF000162E5BD901231893013FB7EB050A42BF79
:104F0000CAF1000ACDF83CA04FF0000A01D40022FB
:104F10000F92002EC0F27183B244002317961593AE
:104F20002A9B092B62D8052B40F377862A98002705
:104F300004382A902A998B1E032B00F2DD83DFE8C8
:104F400013F0A503D803D503C40326F07F4626F447
:104F50007006002E7FF464AF4AF22C50C2F20000BB
:104F600062E71F9F1E9BFB1803F586639D1C202D87
:104F7000DCBFC5F1200008FA00F008DD1E3BC5F1DA
:104F8000400216FA02F228FA03F342EA030003F0A1
:104F9000FBFBA5F586650122033D1992A1F1F8718D
:104FA00070E74AF22850C2F200002EE74AF2E053BE
:104FB000DDE90601C2F2000303EBC603D3E90023D7
:104FC00003F0CAFE002840F02083189094E700BF49
:104FD00061436F63A787D23FB3C8608B288AC63FFF
:104FE000FB799F501344D33F29A5002000234FF0A5
:104FF000FF301F4601212A931190169108902B93A0
:10500000656A00236B602046696802F0C5F9636A2F
:1050100028601B681093002F00F05B81002E40F386
:105020002A844AF2E05306F00F02C2F2000335115F
:1050300003EBC20315F0100FD3E90001CDE90C0119
:1050400000F0E7824AF2B863DDE90601C2F200032C
:1050500005F00F054FF00308D3E9082303F034FDF2
:10506000CDE91201BDB14AF2B867DDE90C23C2F205
:10507000000715F0010F1046194607D0D7E90023A5
:1050800008F1010803F0F6FB02460B4608376D10E5
:10509000EFD1CDE90C23DDE90C23DDE9120103F0AA
:1050A00013FDCDE90C011899002900F0DE8040F2D3
:1050B0000003DDE90C010022C3F6F0734FF0000598
:1050C00003F04AFE08B14FF00105089A002AD4BF48
:1050D000002505F00105002D00F0C780119B002B75
:1050E00040F3F58040F200030022C4F22403DDE91E
:1050F0000C0103F0BFFBCDE90C0108F10100711EAA
:10510000129103F051FB02460B46DDE90C0103F05E
:10511000B1FB40F200030022C4F21C0303F0F8F9D3
:10512000DDF844C08046A1F15079169B002B00F0B9
:10513000AD834AF2E05340F20001C2F200030020C6
:1051400003EBCC03C3F6E071CDF80CC053E90223A6
:1051500003F0BAFC42464B46109D03F0D7F9804657
:105160008946DDE90C0103F01FFE074603F01CFB36
:1051700002460B46DDE90C0103F0C8F907F13003E4
:10518000CDE90C01404605F8013B4946DDE90C2319
:1051900003F000FE002840F0138240F20001DDE938
:1051A0000C230020C3F6F07103F0B0F902460B4661
:1051B0004046494603F0EEFDDDF80CC0002840F003
:1051C000E783BCF1010F40F38280CDF868B001277E
:1051D000CDF870A01D966646DDE90CAB0C9410E08E
:1051E00040F200010020C3F6F07103F08FF942464F
:1051F0004B4603F0B1FD002840F0C783B74280F270
:105200008B8440F20003404649460022C4F2240346
:10521000013503F02FFB40F200030022C4F2240307
:10522000804689465046594603F024FB8B46824609
:1052300003F0BAFD044603F0B7FA303402460B46D9
:105240005046594603F062F9109A4B46D4554246EF
:10525000013782468B4603F07FFD52465B460028AD
:10526000BED0DDF868B00C9CAAE1404603F09CFA81
:10527000DDE90C2303F0FEFA40F200030022C4F241
:105280001C0303F045F9089AA1F150758046A94620
:10529000002A40F0EC8240F20003DDE90C0100221C
:1052A000C4F2140303F032F942462B46CDE90C0157
:1052B00003F070FD002840F04A824246DDE90C010F
:1052C00005F1004303F048FD002840F0D581DDE9F9
:1052D00006891E9B6FEA03074FEAD7770E2ECCBFD5
:1052E000002707F00107002F00F0B7802B984AF243
:1052F000E053C2F20003089903EBC603C20F002972
:10530000CCBF002202F00102D3E90001CDE9040183
:10531000002A40F0A08102460B464046494603F071
:10532000D3FB109D03F040FD824603F03DFADDE91A
:10533000042303F09FFA02460B464046494603F019
:10534000E5F80AF1300305F8013B089A012A804686
:10535000894652D040F200030022C4F2240303F035
:1053600089FA00220023CDE9060103F0EBFC0028B6
:1053700040F0EB8110984FF00108CDF82CB0A34617
:10538000871C0F96DDF82090DDE906450AE003F062
:1053900071FA0022002304460D4603F0D3FC0028D6
:1053A00040F0CE81DDE904232046294608F10108BA
:1053B00003F08AFB3E4603F0F7FC824603F0F4F963
:1053C000DDE9042303F056FA02460B46204629463F
:1053D00003F09CF800220AF1300C07F801CC0137E9
:1053E000C14540F20003C4F22403D0D135465C46E7
:1053F0000F9E8046DDF82CB0894642464B4640461B
:10540000494603F085F8804689464246DDE90401B5
:105410004B4603F0A1FC60B9DDE9040142464B466E
:1054200003F090FC002800F090811AF0010F00F0CA
:105430008C81109900E01D4615F8012C6B1E392A4D
:1054400040F067838B42F6D1109930230136312228
:105450000B70109B1A701296B2E0169A002A40F058
:10546000DF80159F0F9D0C92002DD4BF00230123D8
:10547000BAF1000FD4BF002303F001034BB1AA45DA
:10548000B4BF53462B460F98C3EB0A0AED1AC01A55
:105490000F90159900291CDD169A002A00F0E98268
:1054A000002F12DD0C993A46204602F0D5F95A46F3
:1054B0000C9020460C9902F0E7F859460346204626
:1054C000039301F04DFF039B9B46159BDA1B40F0B5
:1054D00011830121204602F071F9069017980028E7
:1054E00005DD06992046179A02F0B6F906902A992A
:1054F000012940F30A810027179B002B40F06182AD
:105500000123534413F01F0340F02A811C230F9AF8
:105510009A44ED18D2180F920F9B002B05DD5946C7
:105520001A46204602F052F88346BAF1000F05DD14
:1055300006995246204602F049F80690189800282D
:1055400040F029822A9808990228D4BF0023012319
:105550000029CCBF002303F00103002B00F00C81D5
:10556000002940F08C8005220699089B204602F015
:105570002FF906905846069901F0B8FD00287EDD07
:10558000109D01360027DDF830A0312305F8013BDE
:105590000699204601F0E4FEBAF1000F00F0D58034
:1055A0003B1E18BF012357450CBF002303F0010326
:1055B000002B40F0D0805146204601F0D1FE1296DB
:1055C0002046594601F0CCFE129A531C00222A7044
:1055D0002C982E990360002900F0D4812E9A1098FF
:1055E000156012E4102001F089F8C66046608660FC
:1055F000066006466062FFF7D2BB0F987142002238
:105600001591801B17920F908AE40021013E18919A
:1056100072E4DDE906234FF00208CDE9122321E50B
:105620002A98012840F36C82089A1598531E9842D4
:10563000C0F25882C71A089B002BA8BF0F9DC0F26A
:1056400073820F9A204601219A44D2180F9202F0D9
:10565000B5F80C9008E7089B73B940F200030022EC
:10566000C4F21403DDE9040103F004F942464B4699
:1056700003F086FB00286AD0002206920C922B9B36
:105680000027DDF830A0DE43109D81E70021169150
:105690002B98002840F39F812B9801461190089089
:1056A000656A002217296A6040F2AB8204235B001E
:1056B000013203F114008842F9D9089B6A600E2B6D
:1056C0008CBF002707F001079DE4012216922B9B57
:1056D000F3181193591C0029C8BF0891E0DC0E296A
:1056E0008CBF002707F00107089189E40123169376
:1056F000CEE700221692EAE74FF0FF3300270120A1
:105700001193169008932B977AE4B8F1000F7FF469
:10571000F2AE29F07F4323F47003002B7FF4EBAE4D
:1057200040F20003C7F6F07309EA0303002B3FF4CD
:10573000E2AE0F9A0AF1010A012701320F92DBE66D
:1057400035465C460F9EDDF82CB0129638E70020F7
:1057500006900C9014E73946204601F001FE2AE736
:10576000C3F12003042B40F354820F99043B9A4465
:10577000ED18C9180F91CFE61699002900F0318174
:10578000002D05DD0C992A46204601F01FFF0C90E4
:10579000002F40F0EA81DDF830A0109D012308F0D1
:1057A00001000C9F11900F951D460C9606995846C6
:1057B000FFF75AFA394630300B90584601F096FC04
:1057C000069952460646204601F084FEC36880468C
:1057D000002B3DD04FF001094146204601F0C0FDAD
:1057E0002A9959EA010103D1119A002A00F0EB81AC
:1057F000002EC0F29E812A9A324303D1119B002BC6
:1058000000F09781B9F1000F00F3CE810F990B9A48
:1058100001F8012B089B0F919D4200F0C28159466F
:105820000A220023204601F0D3FF5745394683461C
:1058300014D00A2200232046013501F0C9FF514649
:105840000A2200230746204601F0C2FF8246ADE748
:105850005846414601F04AFC8146BDE720460A22EF
:105860000023013501F0B4FF074682469EE71296F9
:10587000DDF820C059E47542002D40F00181DDE9DA
:1058800006014FF00208CDE90C010CE44AF2E051A8
:105890004246C2F200014B4601EBCC01CDF80CC0F0
:1058A000109D51E9020102F0E5FFCDE91A01DDE9A1
:1058B0000C0103F079FA074602F076FF0B46024628
:1058C000DDE90C0102F022FE07F13003CDE90C0105
:1058D00005F8013BDDF80CC0BCF1010F29D0D14621
:1058E000DDE90C01B246109E1C9501276546A046D5
:1058F00040F200030022C4F2240302F0BBFFCDE912
:105900000C0103F051FA044602F04EFF3034024617
:105910000B46DDE90C0102F0F9FDF4550137AF4209
:10592000E6D11C9D013F56464446CA46ED19CDE9D5
:105930000C0140F200030022C3F6E073DDE91A0116
:1059400002F0E6FD02460B46DDE90C0103F022FA07
:10595000F0B940F20001DDE91A230020C3F6E0713E
:1059600002F0D4FD02460B46DDE90C0103F0F4F928
:1059700000283FF4ACAC2B461D4613F8012D302A0D
:10598000FAD01DE61098FFF740BADDF868B00C9C1D
:10599000129E109950E55846069901F0A7FB002881
:1059A000BFF6D0AD594620460A22002301F010FF71
:1059B0001699013E8346002940F01981119A0892F8
:1059C000C0E50698036900EB8303186901F03CFB0E
:1059D000C0F1200395E50121119108912B91FFF76A
:1059E0000FBB109DB146169FAA46DDF81880089E91
:1059F00002E001F0EDFE834641465846FFF734F9D8
:105A000001350A220023594600F1300C0AF807C07C
:105A100001372046BE42ECDCDDF830A04E460027C0
:105A2000CDF82CC059460122204601F0CFFD069941
:105A3000834601F05BFB00280FDD109900E01D4656
:105A400015F8012C6B1E392A40F08C808B42F6D160
:105A50001099312301360B709AE503D10B9810F0A1
:105A6000010FEAD12B461D4613F8012D302AFAD03A
:105A70008EE55946159A204601F0EEFE834628E54C
:105A800005F00F034AF2E052C2F20002DDE906011E
:105A900002EBC303D3E9002302F0ECFE2D1108BF93
:105AA0004FF00208CDE90C013FF4FDAA4AF2B867B5
:105AB000DDE90C234FF00208C2F2000715F0010FD8
:105AC0001046194607D0D7E9002308F1010802F073
:105AD000D1FE02460B4608376D10EFD1CDE90C23FD
